:020000040000FA
:100000000C9458000C9480000C9480000C94800098
:100010000C9480000C9480000C9480000C94800060
:100020000C9480000C9480000C9480000C94800050
:100030000C9480000C9480000C9480000C94800040
:100040000C947E050C9480000C94EE050C94C8056D
:100050000C9480000C9480000C9480000C94800020
:100060000C9420060C94800000000000250028005D
:100070002B00040404040404040402020202020229
:10008000030303030303010204081020408001025C
:1000900004081020010204081020000000080002DB
:1000A00001000003040700000000000000003F07FB
:1000B00011241FBECFEFD8E0DEBFCDBF11E0A0E01E
:1000C000B1E0E6E9F2E102C005900D92A836B10771
:1000D000D9F722E0A8E6B1E001C01D92A83EB20720
:1000E000E1F710E0C8E5D0E004C02197FE010E94CE
:1000F0004309C735D107C9F70E9487070C944909FE
:100100000C94000090E0FC01E656FF4F2491FC01A6
:10011000EA57FF4F3491FC01EE58FF4FE491EE2374
:10012000C9F0222339F0233001F1A8F4213019F16C
:10013000223029F1F0E0EE0FFF1FE859FF4FA591A3
:10014000B4918FB7F894EC91611126C030953E239D
:100150003C938FBF08952730A9F02830C9F0243090
:1001600049F7809180008F7D03C0809180008F7758
:1001700080938000DFCF84B58F7784BDDBCF84B5DB
:100180008F7DFBCF8091B0008F778093B000D2CF6E
:100190008091B0008F7DF9CF3E2BDACF3FB7F89436
:1001A00080912F0290913002A0913102B0913202E1
:1001B00026B5A89B05C02F3F19F00196A11DB11DC2
:1001C0003FBFBA2FA92F982F8827BC01CD01620FFE
:1001D000711D811D911D42E0660F771F881F991FB9
:1001E0004A95D1F708958F929F92AF92BF92CF9286
:1001F000DF92EF92FF924B015C010E94CE006B01F7
:100200007C010E94CE006C197D098E099F09683E11
:10021000734081059105A8F321E0821A9108A10895
:10022000B10888EEC80E83E0D81EE11CF11C8114D1
:100230009104A104B10429F7FF90EF90DF90CF90D3
:10024000BF90AF909F908F90089508950895AF92BA
:10025000BF92CF92DF92EF92FF920F931F93CF93B3
:10026000DF936C017B018B01040F151FEB015E0115
:10027000AE18BF08C017D10759F06991D601ED91AA
:10028000FC910190F081E02DC6010995892B79F749
:10029000C501DF91CF911F910F91FF90EF90DF90FB
:1002A000CF90BF90AF900895FC01538D448D252FC2
:1002B00030E0842F90E0821B930B541710F0CF9600
:1002C000089501970895FC01918D828D981761F032
:1002D000A28DAE0FBF2FB11D5D968C91928D9F5F49
:1002E0009F73928F90E008958FEF9FEF0895FC0128
:1002F000918D828D981731F0828DE80FF11D858DDB
:1003000090E008958FEF9FEF0895FC01918D228D6D
:10031000892F90E0805C9F4F821B91098F739927F2
:10032000089583E392E00E94850121E0892B09F47E
:1003300020E0822F089580E090E0892B29F00E9430
:10034000910181110C9400000895FC01A48DA80F67
:10035000B92FB11DA35ABF4F2C91848D90E0019607
:100360008F739927848FA689B7892C93A089B18927
:100370008C91837080648C93938D848D981306C0C8
:100380000288F389E02D80818F7D80830895EF922C
:10039000FF920F931F93CF93DF93EC0181E0888F3F
:1003A0009B8D8C8D98131AC0E889F989808185FF0F
:1003B00015C09FB7F894EE89FF896083E889F989B1
:1003C00080818370806480839FBF81E090E0DF91B3
:1003D000CF911F910F91FF90EF900895F62E0B8D06
:1003E00010E00F5F1F4F0F731127E02E8C8D8E11C1
:1003F0000CC00FB607FCFACFE889F989808185FF28
:10040000F5CFCE010E94A501F1CFEB8DEC0FFD2FB2
:10041000F11DE35AFF4FF0829FB7F8940B8FEA89E2
:10042000FB8980818062CFCF682F83E392E00C94B8
:10043000C701CF93DF93EC01888D8823B9F0AA8997
:10044000BB89E889F9898C9185FD03C0808186FD8F
:100450000DC00FB607FCF7CF8C9185FFF2CF8081DE
:1004600085FFEDCFCE010E94A501E9CFDF91CF91AD
:10047000089508952091AF01260F3327331F2132AD
:100480003105ECF42091F801FC0190E080E024308B
:1004900069F082E00895A091AF012191AC0141572C
:1004A0005E4FA40FB52FB11D2C930196861798F3BC
:1004B0008091AF01680F6093AF0180E0089581E003
:1004C00008951092F80181E08093F7011092D20113
:1004D00061E082E10E94820061E083E10E9482008B
:1004E000E9EBF0E080818E7F808380818D7F808347
:1004F00088E48093B80085E48093BC000895CF938E
:10050000DF9391E090938E018823B9F0C091B800F9
:10051000D091BA008091BC008A7B8093BC0060E0DF
:1005200082E10E94820060E083E10E9482000E94DA
:100530006102D093BA00C093B800DF91CF910895C3
:100540000895E091270280912602E81730F4F0E048
:10055000E259FE4F808190E008958FEF9FEF08955C
:1005600090912702809126022FEF3FEF981748F4D1
:10057000E92FF0E0E259FE4F208130E09F5F909339
:100580002702C90108958091260290912702891BB4
:10059000990B0895CF92DF92EF92FF920F931F93E2
:1005A000CF93DF937C01CB018A012091FE012223AE
:1005B00089F0EB016B01C40ED51ECC15DD0569F089
:1005C0006991D701ED91FC910190F081E02DC70177
:1005D0000995F3CF642F0E943A02C801DF91CF91B1
:1005E0001F910F91FF90EF90DF90CF900895CF93E0
:1005F000DF931F92CDB7DEB769832091FE012223DE
:10060000F9F020912402203258F021E030E0FC0182
:100610003383228390E080E00F90DF91CF910895A3
:1006200080912502E82FF0E0E150FE4F9981908300
:100630008F5F809325028093240281E090E0ECCFCD
:1006400061E0CE0101960E943A02F7CFCF92DF928D
:10065000EF92FF920F931F93CF93DF93FC01C4811E
:1006600021E02093FE01C0931F02109225021092F8
:1006700024028385682B80ED92E00E94F702D091DE
:100680002402D13208F092C00E94CE006B017C019E
:100690008091F801811165C082E08093F80181E0CA
:1006A0008093F7018FEF8093F6011092F501D093BC
:1006B000F401AFEFB1E0E4EDF1E080E0D81385C0E4
:1006C0001092D3018091D301CC0FC82BC093D301DA
:1006D0008091D201813009F07CC01092D2010E9439
:1006E000CE006B017C018091D3018093BB0080918F
:1006F000FA019091FB01A091FC01B091FD01892BC1
:100700008A2B8B2B99F00E94CE000091FA01109158
:10071000FB012091FC013091FD016C197D098E09CE
:100720009F090617170728073907E0F18091BC00D9
:1007300083FDD9CF85EC8093BC000E94CE006B0175
:100740007C018091F801823009F445C08091F60166
:100750008F3F61F18091F601803241F18091F60185
:1007600025C08091FA019091FB01A091FC01B0910C
:10077000FD01892B8A2B8B2B09F48ACF0E94CE0096
:100780000091FA011091FB012091FC013091FD01D3
:100790006C197D098E099F09061717072807390765
:1007A00008F076CF8091F9010E947F021092250215
:1007B000109224021092FE01DF91CF911F910F91B0
:1007C000FF90EF90DF90CF9008959D9191938F5F70
:1007D00075CF85EEB0CF8091FA019091FB01A09189
:1007E000FC01B091FD01892B8A2B8B2B09F4A9CF39
:1007F0000E94CE000091FA011091FB012091FC01B2
:100800003091FD016C197D098E099F0906171707A4
:100810002807390708F095CFC5CF90E080E008950C
:100820008F929F92AF92BF920F931F93CF93DF93BC
:10083000CDB7DEB7A1970FB6F894DEBF0FBECDBF20
:1008400019A2423008F44AE08E010F5D1F4F842E3A
:10085000912CB12CA12CA50194010E942109E62F15
:10086000B901CA01EA3044F5E05DD801EE938D018B
:10087000232B242B252B79F790E080E0109769F04B
:10088000FD0101900020E9F73197AF014A1B5B0B96
:10089000BD018CED92E00E942701A1960FB6F8945D
:1008A000DEBF0FBECDBFDF91CF911F910F91BF90E3
:1008B000AF909F908F900895E95CD7CFFC01019095
:1008C0000020E9F73197AF01481B590BBC018CEDB3
:1008D00092E00C9427010F931F93CF938C01C62FA6
:1008E0000E9426036C2F6460C8010E9426036C2FAF
:1008F0006B7FC8010E94260383EC90E00197F1F71B
:10090000CF911F910F9108950F931F93CF93DF9372
:100910008C01D62FC42F607F642B0E946B0480E172
:10092000D89FB00111246C2BC801DF91CF911F918A
:100930000F910C946B04CF93DF93CDB7DEB728975C
:100940000FB6F894DEBF0FBECDBF98E0E0E0F1E057
:10095000DE01119601900D929A95E1F79091E402D3
:10096000961708F46FEF262F30E0220F331F41E077
:1009700050E04C0F5D1F240F351FF9016081680F97
:10098000606840E08CED92E028960FB6F894DEBFE8
:100990000FBECDBFDF91CF910C94840441E00E9443
:1009A000840481E090E00895CF9380E390E00E947A
:1009B000140283E392E00E948501892BD1F383E343
:1009C00092E00E946301C82F80936A0183E392E062
:1009D0000E948501892BD1F383E392E00E94630199
:1009E00020E03C2F282B309369012093680161E0BF
:1009F00080E00E949B0488E391E00E945E04609185
:100A000068017091690190E080E04AE00E94100462
:100A10008BE391E0CF910C945E04CF9381E390E05F
:100A20000E94140283E392E00E948501892BD1F396
:100A300083E392E00E946301C82F80936D0183E3FA
:100A400092E00E948501892BD1F383E392E00E941A
:100A5000630120E03C2F282B30936C0120936B0125
:100A600061E088E00E949B048FE391E00E945E04B5
:100A700060916B0170916C0190E080E04AE00E940F
:100A8000100482E491E0CF910C945E0485ED809394
:100A9000BC008091FA019091FB01A091FC01B09102
:100AA000FD010796A11DB11D23E0B695A795979569
:100AB00087952A95D1F72091BC0024FD03C01092A0
:100AC000F80108954091FA015091FB016091FC01F9
:100AD0007091FD01452B462B472B69F30097A1052B
:100AE000B10541F02AE22A95F1F700C00197A1096A
:100AF000B109E1CF8091F9010C947F021F920F920E
:100B00000FB60F9211242F933F938F939F93AF9320
:100B1000BF9380912B0290912C02A0912D02B09155
:100B20002E0230912A0223E0230F2D3758F501962B
:100B3000A11DB11D20932A0280932B0290932C02B9
:100B4000A0932D02B0932E0280912F02909130023B
:100B5000A0913102B09132020196A11DB11D809386
:100B60002F0290933002A0933102B0933202BF91D2
:100B7000AF919F918F913F912F910F900FBE0F904A
:100B80001F90189526E8230F0296A11DB11DD2CF04
:100B90001F920F920FB60F9211242F933F934F93F2
:100BA0005F936F937F938F939F93AF93BF93EF93D5
:100BB000FF9383E392E00E94A501FF91EF91BF9123
:100BC000AF919F918F917F916F915F914F913F91E5
:100BD0002F910F900FBE0F901F9018951F920F929C
:100BE0000FB60F9211242F938F939F93EF93FF9340
:100BF000E0914302F09144028081E0914902F0913A
:100C00004A0282FD1BC0908180914C028F5F8F73DE
:100C100020914D02821741F0E0914C02F0E0ED5C32
:100C2000FD4F958F80934C02FF91EF919F918F9193
:100C30002F910F900FBE0F901F9018958081F4CFC9
:100C40001F920F920FB60F9211242F933F934F9341
:100C50005F936F937F938F939F93AF93BF93EF9324
:100C6000FF938091B900887F803609F44AC0F0F57F
:100C7000883209F4A7C018F5803109F49BC0B8F494
:100C8000882309F4F9C0883009F494C0FF91EF91EA
:100C9000BF91AF919F918F917F916F915F914F9194
:100CA0003F912F910F900FBE0F901F901895883194
:100CB00009F488C0803251F78093F60114C0803463
:100CC00009F49DC040F48033B9F38833F9F680937A
:100CD000F60185ECB0C0803509F485C0883509F48B
:100CE00096C0883499F60E944605D0CF883909F419
:100CF0008CC038F5883729F050F4883611F08037E9
:100D000029F683E08093F8011092D10157C088380A
:100D100009F47BC0803919F0803809F0B7CF809191
:100D2000D101803208F071C0E091D10181E08E0FD5
:100D30008093D1018091BB00F0E0EF54FE4F80839F
:100D40003DC0803B39F0E0F4803A09F479C0883A3C
:100D500009F09CCF84E08093F8011092B0011092CA
:100D6000AF01E0912202F091230209958091AF0139
:100D700081110FC081E08093AF0110928F0109C0F3
:100D8000803C09F4A6CF883C09F4A3CF883B09F046
:100D90007DCFE091B00181E08E0F8093B001F0E053
:100DA000E157FE4F80818093BB009091B00180910C
:100DB000AF0129C08091D3018093BB0085EC809363
:100DC000BC0064CF9091F5018091F401981758F51B
:100DD000E091F50181E08E0F8093F501F0E0EC5297
:100DE000FE4F8081E9CFE091F50181E08E0F809385
:100DF000F5018091BB00F0E0EC52FE4F80839091B2
:100E0000F5018091F4019817C8F285E8D8CFE091F8
:100E1000F50181E08E0F8093F5018091BB00F0E039
:100E2000EC52FE4F80838091F70181115CCF81E00D
:100E30008093D20184EA8093BC001092F80126CFFF
:100E400085EC8093BC001092F8018091D101803232
:100E500030F4E091D101F0E0EF54FE4F1082609148
:100E6000D10170E0E0912002F091210281EB91E04C
:100E700009951092D1010ACF1092F60134CFE3E325
:100E8000F2E01382128288EE93E0A0E0B0E0848367
:100E90009583A683B7832CE031E03183208325EC52
:100EA00030E03587248724EC30E03787268720EC34
:100EB00030E0318B208B21EC30E0338B228B22EC25
:100EC00030E0358B248B26EC30E0378B268B118E6F
:100ED000128E138E148EE0EDF2E013821282848360
:100EE0009583A683B7838EE191E091838083ECEDB7
:100EF000F2E01382128280E391E09183808387E2A3
:100F0000848380E1818782E08287138608957894C4
:100F100084B5826084BD84B5816084BD85B58260FE
:100F200085BD85B5816085BD80916E0081608093AF
:100F30006E00109281008091810082608093810018
:100F40008091810081608093810080918000816028
:100F5000809380008091B10084608093B100809183
:100F6000B00081608093B00080917A0084608093AB
:100F70007A0080917A00826080937A0080917A0072
:100F8000816080937A0080917A00806880937A00F3
:100F90001092C100E0914302F091440282E080830C
:100FA000E0913F02F09140021082E0914102F09105
:100FB000420287E6808310924B02E0914702F09153
:100FC000480286E08083E0914502F09146028081EC
:100FD00080618083E0914502F091460280818860C3
:100FE0008083E0914502F091460280818068808391
:100FF000E0914502F091460280818F7D80831092BE
:1010000027021092260210922502109224020E94BA
:10101000610285E291E0909323028093220286E2AE
:1010200091E090932102809320021092E10280913E
:10103000E602823018F098E09093E1028093E40297
:1010400062E370E080E090E00E94F3006091E702CC
:101050008CED92E00E94260368EE73E080E090E061
:101060000E94F30060E38CED92E00E946B04CBE4FD
:10107000D6E4CE010197F1F760E38CED92E00E9497
:101080006B042197F1F760E38CED92E00E946B0412
:1010900083E592E00197F1F760E28CED92E00E9427
:1010A0006B046091E102606240E08CED92E00E948E
:1010B000840484E08093E20240E06CE08CED92E0F6
:1010C0000E94840440E061E08CED92E00E94840480
:1010D000CBE3DFE1CE010197F1F782E08093E302F9
:1010E00040E066E08CED92E00E94840440E062E023
:1010F0008CED92E00E948404CE010197F1F788E024
:101100008093E70260E08CED92E00E94260340E0CD
:1011100061E08CED92E00E948404CE010197F1F72A
:1011200040E062E08CED92E00E9484042197F1F7A8
:1011300060E080E00E949B0486E491E00E945E04EF
:101140008FEF90E00E9414028FEF90E00E94140253
:101150008FEF90E00E941402C0E0D0E090E080E0C9
:101160000E94140281E090E00E94140281E090E06D
:101170000E94140290E080E00E94140260E080E08F
:101180000E949B0486E591E00E945E0480E190E06D
:101190000E94140283E392E00E948501892BD1F31F
:1011A00083E392E00E9463019093290280932802D6
:1011B0000E94D4040E940D0580912802909129027A
:1011C000892B21F381E090E00E94140281E090E0FD
:1011D0000E94140290E080E00E94140290E080E0FF
:1011E0000E94140260E080E00E949B048FE591E081
:1011F0000E945E0481E190E00E94140283E392E089
:101200000E948501892BD1F383E392E00E94630160
:1012100090932902809328020E94D4040E940D0515
:101220008091280290912902019721F3209709F4D7
:1012300095CF0E949101882309F490CF0E9400006D
:101240008DCFA1E21A2EAA1BBB1BFD010DC0AA1F48
:10125000BB1FEE1FFF1FA217B307E407F50720F01F
:10126000A21BB30BE40BF50B661F771F881F991F9A
:101270001A9469F760957095809590959B01AC01E3
:10128000BD01CF010895EE0FFF1F0590F491E02DF1
:101290000994F894FFCF00004000140054000000AF
:1012A0000000C7012701540119028501630177017C
:1012B00000000000F702CA020D04A002C302B0023F
:1012C000A10200000000CE0427010D043902563DA2
:1012D000004C202000543D004320200020436F6E2E
:1012E0006E65637420737274616E6B0046696C6C1A
:0E12F000696E672000456D707479696E670045
:107E0000112484B714BE81FFF0D085E080938100F7
:107E100082E08093C00088E18093C10086E0809377
:107E2000C20080E18093C4008EE0C9D0259A86E02C
:107E300020E33CEF91E0309385002093840096BBD3
:107E4000B09BFECF1D9AA8958150A9F7CC24DD24C4
:107E500088248394B5E0AB2EA1E19A2EF3E0BF2EE7
:107E6000A2D0813461F49FD0082FAFD0023811F036
:107E7000013811F484E001C083E08DD089C08234E0
:107E800011F484E103C0853419F485E0A6D080C0E4
:107E9000853579F488D0E82EFF2485D0082F10E0AE
:107EA000102F00270E291F29000F111F8ED06801E7
:107EB0006FC0863521F484E090D080E0DECF843638
:107EC00009F040C070D06FD0082F6DD080E0C81688
:107ED00080E7D80618F4F601B7BEE895C0E0D1E017
:107EE00062D089930C17E1F7F0E0CF16F0E7DF06D8
:107EF00018F0F601B7BEE89568D007B600FCFDCFD4
:107F0000A601A0E0B1E02C9130E011968C91119780
:107F100090E0982F8827822B932B1296FA010C0160
:107F200087BEE89511244E5F5F4FF1E0A038BF0790
:107F300051F7F601A7BEE89507B600FCFDCF97BE46
:107F4000E89526C08437B1F42ED02DD0F82E2BD052
:107F50003CD0F601EF2C8F010F5F1F4F84911BD097
:107F6000EA94F801C1F70894C11CD11CFA94CF0C13
:107F7000D11C0EC0853739F428D08EE10CD085E9AC
:107F80000AD08FE07ACF813511F488E018D01DD067
:107F900080E101D065CF982F8091C00085FFFCCF94
:107FA0009093C60008958091C00087FFFCCF809118
:107FB000C00084FD01C0A8958091C6000895E0E648
:107FC000F0E098E1908380830895EDDF803219F02E
:107FD00088E0F5DFFFCF84E1DECF1F93182FE3DFCA
:107FE0001150E9F7F2DF1F91089580E0E8DFEE27F6
:047FF000FF270994CA
:027FFE00040479
:00000001FF
