:100000000C9436020C945E020C945E020C945E0218
:100010000C945E020C945E020C945E020C945E02E0
:100020000C945E020C945E020C945E020C945E02D0
:100030000C945E020C945E020C945E020C945E02C0
:100040000C94F7220C945E020C9467230C944123C9
:100050000C945E020C945E020C945E020C945E02A0
:100060000C9499230C945E0200407A10F35A00A07D
:10007000724E18090010A5D4E80000E87648170071
:1000800000E40B54020000CA9A3B000000E1F505B1
:10009000000080969800000040420F000000A086FB
:1000A00001000000102700000000E803000000002D
:1000B0006400000000000A000000000001000000D1
:1000C00000002C76D888DC674F0823DFC1DFAE59EB
:1000D000E1B1B796E5E3E453C63AE651997696E87E
:1000E000E6C28426EB898C9B62ED407C6FFCEFBC02
:1000F0009C9F40F2BAA56FA5F490055A2AF75C932D
:100100006B6CF9676DC11BFCE0E40D47FEF520E662
:10011000B500D0ED902E0300943577050080841E45
:10012000080000204E0A000000C80C333333330FA0
:10013000986E12831141EF8D2114893BE65516CF3D
:10014000FEE6DB18D1844B381BF77C1D901DA4BB49
:10015000E424203284725E228100C9F124ECA1E5FE
:100160003D275D2000626C6E6B696E66006D637585
:1001700000302E302E300066772D74797065005473
:100180004D504C33322D72444757723700627569B7
:100190006C640041756720313320323032342032B4
:1001A000303A33363A333000626C796E6B00312E60
:1001B000332E3200682D626561740034350062753B
:1001C00066662D696E0032353600646576004172D0
:1001D0006475696E6F20556E6F00637075004154D1
:1001E0006D6567613332385000636F6E005735318B
:1001F0003030000000436F6E6E656374696E672077
:10020000746F2000436F6E6E656374696E6720744F
:100210006F20000D0A202020205F5F5F20205F5F9D
:10022000202020202020202020205F5F0D0A202079
:10023000202F205F20292F202F5F205F5F5F5F5FCF
:1002400020202F202F5F5F0D0A20202F205F2020ED
:100250002F202F202F2F202F205F205C2F202027C2
:100260005F2F0D0A202F5F5F5F5F2F5F2F5C5F2C7A
:10027000202F5F2F2F5F2F5F2F5C5F5C0D0A2020E8
:100280002020202020202F5F5F5F2F2076312E330B
:100290002E32206F6E2041726475696E6F20556E2C
:1002A0006F0D0A0D0A20235374616E6457697468D8
:1002B000556B7261696E65202020206874747073BC
:1002C0003A2F2F6269742E6C792F737775610D0A3E
:1002D0000D0A0049503A0044484350204661696C79
:1002E0006564210047657474696E672049502E2E3D
:1002F0002E0000000000240027002A00000000005B
:10030000250028002B006D73292E00526561647949
:10031000202870696E673A20000000000023002644
:10032000002900040404040404040402020202027A
:1003300002030303030303010204081020408001A9
:100340000204081020010204081020000000080028
:10035000020100000304070000000000000000612B
:100360000261026102610261026102610261026175
:100370000261026102610261026102610261026165
:100380000261026102610261026102610261026155
:10039000026102610261026102610261026102DCCA
:1003A0000A6002CE0A6002600260026002600260BF
:1003B000026002600260026002600260026002602D
:1003C000026002600260026002600260026002601D
:1003D0000260026002600260026002600260024924
:1003E0006E76616C696420485720636D643A200022
:1003F0005365727665723A2000526564697265636E
:1004000074696E6720746F200052656164790050D2
:1004100061636B657420746F6F206269673A2000B6
:10042000436F6E6E656374206661696C65642E202F
:10043000636F64653A2000496E76616C696420617F
:1004400075746820746F6B656E004C6F67696E2001
:1004500074696D656F757400486561727462656179
:10046000742074696D656F757400562511241FBE64
:10047000CFEFD8E0DEBFCDBF12E0A0E0B1E0E2EC0C
:10048000F9E602C005900D92A635B107D9F725E02F
:10049000A6E5B2E001C01D92A137B207E1F712E074
:1004A000C6E3D2E004C02197FE010E949D34C5330B
:1004B000D107C9F70E944B260C94DF340C9400003E
:1004C000089508958CBD9DBD089520E3FC0120830F
:1004D0003296862F82958F706F706A3030F4605D2F
:1004E0006293682F8111F5CF0895695CF9CFFC0103
:1004F000818D928D0895833081F028F4813099F0B8
:100500008230A9F008958730A9F08830C9F084308E
:10051000B1F4809180008F7D03C0809180008F773F
:1005200080938000089584B58F7784BD089584B545
:100530008F7DFBCF8091B0008F778093B0000895BE
:100540008091B0008F7DF9CF1F93CF93DF93282F39
:1005500030E0F901E55BFC4F8491F901E95CFC4F67
:10056000D491F901ED5DFC4FC491CC23A9F0162F75
:1005700081110E947B02EC2FF0E0EE0FFF1FE45090
:10058000FD4FA591B4918FB7F894EC91111108C06B
:10059000D095DE23DC938FBFDF91CF911F9108951B
:1005A000DE2BF8CFCF93DF9390E0FC01E95CFC4FAA
:1005B00024918D5D9C4FFC0184918823C9F090E0CB
:1005C000880F991FFC01EE50FD4FA591B491FC01DD
:1005D000E450FD4FC591D49161110DC09FB7F894BF
:1005E0008C91209582238C938881282328839FBF18
:1005F000DF91CF910895623051F49FB7F8943C9108
:10060000822F809583238C93E8812E2BEFCF8FB799
:10061000F894EC912E2B2C938FBFEACF8E3008F0FC
:100620008E508770806480937C0080917A00806413
:1006300080937A0080917A0086FDFCCF80917800CB
:100640009091790008953FB7F89480916403909158
:100650006503A0916603B091670326B5A89B05C00A
:100660002F3F19F00196A11DB11D3FBFBA2FA92F31
:10067000982F8827BC01CD01620F711D811D911D2E
:1006800042E0660F771F881F991F4A95D1F708959A
:100690008F929F92AF92BF92CF92DF92EF92FF9292
:1006A0006B017C010E9423034B015C01C114D10446
:1006B000E104F104B9F00E942303681979098A0959
:1006C0009B09683E73408105910580F321E0C21AC1
:1006D000D108E108F10888EE880E83E0981EA11C7D
:1006E000B11CE4CFFF90EF90DF90CF90BF90AF9020
:1006F0009F908F9008952FB7F89460916003709148
:10070000610380916203909163032FBF08954F921C
:100710005F926F927F92AF92BF92CF92DF92EF92F1
:10072000FF920F931F93CF93DF93EC016B017B013B
:10073000E40EF51E8B015801AC18BD080E151F05FF
:1007400011F10E947B03688779878A879B87E881FC
:10075000F9810284F385E02DCE01099597FF23C02E
:100760000E947B03488459846A847B8464197509D8
:10077000860997094C805D806E807F8064157505C1
:100780008605970520F3C501DF91CF911F910F9149
:10079000FF90EF90DF90CF90BF90AF907F906F90E1
:1007A0005F904F900895F80181938F01C4CFDC01D1
:1007B000ED91FC910190F081E02D0994AF92BF92F0
:1007C000CF92DF92EF92FF920F931F93CF93DF931D
:1007D0006C017B018B01040F151FEB015E01AE184C
:1007E000BF08C017D10759F06991D601ED91FC916E
:1007F0000190F081E02DC6010995892B79F7C5019B
:10080000DF91CF911F910F91FF90EF90DF90CF90EC
:10081000BF90AF900895FC01538D448D252F30E09B
:10082000842F90E0821B930B541710F0CF960895FD
:1008300001970895FC01918D828D981761F0A28D2A
:10084000AE0FBF2FB11D5D968C91928D9F5F9F73F0
:10085000928F90E008958FEF9FEF0895FC01918DA6
:10086000828D981731F0828DE80FF11D858D90E013
:1008700008958FEF9FEF0895FC01918D228D892FB0
:1008800090E0805C9F4F821B91098F739927089598
:1008900085E893E00E943C0421E0892B09F420E0E4
:1008A000822F089580E090E0892B29F00E9448046F
:1008B00081110C9400000895FC01A48DA80FB92F9C
:1008C000B11DA35ABF4F2C91848D90E001968F7378
:1008D0009927848FA689B7892C93A089B1898C9197
:1008E000837080648C93938D848D981306C00288E6
:1008F000F389E02D80818F7D80830895EF92FF92B0
:100900000F931F93CF93DF93EC0181E0888F9B8D32
:100910008C8D98131AC0E889F989808185FF15C0EC
:100920009FB7F894EE89FF896083E889F98980810F
:100930008370806480839FBF81E090E0DF91CF91DE
:100940001F910F91FF90EF900895F62E0B8D10E000
:100950000F5F1F4F0F731127E02E8C8D8E110CC06F
:100960000FB607FCFACFE889F989808185FFF5CFBA
:10097000CE010E945C04F1CFEB8DEC0FFD2FF11D39
:10098000E35AFF4FF0829FB7F8940B8FEA89FB89F7
:1009900080818062CFCF0F931F93CF93DF938C0121
:1009A000D0E0C0E0F801EC0FFD1F6491662341F038
:1009B00085E893E00E947E04892B11F02196F2CF06
:1009C000CE01DF91CF911F910F910895CF93DF93C7
:1009D000EC01888D8823B9F0AA89BB89E889F98957
:1009E0008C9185FD03C0808186FD0DC00FB607FC8C
:1009F000F7CF8C9185FFF2CF808185FFEDCFCE01BF
:100A00000E945C04E9CFDF91CF9108951F93CF93AB
:100A1000DF93C1E0C0935D02882399F1D091B800C3
:100A20001091BA008091BC008A7B8093BC0060E08A
:100A300082E10E94A40260E083E10E94A40210927D
:100A4000C702C093C6021092A10261E082E10E9437
:100A5000A40261E083E10E94A4028091B9008E7F2C
:100A60008093B9008091B9008D7F8093B90088E4AC
:100A70008093B80085E48093BC001093BA00D093B3
:100A8000B800DF91CF911F91089520917E02260F2B
:100A90003327331F21323105ECF42091C702FC01CA
:100AA00090E080E0243069F082E00895A0917E0219
:100AB0002191AC01425A5D4FA40FB52FB11D2C936B
:100AC0000196861798F380917E02680F60937E02EC
:100AD00080E0089581E008958FEF9FEF08958FEFF4
:100AE0009FEF089580915C0290E091958195910926
:100AF0000895CF92DF92EF92FF920F931F93CF93BF
:100B0000DF937C01CB018A012091CD02222389F061
:100B1000EB016B01C40ED51ECC15DD0569F06991A2
:100B2000D701ED91FC910190F081E02DC70109956D
:100B3000F3CF642F0E944505C801DF91CF911F912B
:100B40000F91FF90EF90DF90CF900895CF93DF93B8
:100B50001F92CDB7DEB769832091CD022223F9F031
:100B60002091F002203258F021E030E0FC01338384
:100B7000228390E080E00F90DF91CF9108958091E3
:100B8000CE02E82FF0E0E153FD4F998190838F5F13
:100B90008093CE028093F00281E090E0ECCF61E0A0
:100BA000CE0101960E944505F7CFCF92DF92EF92DA
:100BB000FF920F931F93CF93DF93FC01C48121E039
:100BC0002093CD02C093EF021092CE021092F00259
:100BD0008385682B82E294E00E94A605D091F00202
:100BE000D13208F092C00E9423036B017C018091F6
:100BF000C702811165C082E08093C70281E08093C3
:100C0000C6028FEF8093C5021092C402D093C30234
:100C1000AFECB2E0E3EAF2E080E0D81385C01092D6
:100C2000A2028091A202CC0FC82BC093A202809195
:100C3000A102813009F07CC01092A1020E9423031E
:100C40006B017C018091A2028093BB008091C9025C
:100C50009091CA02A091CB02B091CC02892B8A2B31
:100C60008B2B99F00E9423030091C9021091CA02B4
:100C70002091CB023091CC026C197D098E099F091D
:100C80000617170728073907E0F18091BC0083FD9C
:100C9000D9CF85EC8093BC000E9423036B017C01BB
:100CA0008091C702823009F445C08091C5028F3F10
:100CB00061F18091C502803241F18091C50225C069
:100CC0008091C9029091CA02A091CB02B091CC024E
:100CD000892B8A2B8B2B09F48ACF0E942303009146
:100CE000C9021091CA022091CB023091CC026C193A
:100CF0007D098E099F09061717072807390708F08D
:100D000076CF8091C8020E9406051092CE02109202
:100D1000F0021092CD02DF91CF911F910F91FF90C1
:100D2000EF90DF90CF9008959D9191938F5F75CF55
:100D300085EEB0CF8091C9029091CA02A091CB02FA
:100D4000B091CC02892B8A2B8B2B09F4A9CF0E945E
:100D500023030091C9021091CA022091CB02309165
:100D6000CC026C197D098E099F0906171707280701
:100D7000390708F095CFC5CFFC0120812EBD9B011E
:100D80002150310941F051810DB407FEFDCF4EB520
:100D90005EBD4193F5CF61507109860F971F0DB469
:100DA00007FEFDCF2EB5FC0120830895E091F202ED
:100DB000F091F30280819091F102892B8083089554
:100DC000E091F202F091F30290818091F10280951E
:100DD0008923808308958EBD00000DB407FEFDCFEA
:100DE0008EB50895AF92BF92CF92DF92EF92FF92AD
:100DF0000F931F93CF93DF93CDB7DEB728970FB62E
:100E0000F894DEBF0FBECDBF8C017B016A018091DB
:100E100084038333E1F45801A40EB51EA016B10675
:100E200009F46FC00E94E00680EF0E94EB06812F5C
:100E30000E94EB06802F0E94EB060F5F1F4FF70109
:100E400081917F010E94EB060E94D606E7CF5B01ED
:100E5000A40EB51E8433C1F40E94E00619830A83F0
:100E60008D2D80688B83CC8264E070E0CE0101968A
:100E70000E94BC06AE14BF0409F441C0F701819181
:100E80007F010E94EB06F6CF0E94E0060F3F11059E
:100E900009F028F419820A8384E08B830CC017FDC3
:100EA00017C019820A8333E0169507953A95E1F742
:100EB000007E0C600B8386E0C816D104A0F5F70114
:100EC000DE011496EA15FB0599F081918D93FACF16
:100ED000C80126E0969587952A95E1F7807E1983CB
:100EE0000A830115104C10F48461D7CF8C61D5CFE3
:100EF000B6016D5F7F4FCE0101960E94BC060E9435
:100F0000D606C60128960FB6F894DEBF0FBECDBF39
:100F1000DF91CF911F910F91FF90EF90DF90CF90D5
:100F2000BF90AF90089563E070E0CE0101960E94FB
:100F3000BC06F70181917F010E94EB06AE14BF044D
:100F4000C1F7DDCFCF93DF931F92CDB7DEB7898393
:100F500041E050E0BE016F5F7F4F90E080E00E9473
:100F6000F2060F90DF91CF91089590E020918403D5
:100F7000233339F40C96982F990F990F990F80E02D
:100F800008954896F8CFDA01E091F502F0E0FE2FDF
:100F9000EE27E60FF71F90E0982F8827A901BD01E3
:100FA0008E0F9F1F0C94F206CF93DF9300D0CDB726
:100FB000DEB779836A8322E030E0AE014F5F5F4F96
:100FC00060E170E00E94C3070F900F90DF91CF9116
:100FD0000895CF93DF9300D0CDB7DEB779836A83CE
:100FE00022E030E0AE014F5F5F4F64E070E00E94AE
:100FF000C3070F900F90DF91CF910895CF93DF93A8
:101000001F92CDB7DEB72091F50230E0322F2227B4
:10101000260F371F90E0982F8827498341E050E042
:10102000BE016F5F7F4F820F931F0E94F2060F90E9
:10103000DF91CF910895CF93DF931F92CDB7DEB7A5
:101040006983DC01ED91FC910280F381E02D41E0A8
:1010500050E0BE016F5F7F4F09950F90DF91CF91F8
:1010600008950895FC019485FB018485981303C0BD
:1010700081E0943008F080E00895CF93DF931F92D1
:10108000CDB7DEB76983DC01ED91FC910280F3817D
:10109000E02D41E050E0BE016F5F7F4F09950F905A
:1010A000DF91CF9108950895FF920F931F93CF93EF
:1010B000DF93EB01FC01178A168A2A81211109C0EE
:1010C0002B81211106C02C81211103C02D812223E7
:1010D00001F141155105E9F08A01FC01F08C80E530
:1010E00091E00E946202AE014E5F5F4F24E030E06B
:1010F0006CE070E08F2D0E94C307B8018F2D0E9415
:10110000D40781E090E0DF91CF911F910F91FF9084
:10111000089580E0F7CFFC01848595850895FC0152
:101120008489958908952BEC31E0FC01318320837B
:10113000FB014089518962897389FC014283538391
:10114000648375830895DC01ED91FC91048CF58D29
:10115000E02D099490E080E00895FC0194859923A6
:1011600069F080819181DC01ED91FC910688F7891D
:10117000E02D099591E0811101C090E0892F08953B
:10118000DC011C961C921C978D919C91009739F064
:10119000DC01ED91FC910488F589E02D0994089516
:1011A000FC01768765870895DC01ED91FC9102A032
:1011B000F3A1E02D099591E089270895862F0895E0
:1011C00081E08627089521E0FC018485843008F0C1
:1011D00020E0822F089508950F931F93CF938C01E1
:1011E000C62F0E94D5056C2F6460C8010E94D505EA
:1011F0006C2F6B7FC8010E94D50583EC90E00197AE
:10120000F1F7CF911F910F9108950F931F93CF93F3
:10121000DF938C01D62FC42F607F642B0E94EC08D3
:1012200080E1D89FB00111246C2BC801DF91CF91D0
:101230001F910F910C94EC08CF93DF93CDB7DEB7DD
:1012400028970FB6F894DEBF0FBECDBF98E0EDE251
:10125000F1E0DE01119601900D929A95E1F79091DF
:101260006C04981708F48FEF90E0880F991F21E025
:1012700030E02C0F3D1F820F931FFC0160816068DE
:1012800040E084E694E028960FB6F894DEBF0FBEE7
:10129000CDBFDF91CF910C94050941E00E94050973
:1012A00081E090E00895FB0101900020E9F731977B
:1012B000AF01461B570BDC01ED91FC910280F381DD
:1012C000E02D0994CF93DF930E94CB04EC016DECE9
:1012D00071E085E893E00E9453098C0F9D1FDF9118
:1012E000CF9108958F929F92AF92BF92EF92FF920B
:1012F0000F931F93CF93DF93CDB7DEB7A1970FB6B0
:10130000F894DEBF0FBECDBF7C01FA01CB0119A25C
:10131000223008F42AE08E010F5D1F4F822E912C9F
:10132000B12CA12CBF01A50194010E944433F90105
:10133000CA016A300CF5605DD8016E938D01232BD4
:10134000242B252B79F790E080E0109721F0BD0148
:10135000C7010E945309A1960FB6F894DEBF0FBED5
:10136000CDBFDF91CF911F910F91FF90EF90BF9074
:10137000AF909F908F900895695CDECFCF93DF93FD
:10138000AC0170E060E02AE085E893E00E94720919
:10139000EC016DEC71E085E893E00E9453098C0F3D
:1013A0009D1FDF91CF910895462F50E070E060E0DF
:1013B0002AE00C9472098F929F92AF92BF92CF92C3
:1013C000DF92EF92FF920F931F93CF93DF937C01F5
:1013D0008B014C0182E0880E911C5701E5E0AE0EB6
:1013E000B11CD0E0C0E0F40161914F01C8010E943E
:1013F000D4096C016EE2C8010E94D7038C0D9D1DBB
:10140000C80FD91F8A149B0471F7F7016581C801C1
:101410000E94D4098C0F9D1FDF91CF911F910F91D6
:10142000FF90EF90DF90CF90BF90AF909F908F9004
:1014300008956BE585E893E00E94D7030E947B0343
:10144000AB01BC012AE085E893E00E94720982E6C4
:1014500091E00C94CB046115710511F00C945309C3
:1014600090E080E00895EF92FF920F931F93CF9347
:10147000DF9300D000D000D0CDB7DEB78C017B0168
:10148000DC0118968D919C91892BB1F10E94190A6B
:1014900085EF91E00E94CB04F8016085718585E8B5
:1014A00093E00E942B0A6AE385E893E00E94D70349
:1014B000C7010E94BE09D8018D919C911197189681
:1014C0006D917C91DC01ED91FC910088F189E02D1A
:1014D000A701099521E0019709F020E0822F2696C7
:1014E0000FB6F894DEBF0FBECDBFDF91CF911F9135
:1014F0000F91FF90EF9008950E94190A84E092E006
:101500000E94CB04F801648185E893E00E94D4092D
:101510006EE285E893E00E94D703D80115966C919E
:1015200085E893E00E94D4096EE285E893E00E948A
:10153000D703F801668185E893E00E94D4096EE242
:1015400085E893E00E94D703D80117966C9185E84F
:1015500093E00E94D4096DEC71E085E893E00E946D
:101560005309F80180819181DC01ED91FC910684A1
:10157000F785E02D2BEC31E03A832983D8011496CE
:101580004D915D916D917C9117974B835C836D8339
:101590007E83A701BE016F5F7F4F9BCFFB018081E0
:1015A00091810E94E02E61E0892B09F460E0609354
:1015B000570285E00C94A402FB01808191810E9476
:1015C000E02E61E0892B09F460E06093560284E02C
:1015D0000C94A402AF92BF92CF92DF92EF92FF924F
:1015E0000F931F93CF93DF9300D000D0CDB7DEB71A
:1015F0008C016B017A01809184038333E9F45B01F0
:101600006801C40ED51EC016D106A9F10E94E006DD
:101610008FE00E94EB06812F0E94EB06802F0E9434
:10162000EB060F5F1F4F80E00E94EB06F5018193F0
:101630005F010E94D606E7CF843369F50E94E00679
:1016400019830A838F2D8F778B83EC8264E070E09F
:10165000CE0101960E94BC06A70170E060E0C601C1
:101660000E94B934E114F10421F0B701C6010E94CF
:10167000BC060E94D606C7010F900F900F900F90E6
:10168000DF91CF911F910F91FF90EF90DF90CF905E
:10169000BF90AF9008950E94E0060F3F110509F03A
:1016A00030F419820A831B8263E070E0D1CF17FD0A
:1016B0000BC019820A8333E0169507953A95E1F736
:1016C000007E08600B83F0CFC80126E096958795D1
:1016D0002A95E1F7807E19830A830115104C18F4CE
:1016E00080618B83E1CF8861FCCFCF93DF931F9222
:1016F000CDB7DEB72091F50230E0322F2227260F3A
:10170000371F90E0982F882741E050E0BE016F5FBF
:101710007F4F820F931F0E94EA0A89810F90DF9109
:10172000CF910895CF93C82F462F61E070E00E94BB
:10173000FE0761E070E08C2F0E94750B8111F9CFDC
:10174000CF910895CF93C82F80E591E00E94620267
:1017500068E070E08C2FCF910C94920BCF93C82F40
:1017600080E591E00E94620260E170E08C2FCF91F1
:101770000C94920BCF93DF93EC01888D843020F48E
:101780000E94AE0B84E0888FDF91CF910895CF93B4
:10179000C82F80E591E00E94620263E070E08C2F28
:1017A000CF910C94750BCF93DF93EC018C85843033
:1017B000D0F40E94C70B843189F0882379F08831F6
:1017C00069F021E08C3159F4E881F9810084F185D8
:1017D000E02DCE01099521E0892B09F420E0822F2C
:1017E000DF91CF91089580E0FBCFCF92DF92EF920F
:1017F000FF92CF93DF93EC018C85843068F40E94D4
:10180000A20B0E947B036B017C018C850E94C70B9D
:10181000811109C084E08C87DF91CF91FF90EF9018
:10182000DF90CF90089561E070E080E090E00E944A
:1018300048030E947B03AB01BC014C195D096E0992
:101840007F098D859E85B0E0A0E0481759076A079B
:101850007B07D8F28C850E94AE0BDCCFCF93FC01C6
:10186000C08D80E591E00E94620260E270E08C2F02
:101870000E94920B62E070E08C2F0E94750B84FD39
:1018800016C062E070E08C2F0E94750B83FF0AC0C7
:1018900048E162E070E08C2F0E94FE0780E090E05B
:1018A000CF91089580E591E00E946202E3CF40E18C
:1018B00062E070E08C2F0E94FE0781E0F0CFCF93B2
:1018C000DF931F92CDB7DEB741E050E0BE016F5FFE
:1018D0007F4F90E080E00E94EA0A89810F90DF91BB
:1018E000CF910895CF93DF93C4E1D0E00E945F0CC5
:1018F000882361F061E070E080E090E00E9448039E
:101900002197A1F780E0DF91CF91089581E0FBCF8F
:101910001F93CF93DF931F92CDB7DEB7182F80E5CB
:1019200091E00E946202812F0E94B50727E0129F7A
:10193000F0011124E859FC4F22813381377041E0D6
:1019400050E0BE016F5F7F4F820F931F0E94EA0A33
:1019500089810F90DF91CF911F910895FC01808DB7
:10196000843040F4218D328D232B21F00E94880C8D
:1019700090E008958FEF9FEF0895CF93DF93FC01E0
:101980002485243028F08FEF9FEFDF91CF910895C9
:10199000EC010190F081E02D0084F185E02D0995A6
:1019A000892B89F38C850E94880C90E0EECFDA01B8
:1019B000E091F502F0E0FE2FEE27E60FF71F90E032
:1019C000982F8827A901BD018E0F9F1F0C94EA0A4A
:1019D0008F929F92AF92BF92CF92DF92EF92FF923F
:1019E0001F93CF93DF93CDB7DEB72C970FB6F89444
:1019F000DEBF0FBECDBF2091840314E0222339F156
:101A00006B017C0180E591E00E9462025E0127E0AB
:101A1000A20EB11C450110E063E070E0812F0E942E
:101A2000750BF40181934F01882349F11F5F143036
:101A300099F710E0F50181915F018D31D9F088317E
:101A4000C9F08A518230B0F01F5F143099F7812FAE
:101A50002C960FB6F894DEBF0FBECDBFDF91CF91AD
:101A60001F91FF90EF90DF90CF90BF90AF909F902D
:101A70008F90089560E170E0812F0E94920BA12E5B
:101A8000B12C83EE93E00197F1F742E870E060E05B
:101A9000812F0E94FE074FEF62E070E0812F0E94CD
:101AA000FE07B601C114D10491F4809121019091F7
:101AB000220101968115F0EC9F0708F45CC0909319
:101AC0002201809321016091210170912201812FD7
:101AD0000E94E90786E0E5E3F1E0DE01119601905E
:101AE0000D928A95E1F7F70183818F778C8384814A
:101AF0008D8385818E83A7014E5F5F4F24E030E0A8
:101B00006CE070E0812F0E94C307B601812F0E9414
:101B1000D40726E030E0AE014F5F5F4F66E070E033
:101B2000812F0E94C30761E070E0812F0E94920B19
:101B300027E02A9DC0012B9D900D11249C0128595E
:101B40003C4F7901F9011182108222E030E0AE01B0
:101B5000455F5F4F68E270E0812F0E94D70C8B8554
:101B60009C85982789279827F7019383828316827B
:101B7000158214826CCF80E090ECA1CFCF92DF92DF
:101B8000EF92FF920F931F93CF93DF9300D000D07B
:101B900000D0CDB7DEB78C016B017A01FC01808DDE
:101BA000843010F40E94AE0B8BEC91E09A83898311
:101BB000F60182819381A481B5818B839C83AD835F
:101BC000BE83B701CE0101960E94E80CF801808F18
:101BD0008430A0F4F586E486128E118E81E026967C
:101BE0000FB6F894DEBF0FBECDBFDF91CF911F912E
:101BF0000F91FF90EF90DF90CF90089580E0EFCFAE
:101C0000AF92BF92CF92DF92EF92FF920F931F930A
:101C1000CF93DF9300D000D000D0CDB7DEB7082F30
:101C20006B0180E591E00E9462029E012F5F3F4FB1
:101C30007901590110E063E070E0812F0E94750B7B
:101C4000F50181935F01882341F11F5F143099F7FB
:101C500010E0F70181917F018D31D1F08831C1F021
:101C60008A518230A8F01F5F143099F7812F269691
:101C70000FB6F894DEBF0FBECDBFDF91CF911F919D
:101C80000F91FF90EF90DF90CF90BF90AF900895AD
:101C900060E170E0812F0E94920BE12EF12C83EE27
:101CA00093E00197F1F7402F70E060E0812F0E94F0
:101CB000FE074FEF62E070E0812F0E94FE07B60141
:101CC000CD2889F4809121019091220101968115FE
:101CD000F0EC9F0798F1909322018093210160918D
:101CE000210170912201812F0E94E90761E070E0DB
:101CF000812F0E94920B27E02E9DC0012F9D900DF9
:101D000011249C0128593C4F7901F901118210825C
:101D100022E030E0AE014B5F5F4F68E270E0812F60
:101D20000E94D70C8D819E81982789279827F701DB
:101D30009383828316821582148298CF80E090EC80
:101D4000CACFCF92DF92EF92FF921F93CF93DF9390
:101D5000EC017B016A018C85843048F40E94C70B3A
:101D6000882319F08C850E94A20B84E08C87F701F0
:101D700082819381A481B5810097A105B10551F4B9
:101D800090E080E0DF91CF911F91FF90EF90DF9086
:101D9000CF9008958F3F9F4FAF4FBF4F89F38091F2
:101DA0008403811103C084E08C87EACF70E060E097
:101DB00081E20E94000E182F8C87843008F780E59E
:101DC00091E00E946202A7014E5F5F4F24E030E085
:101DD0006CE070E0812F0E94C307B601812F0E9442
:101DE000D40764E070E0812F0E94920B0E947B0375
:101DF0006B017C018C850E94C70B873109F18C3106
:101E0000F9F0882309F4BCCF0E947B03AB01BC012D
:101E10004C195D096E097F098D859E85B0E0A0E0B3
:101E200084179507A607B70738F061E070E080E0F7
:101E300090E00E944803DECF8C850E94AE0BB3CFAA
:101E400081E090E09FCF0F931F93CF93DF93EC013E
:101E50008B01888D843010F40E94AE0B8091840336
:101E6000811107C094E0988FDF91CF911F910F915E
:101E70000895B80182E00E94000E888F843030F40B
:101E80001D870C871A8E198E81E0EECF80E0ECCF93
:101E90007F928F929F92AF92BF92CF92DF92EF92FA
:101EA000FF920F931F93CF93DF9300D0CDB7DEB790
:101EB000782E8B014A01590122E030E0AE014F5FDC
:101EC0005F4F64E270E00E94D70CE980FA80FE2444
:101ED000EF24FE24E00EF11E970137704091840339
:101EE000072D10E0433309F042C0085F1F4F102F49
:101EF0000027110F110F110FC901800F911F4733D8
:101F0000C9F1A9014A0D5B1D4130584098F160E0CC
:101F100078E06B01C21AD30AA601B4010E94F2064E
:101F2000A5014C195D09B4016C0D7D1DC8010E940D
:101F3000F206EA0CFB1CF982EA8222E030E0AE01F4
:101F40004F5F5F4F64E270E0872D0E94C3070F90E0
:101F50000F90DF91CF911F910F91FF90EF90DF9045
:101F6000CF90BF90AF909F908F907F900895005F2B
:101F70001F4FBDCFA501B401DACFEF92FF921F939F
:101F8000CF93DF9300D0CDB7DEB7182F22E030E03B
:101F9000AE014F5F5F4F60E270E00E94D70CE980B6
:101FA000FA80FE24EF24FE2422E030E0AE014F5FF1
:101FB0005F4F60E270E0812F0E94D70C89819A8187
:101FC000982789279827E816F90689F487E0189F4B
:101FD000F0011124E859FC4FF582E482C7010F900B
:101FE0000F90DF91CF911F91FF90EF9008957C01AA
:101FF000DBCF1F93CF93DF93182F80E591E00E94F2
:102000006202812F0E94BD0FEC0163E070E0812F1E
:102010000E94750B873121F08C3111F0D0E0C0E0C7
:10202000CE01DF91CF911F910895CF93DF93EC0103
:102030008C85843060F40E94C70B873111F08C319D
:1020400031F48C850E94F90F8115984088F3DF9157
:10205000CF910895FC018485843010F40C94F90F1D
:1020600090E080E008959F92AF92BF92CF92DF926E
:10207000EF92FF920F931F93CF93DF938C015B013D
:10208000942EE52EFC01C688D788F08C80E591E07F
:102090000E9462028F2D0E94BD0FC92DDE2D8C176C
:1020A0009D0708F4EC019E01A501B6018F2D0E9449
:1020B000480FF801868997898C0F9D1F978B868B17
:1020C000CE01DF91CF911F910F91FF90EF90DF90A4
:1020D000CF90BF90AF909F9008958F929F92AF92B4
:1020E000BF92CF92DF92EF92FF920F931F93CF9305
:1020F0006C015B018A01FC01C485C430F0F57A01F2
:102100004130584018F0E12C88E0F82E80E591E04D
:102110000E9462028C2F0E94BD0F4C0163E070E0B0
:102120008C2F0E94750B873111F08C3149F58E147C
:102130009F0460F380E591E00E9462029701A5018F
:1021400070E060E08C2F0E94480F60E270E08C2FFE
:102150000E94920B62E070E08C2F0E94750B84FD50
:1021600017C063E070E08C2F0E94750B81110BC0CB
:1021700081E090E0F6019383828310E000E010C0DC
:10218000F12CE12CD7CF80E591E00E946202E2CFF2
:1021900040E162E070E08C2F0E94FE07EF2841F3DF
:1021A000C801CF911F910F91FF90EF90DF90CF90DA
:1021B000BF90AF909F908F900895FF920F931F93C1
:1021C000CF93DF9300D0CDB7DEB7F82E22E030E01A
:1021D000AE014F5F5F4F66E270E00E94D70C09814D
:1021E0001A8110270127102722E030E0AE014F5F4F
:1021F0005F4F66E270E08F2D0E94D70C89819A8133
:102200009827892798270817190749F4C8010F90BC
:102210000F90DF91CF911F910F91FF9008958C0146
:10222000E3CF1F93CF93DF93182F87E0189FE00130
:102230001124C859DC4F88819981009761F480E5A9
:1022400091E00E946202812F0E94DD102E81821B8C
:10225000910999838883DF91CF911F910895FC01A3
:102260008485843010F40C94111190E080E008957E
:102270004F925F927F928F929F92AF92BF92CF9236
:10228000DF92EF92FF920F931F93CF93DF9300D0D3
:10229000CDB7DEB7782E6B014A01A82EB12C27E00E
:1022A000829FC0011124FC01E859FC4F7F0100818D
:1022B000118180E591E00E9462020815190554F42D
:1022C000872D0E94DD10F70126818C01021B110968
:1022D000118300830115110529F563E070E0872D56
:1022E0000E94750B843159F0882349F001E010E019
:1022F0008C3111F410E000E0119501951109C8012D
:102300000F900F90DF91CF911F910F91FF90EF9061
:10231000DF90CF90BF90AF909F908F907F905F9015
:102320004F900895801691060CF4840187E08A9DF1
:10233000F0018B9DF00D1124E859FC4FE280F380F1
:10234000C114D10451F12701F7E05F22872D0E94CB
:10235000B507840D951D20918403273309F453C0DC
:102360009801240D351D2130384008F44CC020E080
:1023700038E0490184189508A401B6010E94EA0AD0
:102380002601480C591C6801C818D908872D0E94DD
:10239000B507A601B2010E94EA0AE00EF11E87E02D
:1023A0008A9DF0018B9DF00D1124E859FC4FF382BA
:1023B000E28220813181201B310B31832083868191
:1023C000800F912F911D8A3F910510F4232BF1F47A
:1023D00087E08A9DF0018B9DF00D1124E859FC4F98
:1023E0001682F982EA8222E030E0AE014F5F5F4F51
:1023F00068E270E0872D0E94C30760E470E0872DDB
:102400000E94920B7CCFA801B601C5CF868377CFFF
:10241000CF93DF93FC01218D328D2115310529F4F5
:102420008FEF9FEFDF91CF910895EC01808D4217E0
:10243000530708F0A9010E9438111816190684F7ED
:10244000298D3A8D281B390B3A8F298FEBCF0F93AB
:102450001F93CF93DF931F92CDB7DEB7FC01218D81
:10246000328D232B41F48FEF9FEF0F90DF91CF91AF
:102470001F910F9108958C0141E050E0BE016F5F04
:102480007F4FFC01808D0E943811181619065CF7E9
:10249000F801818D928D0197928F818F898190E0D3
:1024A000E4CFCF93DF931F92CDB7DEB741E050E08A
:1024B000BE016F5F7F4FFC0184850E9438111816A2
:1024C000190634F4898190E00F90DF91CF9108953F
:1024D0008FEF9FEFF9CFFC018485843010F40C94CA
:1024E000381190E080E008950F931F93CF93DF930E
:1024F00000D0CDB7DEB7FC0124852430E0F48C0198
:1025000080E591E00E94620222E030E0AE014F5F80
:102510005F4F60E170E0F80184850E94D70C8981EB
:102520009A819827892798270F900F90DF91CF9154
:102530001F910F91089590E080E0F6CF0F931F93C5
:10254000CF93DF9300D0CDB7DEB7FC0124852430D4
:10255000E0F48C0180E591E00E94620222E030E02C
:10256000AE014F5F5F4F64E070E0F80184850E9428
:10257000D70C89819A819827892798270F900F90E7
:10258000DF91CF911F910F91089590E080E0F6CFF9
:10259000DC018BEC91E08D939D9384E0FB01019035
:1025A0000D928A95E1F70895EF92FF920F931F9392
:1025B000CF93DF9300D000D0CDB7DEB78C017B0185
:1025C000FB0184858430A8F08BEC91E0F8019183C5
:1025D00080831282138214821582C8010F900F909B
:1025E0000F900F90DF91CF911F910F91FF90EF907F
:1025F000089580E591E00E94620224E030E0AE019F
:102600004F5F5F4F6CE070E0F70184850E94D70C4C
:10261000BE016F5F7F4FC8010E94C812DECF0F93CB
:102620001F93CF93DF93CDB7DEB728970FB6F894FB
:10263000DEBF0FBECDBF8C01D80159964D915C9184
:102640005A974115510551F0ED91FC91048CF58D8F
:10265000E02D70E060E0C8010995EECFF801808DB3
:102660000E941111892BB1F148E050E0BE016F5F6B
:102670007F4FD80158968C910E9438111816190670
:10268000F4F4D801509684E0FE01319601900D9249
:102690008A95E1F78D8190E0982F88272E81820F0F
:1026A000911DF801958B848B8F81282F30E0322F7C
:1026B00022278885820F932F911D928F818F2896D4
:1026C0000FB6F894DEBF0FBECDBFDF91CF911F9143
:1026D0000F91089590E080E0F2CF4F925F926F9259
:1026E0007F928F929F92AF92BF92CF92DF92EF92A2
:1026F000FF920F931F93CF93DF93CDB7DEB763970E
:102700000FB6F894DEBF0FBECDBF7C016B013A015E
:10271000FB0120E090E080E06AE03191332309F48E
:1027200061C040ED430F4A3008F04DC0689FA001E2
:10273000699F500D1124CA01C097830F911D37FD69
:102740009A958F3F910549F340F3F70142815381F8
:102750006481758180915A0490915B04A0915C041E
:10276000B0915D04481759076A077B0709F40DC249
:102770008701085F1F4F0E947B036F7077277C5F84
:10278000C8010E94230F813009F004C28BEC91E054
:102790009A838983F70182819381A481B5818B8398
:1027A0009C83AD83BE8345E350E0BE016F5F7F4FE6
:1027B000C8010E945408892BA9F5D12CC12CC8014D
:1027C0000E94BA0B17C03E3209F0BFCF233009F484
:1027D000BCCFD301A20FB11D12968C932F5F90E056
:1027E00080E09BCF233009F0B0CFF3018583CC2468
:1027F000C394D12CC60163960FB6F894DEBF0FBE0A
:10280000CDBFDF91CF911F910F91FF90EF90DF909F
:10281000CF90BF90AF909F908F907F906F905F9080
:102820004F9008950E947B03F7017783668342E00F
:1028300050E0B7016A5F7F4FC8010E94331081E00A
:1028400090E09A83898342E050E0BE016F5F7F4F42
:10285000C8010E94331080E091E09A83898342E0AE
:1028600050E0BE016F5F7F4FC8010E9433101A8293
:10287000198242E050E0BE016F5F7F4FC8010E94A5
:10288000331042E050E0BE016F5F7F4FC8010E94ED
:10289000331042E050E0BE016F5F7F4FC8010E94DD
:1028A00033105601F6018081882301F16501F6019C
:1028B00081912F01882311F08E32B1F446018A18DC
:1028C0009B081814190474F48D8641E050E0BE0191
:1028D000635F7F4FC8010E943310A401B501C80196
:1028E0000E9433105201DECF6201E1CF1D8641E02C
:1028F00050E0BE01635F7F4FC8010E943310C12CBE
:10290000DD24D394DA82C98242E050E0BE016F5FD9
:102910007F4FC8010E943310DA82C98242E050E042
:10292000BE016F5F7F4FC8010E943310C8010E9433
:102930002E0C892B09F441CFF3E0AF2EB12C2301EB
:1029400022E0420E511CD4C0F701428153816481C0
:102950007581808D918DA28DB38D481759076A07B7
:102960007B0709F008C1848D958DC59709F003C1D7
:1029700081A192A15DEFC52EDD24DA940C970CF4B1
:10298000ADC04CE050E0BE016F5F7F4FC8010E94B8
:1029900008128B819C819827892798279A8B898B8D
:1029A000F7014681578129813A814217530709F07F
:1029B000E7C097FFE5C08F7092703BEFC32EDD2418
:1029C000DA94892B09F08AC06F8078847624672492
:1029D00076242AEFC22EDD24DA946114710409F4FE
:1029E0007DC0D12CC12C8D819E8198278927982765
:1029F000C816D906F8F441E050E0BE01635F7F4F8E
:102A0000C8010E9408124D85442331F050E070E067
:102A100060E0C8010E9408128D858111ECCF44E06E
:102A200050E070E060E0C8010E940812FFEFCF1A8A
:102A3000DF0AD9CF912C812C41E050E0BE016D5EC0
:102A40007F4FC8010E9408124B89842F807C09F0B7
:102A50006CC0442331F050E070E060E0C8010E9497
:102A600008128B898111E8CF42E050E0BE01615F1E
:102A70007F4FC8010E94081242E050E0BE01635F30
:102A80007F4FC8010E94081244E050E070E060E00F
:102A9000C8010E94081242E050E0BE016F5E7F4F05
:102AA000C8010E9408128F85988949895A89811521
:102AB000914009F043C0CD84DE84DC24CD24DC24A5
:102AC00081E0C816D104D1F54115544009F04AC03F
:102AD00044E050E0B201C8010E94081221E0A21AAD
:102AE000B10809F46CCEFFEFCF16DF0609F067CE10
:102AF0000E947B033B014C01C8010E940F13181672
:102B000019060CF421CF0E947B0366197709880906
:102B10009909693873418105910548F562E370E0D0
:102B200080E090E00E944803E7CF41E050E070E091
:102B300060E0C8010E9408121B8A93CF54274527E2
:102B4000542770E060E0C8010E940812FFEF8F1A5E
:102B50009F0A6814790409F06FCF96EFC92EDD241F
:102B6000DA94BCCFE7EFCE2EDD24DA94B7CFCC24B5
:102B7000CA94DC2CB3CF6EEFC62EDD24DA94AECF30
:102B80004CEFC42EDD24DA94A9CF8EEFC82EDD24BD
:102B9000DA9430CED12CC12C2DCECF92DF92EF9291
:102BA000FF920F931F93CF93DF93CDB7DEB7AF970D
:102BB0000FB6F894DEBF0FBECDBF7C016A010BECEF
:102BC00011E01A8309831C861B8688EE93E0A0E03F
:102BD000B0E08D879E87AF87B88B8FE391E09A87AF
:102BE0008987188F0F8B198E1A8E1B8E1C8E84E08E
:102BF00089A31BA70AA71CA61DA61EA61FA6809117
:102C00004E0490914F04A0915004B09151048EA3B2
:102C10009FA3A8A7B9A78B839C83AD83BE83188687
:102C20001F82AE01465D5F4FCE0101960E946D137B
:102C300081309105B1F4D701ED91FC910488F589BB
:102C4000E02D1DA30CA38CA59DA5AEA5BFA58EA3AD
:102C50009FA3A8A7B9A7A601BE016C5D7F4FC701BE
:102C60000995AF960FB6F894DEBF0FBECDBFDF91CA
:102C7000CF911F910F91FF90EF90DF90CF9008952B
:102C8000CF92DF92EF92FF920F931F93CF93DF9338
:102C9000CDB7DEB7AF970FB6F894DEBF0FBECDBF8E
:102CA0008C016B017A018BEC91E09A8389831B8202
:102CB0001C821D821E821C861B8648EE53E060E04B
:102CC00070E04D875E876F87788B2FE331E03A871E
:102CD0002987988F8F8B198E1A8E1B8E1C8E24E05D
:102CE00029A39BA78AA71CA61DA61EA61FA6D801BE
:102CF0001C968C91843060F40E94C70B882321F0CD
:102D0000F80184850E94A20B84E0D8011C968C9364
:102D100080914E0490914F04A0915004B0915104C1
:102D20008EA39FA3A8A7B9A78B839C83AD83BE83E3
:102D300018861F82AE01465D5F4FB601CE01019637
:102D40000E946D130097C1F0D801ED91FC910684AB
:102D5000F785E02D8BEC91E09DA38CA38CA59DA520
:102D6000AEA5BFA58EA39FA3A8A7B9A7A701BE0123
:102D70006C5D7F4FC8010995AF960FB6F894DEBF22
:102D80000FBECDBFDF91CF911F910F91FF90EF90BC
:102D9000DF90CF9008950F931F93CF93DF93EC01B3
:102DA000FB0101900020E9F78F01061B170B8A81B8
:102DB0009B81A801480F591F2C813D81241735079D
:102DC00068F028813981A801820F931F0E94B034D6
:102DD0004A815B81400F511F5B834A83DF91CF9112
:102DE0001F910F91089585ED8093BC008091C902D9
:102DF0009091CA02A091CB02B091CC020796A11D7E
:102E0000B11D23E0B695A795979587952A95D1F79B
:102E10002091BC0024FD03C01092C7020895409188
:102E2000C9025091CA026091CB027091CC02452B2D
:102E3000462B472B69F30097A105B10541F02AE223
:102E40002A95F1F700C00197A109B109E1CF80915E
:102E5000C8020C9406053F924F925F926F927F9248
:102E60008F929F92AF92BF92CF92DF92EF92FF929A
:102E70000F931F93CF93DF93CDB7DEB7EA970FB6CB
:102E8000F894DEBF0FBECDBF7C012A013B01690172
:102E90000E947B034B015C0187010D5B1F4FC80142
:102EA0000E940F13181619069CF00E947B036819E4
:102EB00079098A099B09461657066806790608F4B7
:102EC00066C162E370E080E090E00E944803E7CFD3
:102ED00042E250E0BE016F5F7F4FC8010E940812BE
:102EE00089818230D1F0312C832DEA960FB6F89487
:102EF000DEBF0FBECDBFDF91CF911F910F91FF902D
:102F0000EF90DF90CF90BF90AF909F908F907F9089
:102F10006F905F904F903F900895F8018489958954
:102F20008334910501F76D817E818F8198850E94A0
:102F30002B344B015C01F60180829182A282B38224
:102F400046E050E0B701685F7F4FCE014D960E948A
:102F5000A334892B41F6F70180819181A281B3814D
:102F600088169906AA06BB0608F4BDCF8481958110
:102F7000A681B78188159905AA05BB0508F4B3CFCA
:102F800089899A89AB89BC8986879787A08BB18B01
:102F90004EEC50E070E060E0C8010E940812312C55
:102FA000C701829698AB8FA7F701B696FAABE9AB4B
:102FB00008969CAB8BAB67019AE1C90ED11CBD96FC
:102FC000FEABEDABC701429698AF8FABFD97FAAF62
:102FD000E9AF4701FEE18F0E911CF801818D928DC2
:102FE000181619060CF080CFC8010E9427128333EF
:102FF000910509F4B2C014F58130910509F464C05B
:1030000044F4892B51F3C8010E942712AC015527C3
:1030100075C08330910509F462C00697A1F7C80115
:103020000E942712B82E44E050E0B401C8010E946B
:103030000812EB2DE450FF0BAF0160C08A339105FD
:1030400009F45FC084F585339105B1F1C697D9F6CF
:10305000C8010E9427125C01B601CE0189960E9428
:10306000C8128BA59CA5ADA5BEA5892B8A2B8B2B41
:10307000B1F0EDA9FEA94080518062807380B60155
:10308000CE0183960E94C8128DA19EA1AFA1B8A5C2
:10309000A501481659066A067B0609F0B8CF44E038
:1030A00050E0B60118C08B33910509F440C08F3F42
:1030B000910509F492CFA7CFC8010E942712C80139
:1030C0000E942712382E89CFC8010E94271244E09F
:1030D00050E06FA978ADC8010E9408127ECFC801E8
:1030E0000E942712B82E44E050E069AD7AADC801C5
:1030F0000E9408128B2D8450990BAC0170E060E0A7
:10310000EACFC8010E94271244E050E069A97AA9D9
:10311000C8010E940812F70166A177A180A591A5B8
:103120000E942B3466A377A380A791A756CFC8012E
:103130000E94271244E050E06BA97CA9C8010E94BC
:103140000812F70162A573A584A595A50E942B34EA
:1031500062A773A784A795A740CFC8010E94271232
:1031600044E050E06FA578A9C8010E940812F70159
:1031700062A173A184A195A10E942B3462A373A3C1
:1031800084A395A366A777A780AB91AB26CF332402
:103190003A94AACE7F928F929F92AF92BF92CF9293
:1031A000DF92EF92FF920F931F93CF93DF93CDB7F0
:1031B000DEB7A6970FB6F894DEBF0FBECDBF8C0169
:1031C000762E942E852E20E2A22ECE0101967C0131
:1031D000DC01EA2D1D92EA95E9F76801F3E4CF0ED0
:1031E000D11C8BEC91E09AA389A38FEF8BA38CA3C6
:1031F0008DA38EA343E450E0BE016F5D7F4FC601F7
:103200000E945408019609F4BFC081E089838A8333
:1032100086E0B82EBB821C82D80114966D917D91F8
:103220008D919C9117970E942B346D837E838F83A1
:10323000988789869A8680E890E09C878B874CE106
:1032400050E0B701C6010E943310FE0137968AE1B3
:10325000DF011D928A95E9F74801B8E08B0E911CB9
:10326000F401D70101900D92BA94E1F740E150E0EA
:10327000B701C6010E943310F7011192AA94E9F731
:1032800096E0A92EB12C40E250E0B701C6010E94A1
:103290003310F1E0AF1AB108B1F783E6898392E801
:1032A0009A8393E59B838C8385E38D8381E08E8372
:1032B0007F829DE3988797E099878A8786E0F4016B
:1032C000DE011B9601900D928A95E1F78CE0898BC7
:1032D0008A8B60ED71E0CE0143960E94C934D8011B
:1032E0001B966C91CE0149960E946502F801648597
:1032F000CE014B960E946502D8011D966C91CE01BD
:103300004D960E9465024EE150E0B701C6010E9451
:103310003310B3E07B121EC082E3898384E08A838A
:10332000F80196859B8397859C8390899D839189DD
:103330009E8396E39F838887828D8987838D8A8782
:10334000848D8B87858D8C874CE050E0B701C6015A
:103350000E94331087E3898386E08A8391E09B8310
:1033600093E09C838D838FE08E838AE38F838BE34E
:1033700088878FEF898749E050E0B701C6010E9436
:103380003310C6010E942E0CA6960FB6F894DEBF2D
:103390000FBECDBFDF91CF911F910F91FF90EF90A6
:1033A000DF90CF90BF90AF909F908F907F900895C7
:1033B0000F931F93CF93DF93CDB7DEB728970FB648
:1033C000F894DEBF0FBECDBF8C01CB014AE0BE0139
:1033D0006F5F7F4F0E942E2FBE016F5F7F4FC8012E
:1033E0000E94CB1628960FB6F894DEBF0FBECDBF55
:1033F000DF91CF911F910F9108953F924F925F926D
:103400006F927F928F929F92AF92BF92CF92DF92F4
:10341000EF92FF920F931F93CF93DF93CDB7DEB759
:10342000A1970FB6F894DEBF0FBECDBF5C010DB7FC
:103430001EB719A308A360E070E0CB010E94480307
:10344000D50191968D919C919297912C029709F4B8
:1034500017C490968C9190978F5F90968C939097CD
:103460005E962D913C91232B19F09924939401C4DD
:103470008330D8F7F501828593850E94AD088823B3
:1034800009F4D7C38E010F5F1F4F3801D5011A967B
:10349000ED91FC9180819181DC01ED91FC910084A2
:1034A000F185E02D0995181619060CF0C2C3D50157
:1034B0001A96ED91FC9145E050E0BE01695E7F4FA8
:1034C000808191810E948703009701F3059709F09D
:1034D00074C0888D998D982789279827998F888F10
:1034E000EA8CFB8CFE24EF24FE24FB8EEA8E892BD3
:1034F00009F463C08F89811174C00E947B03F501B8
:10350000608B718B828B938B21A132A18A8D9B8DD5
:10351000232B09F062C0288D398D2130310509F047
:103520005CC089309105E1F1883C910519F0049760
:1035300009F048C00E94190A8BE093E00E94CB0476
:10354000D50150964D915D916D917C915397589610
:103550008D919D910D90BC91A02D481B590B6A0B2C
:103560007B0B2AE085E893E00E94720986E093E0F5
:103570000E946209F50180899189A289B389808FAF
:10358000918FA28FB38F01E010E012A301A3C501B8
:103590000E94E92460E070E0CB010E94480376CFEE
:1035A0000E94190A87E394E00E94620983E090E098
:1035B000D50192969C938E939197D5011A968D91F1
:1035C0009C9154C30E94190A80E294E00E94CB04AB
:1035D0008A8D9B8D0E94BE09F0CF059709F056CFCA
:1035E000ECCFB1E0EB16FB0690F00E94190A8FE0D9
:1035F00094E00E94CB048A8D9B8D0E94BE09F50148
:1036000012A211A2828593850E94C0083FCF8DB679
:103610009EB6C70101960DB71EB7081B190B0FB652
:10362000F8941EBF0FBE0DBF0F5F1F4FD5011A9636
:10363000ED91FC91A701B801808191810E948703DF
:103640008E159F0509F064C0EA8DFB8DE00FF11F18
:1036500010820E947B03F501608B718B828B938BB0
:103660008F89843109F4C7C0E8F48F3009F4C3C0EE
:10367000813109F4B2C2863009F0D3C2488D598D28
:10368000D12CC12CF12CE12C08EC10E030E020E032
:1036900060E0C5010E94491F0FB6F8949EBE0FBEA0
:1036A0008DBEF4CE8932F1F0873309F4ABC28D318F
:1036B00009F0B7C281A192A1892B01F70E94190AD2
:1036C00089E094E00E94620901E010E0F50112A394
:1036D00001A3C5010E94E92460E070E0CB010E94D3
:1036E0004803CCCF86859785892B39F480E490E018
:1036F0000E94172DF50197878687EA8CFB8CE00ED8
:10370000F11E1A830983FC82EB820E151F0530F02F
:103710000FB6F8949EBE0FBE8DBE4FCF40E450E072
:10372000B801D5011E968D919C910E94D034D5018F
:103730001E96ED91FC9117AEC3010E94C724FC01B7
:103740008081918100E510E08E159F0570F48981DC
:103750009A81009709F44BC02B813C818217930713
:1037600008F045C00E94FE2E8B010E94190A89EFC5
:1037700093E00E94CB04D5011E966D917C9185E863
:1037800093E00E942B0A6AE385E893E00E94D70346
:10379000C8010E94BE09F501828593850E94C00878
:1037A000D5011A96ED91FC911B971E968D919C91D7
:1037B0001F97918780871387028792961C921E928B
:1037C00091970E947B03DC01CB0188589341A109AA
:1037D000B109F501848B958BA68BB78B808B918B70
:1037E000A28BB38B808F918FA28FB38F55CF60E068
:1037F00070E0CB01B9CF888D998DD5015F969C93F0
:103800008E935E974A8C5B8C6801C40CD51C1D8F0F
:103810000C8FDF8ECE8E0C151D0508F05EC1F801F1
:10382000E080F180CE014C960E94C724DC018D918E
:103830009C918C159D0508F050C18C8D9D8DFC01CF
:103840002081213459F401960E94E02E4EE0342E5E
:10385000380E069744F033243A9405C0CE014C96B6
:103860000E94DA24382EF6E7EF16F2E7FF0609F495
:1038700057C140F531E6E31632E7F30609F4EFC02D
:1038800044E6E41642E7F40609F483C050E7E5167F
:103890005DE6F50609F08AC18C8D9D8D8C159D0520
:1038A00008F01BC1FC012081213409F03FC00196C2
:1038B0000E94E02E3EE0F32EF80E0697E4F1FF247E
:1038C000FA9439C084E6E81687E7F80609F4ACC034
:1038D00096E7E91697E7F90609F43AC1A1E6EA1670
:1038E000A7E7FA0609F062C1CE014C960E94C724F0
:1038F000DC018D919C918C159D0508F0EEC061E076
:10390000832D0E94D202CE014C960E94DA248C01B3
:1039100061E0832D0E94D2020115110509F49AC0BD
:103920000F3F110509F0B4C061E095C0CE014C967F
:103930000E94DA24F82ECE014C960E94C7240C8DEA
:103940001D8D67ED71E0C8010E94C03460E0892BD5
:1039500079F06AED71E0C8010E94C034892B39F01A
:103960006EED71E0C8010E94C034892B49F461E01A
:103970008F2D0E94D202CE014C960E94C7248CCF7C
:1039800062EE71E0C8010E94C034892BA1F762E0A9
:10399000EFCF7A8A698A1C8A1B8A00E110E01E8BAD
:1039A0000D8B65EE71E0CE0141960E94CB16032D82
:1039B00010E0B801CE0141960E94D819F801E55BEC
:1039C000FC4F8491F801E95CFC4FF4900D5D1C4FB5
:1039D000F801049160E070E0002389F081110E94F9
:1039E0007B02E02FF0E0EE0FFF1FE75EFC4FA5919A
:1039F000B491EC91FE2261E070E009F460E0CE0148
:103A000041960E94D8190B891C89015011092989F6
:103A10003A89D12CC12CF12CE12C50E040E064E13A
:103A2000C5010E94491F59C0CE014C960E94C7246F
:103A3000DC018D919C918C159D0508F04EC061E0D4
:103A4000832D0E94D202CE014C960E94DA2461E0BE
:103A5000892B09F460E0832D0E94A4023EC07A8A7B
:103A6000698A1C8A1B8AE0E1F0E0FE8BED8B68EE30
:103A700071E0CE0141960E94CB16632D70E0CE011D
:103A800041960E94D819832D0E940E03BC01B7CF26
:103A9000E32DF0E0E55BFC4FE491E33039F148F4CD
:103AA000E130B9F0E230E9F0003811050CF03CCF1C
:103AB000D1CFE73029F1E83059F1E430A9F780910E
:103AC000800080628093800010938B0000938A00B6
:103AD00004C084B5806884BD07BDF501178E168EBD
:103AE000DBCD84B5806284BD08BDF7CF80918000B6
:103AF0008068809380001093890000938800EDCF48
:103B00008091B00080688093B0000093B300E5CF4F
:103B10008091B00080628093B0000093B400DDCF4C
:103B2000E32DF0E0FA83E983BFE1B315B0F2EE0FC5
:103B3000FF1FE15AFC4F259134912115310569F29F
:103B4000E2E021363E0749F2C301F9010995C5CFEC
:103B5000CE014C960E94C7248C8D9D8D9C01201B0C
:103B6000310B421A530A9A8389835C824B825E82AC
:103B70004D82E32DF0E0FA8BE98B0FE1031508F499
:103B8000ACCFEE0FFF1FE156FC4F2591349121156C
:103B9000310509F4A2CF12E02036310709F49DCF98
:103BA000B301CE014196F901099597CF0E94190AF8
:103BB0008FED93E00E94CB04C8010E94B424D5018C
:103BC0005E964D915C91D12CC12CF12CE12C02E040
:103BD00010E030E020E060E023CF8A8D9B8D800FE5
:103BE000911F1A8309839C838B830817190708F098
:103BF00053CDC3010E94C724D5015F961C921E922B
:103C00005E974ACD8A8D9B8D892B09F445CD0E9404
:103C1000190A80EF93E00E94CB04C8010E94B424EB
:103C20003BCDF50112A211A2828593850E94C008A6
:103C300033CD0E947B032B013C01F50182859385E6
:103C40000E94AD08D50191962D913C91929721301B
:103C5000310509F094C0F501811132C0408E518EBA
:103C6000628E738E12A211A2828593850E94C00873
:103C7000912CD50190968C919097815090968C9331
:103C8000892DE8A1F9A10FB6F894FEBF0FBEEDBFD4
:103C9000A1960FB6F894DEBF0FBECDBFDF91CF91D6
:103CA0001F910F91FF90EF90DF90CF90BF90AF905A
:103CB0009F908F907F906F905F904F903F9008956E
:103CC00080899189A289B38993018201081B190B0C
:103CD0002A0B3B0BD901C801893116EF9107A105C9
:103CE000B10560F00E94190A88E594E00E9462091B
:103CF000D50192961C921E92919760CC893C9F4A66
:103D0000A105B10598F4F50184899589A689B7893B
:103D100093018201081B190B2A0B3B0BD901C80127
:103D2000893C9F4AA105B10508F49FCBF501808D20
:103D3000918DA28DB38D93018201081B190B2A0B63
:103D40003B0BD901C80181379741A105B10508F4A2
:103D50008CCBD12CC12CF12CE12C10E000E030E018
:103D600020E050E040E066E0C5010E94491FD50117
:103D700058964D925D926D927C925B9776CB232BF9
:103D800009F073CBF501408D518D628D738D9301D8
:103D90008201041B150B260B370BB901A8018823E0
:103DA000B1F0413757416105710508F45ECB0E94BF
:103DB000190A8AE494E00E946209D5011A968D914D
:103DC0009C910E94C008F50112A211A251CF49385E
:103DD00053416105710508F448CB1A968D919C9169
:103DE0000E94C008F50102851385D8011A966D91CD
:103DF0007C91C8010E94330AF801848781110DC0AB
:103E0000828593858035910599F460E97FE1C80149
:103E10000E94330AD8011C968C93D8011C969C9062
:103E2000911011C0F501408E518E628E738E21CF9C
:103E300080399F4191F760E570E0C8010E94330A24
:103E4000F8018487EACF81E090E0D5015D969C93EC
:103E50008E935C971C962D913C91F9010190002066
:103E6000E9F731978F01021B130BD12CC12CF12CD8
:103E7000E12C41E050E06DE1C5010E94491FF501D0
:103E800084899589A689B789808F918FA28FB38FF6
:103E9000F0CE2F923F924F925F926F927F928F92CD
:103EA0009F92AF92BF92CF92DF92EF92FF920F93C9
:103EB0001F93CF93DF93CDB7DEB7C854D1090FB6A8
:103EC000F894DEBF0FBECDBF4C0168AF5AAF49AF0B
:103ED00027963FAF2EAF279721961FAF0EAF2197A2
:103EE0002996FFAEEEAE29972396DFAECEAE23978E
:103EF000DC011A968D919C910E94AD08882309F4EB
:103F0000B7C1B8ADBB2351F0B63041F0BD3131F08F
:103F1000F40181A192A1019709F0AAC188AD8F5047
:103F20008630A0F5D40154964D915D916D917C91B0
:103F300057975096CD90DD90ED90FC905397C41616
:103F4000D506E606F70610F46A017B01B2E4CB0E53
:103F5000D11CE11CF11C0E947B03A7019601261BCA
:103F6000370B480B590BDA01C901B7FD9BC1C401DE
:103F70000E94FD190E947B03A7019601261B370BA7
:103F8000480B590BDA01C901B7FFF1CFF401808169
:103F90009181019709F0B2C082E090E09183808323
:103FA0002281338144815581668177818085918525
:103FB000A0E0FE017A960E94913409F486C1FBAB21
:103FC000EAAB1DAA1CAA88E190E09FAB8EAB65ED21
:103FD00071E0CE01C2960E94CB16D40112964C908D
:103FE000129713965C90139714966C9014971596ED
:103FF0007C9015971696BC91BBAFF401F781FCAF8E
:10400000D40118962C90189719963C90198E92010D
:10401000A3016BAD7F2FC101A0E00E94913409F490
:104020004AC1FE0179962596FFAFEEAF259727E1AD
:1040300030E03EAF2DAF8AE0A82EB12CC12CD12CA0
:10404000E12CF12C00E010E09201A3016BAD7CADFE
:10405000C1010E943234F901E351FE4F808125965F
:10406000AEADBFAD25978E932596BFAFAEAF25976A
:10407000EDADFEAD3197FEAFEDAF9AE0A92EB12CBC
:10408000C12CD12CE12CF12C00E010E09201A30115
:104090006BAD7CADC1010E94343429013A016BAF94
:1040A0007CAF1C01A0E00E94913421F04DAD5EADCB
:1040B000452B09F66DAD7EAD6C0F7D1F6E5F7F4F9A
:1040C00009F0FEC0EAA9FBA98CA99DA99C012F5F5C
:1040D0003F4F3DAB2CABE80FF91F10820CA91DA977
:1040E000015011092AA93BA9D12CC12CF12CE12C9A
:1040F00050E040E065E1C4010E94491F29AD3AAD9E
:10410000232BB9F4D4015E960D90BC91A02DBAAFCB
:10411000A9AFAB2B71F4F401848D958D019609F450
:10412000E9C0958F848FF401048CF58DE02DFAAFF2
:10413000E9AF27962EAD3FAD279721960EAD1FAD67
:1041400021970B5F1F4F232B11F405E010E02996F8
:104150004EAD5FAD299790E080E0452B21F023968E
:104160008EAD9FAD2397080F191F58AD598389ADA8
:104170009AAD9827892798279B838A8321968EADAD
:104180009FAD21972396AEADBFAD23978A0F9B1F9E
:104190009827892798279D838C83D4011A96ED91BF
:1041A000FC9180819181DC01ED91FC910280F38191
:1041B000E02D45E050E0BE016F5F7F4F09957C0127
:1041C00060E070E0CB010E944803B8ADBB2309F466
:1041D00044C02196EEADFFAD2197EF2BE1F0D40165
:1041E0001A96ED91FC9180819181DC01ED91FC9119
:1041F0000280F381E02D21964EAD5FAD2197279689
:104200006EAD7FAD27970995E80EF91E60E070E06E
:10421000CB010E9448032396EEADFFAD2397EF2B11
:10422000E1F0D4011A96ED91FC9180819181DC013D
:10423000ED91FC910280F381E02D23964EAD5FADB0
:10424000239729966EAD7FAD29970995E80EF91E43
:1042500060E070E0CB010E944803E016F10609F42B
:104260004EC0F40112A211A2828593850E94C0085B
:10427000C85BDF4F0FB6F894DEBF0FBECDBFDF9136
:10428000CF911F910F91FF90EF90DF90CF90BF9053
:10429000AF909F908F907F906F905F904F903F90E6
:1042A0002F900895D40190968C9181116FCEC40106
:1042B0000E94FD196BCE80E3888FBE01685E7F4F40
:1042C000CE01C2960E94CB1609CFFA83E9831C82E5
:1042D0001B8284E090E09E838D836BEE71E0CE01C3
:1042E00001960E94CB160B811C8101501109298176
:1042F0003A81FACE81E090E0958F848F14CF0E94AE
:104300007B03D40154966D937D938D939C93579723
:10431000AFCF8F929F92AF92BF92CF92DF92EF92E8
:10432000FF920F931F93CF93DF93CDB7DEB7C75A9A
:10433000D1090FB6F894DEBF0FBECDBF8EE00E944C
:104340000E03BC01990F880B990B0E94BE312AE025
:1043500038E240EA5BE30E941D3220E030E040E0BA
:104360005FE30E94753320E030E048EC52E40E94A5
:104370001D326B017C01C0925802D0925902E0922A
:104380005A02F0925B02CE010196CE55DF4F99831F
:104390008883C25AD040CC55DF4F19821882C45A44
:1043A000D04080E890E0CA55DF4F99838883C65A91
:1043B000D04061E172E0CE018E559F4F0E94CB1636
:1043C00061E070E0CE018E559F4F0E94D8198E019A
:1043D0000F571F4F23E045E0C701B6010E94F92C9B
:1043E000B801CE018E559F4F0E94CB16CC55DF4FA2
:1043F00008811981C45AD04001501109CE55DF4FB0
:1044000028813981C25AD040D12CC12CF12CE12C09
:1044100050E040E064E182E295E00E94491F80E0C4
:104420000E941C0964E172E084E694E00E942B0A79
:10443000C0905802D0905902E0905A02F0905B026E
:10444000A7019601C701B6010E9416346BE172E024
:1044500081111AC046015701E894B7F82FEF3FEFDA
:104460004FE75FE7C501B4010E94163481113FC0D8
:104470002FEF3FEF4FE75FE7C501B4010E94B7316F
:104480001816ACF56FE172E084E694E00E945309DF
:1044900067E272E084E694E00E942B0A81E00E94C9
:1044A0001C098091570269E272E0811108C0809175
:1044B000560264E372E0811102C06FE372E084E6A9
:1044C00094E00E942B0AC955DF4F0FB6F894DEBF67
:1044D0000FBECDBFDF91CF911F910F91FF90EF9055
:1044E000DF90CF90BF90AF909F908F9008952FEF67
:1044F0003FEF4FE75FE4C701B6010E941134181681
:104500001CF463E272E0C0CF2FEF3FEF4FE75FECA8
:10451000C701B6010E94B73187FDF3CF20E030E03C
:10452000A901C701B6010E94B73187FF09C06DE23A
:1045300084E694E00E94D703F7FAF094F7F8F09439
:104540002AE037ED43EA5BE3C701B6010E94763308
:104550004B015C010E94E2336B017C010E94BC3183
:104560009B01AC01C501B4010E9475334B015C0194
:104570002AE0B701A60184E694E00E9472096EE287
:1045800084E694E00E94D70320E030E040E251E46A
:10459000C501B4010E941D324B015C010E94E2334F
:1045A0006B01F12CE12C2AE0B701A60184E694E02E
:1045B0000E947209C701B6010E94BC319B01AC0187
:1045C000C501B4010E94753320E030E040E251E4BF
:1045D0000E941D320E94E233AB0170E060E02AE0ED
:1045E00084E694E00E94720953CF0C94B32D1F927D
:1045F0000F920FB60F9211242F933F938F939F9397
:10460000AF93BF938091600390916103A091620387
:10461000B091630330915F0323E0230F2D3758F5EA
:104620000196A11DB11D20935F03809360039093B9
:104630006103A0936203B09363038091640390913C
:104640006503A0916603B09167030196A11DB11D9A
:104650008093640390936503A0936603B09367030C
:10466000BF91AF919F918F913F912F910F900FBE6E
:104670000F901F90189526E8230F0296A11DB11DDB
:10468000D2CF1F920F920FB60F9211242F933F9308
:104690004F935F936F937F938F939F93AF93BF934A
:1046A000EF93FF9385E893E00E945C04FF91EF9104
:1046B000BF91AF919F918F917F916F915F914F913A
:1046C0003F912F910F900FBE0F901F9018951F9242
:1046D0000F920FB60F9211242F938F939F93EF9306
:1046E000FF93E0919503F09196038081E0919B0305
:1046F000F0919C0382FD1BC0908180919E038F5F8F
:104700008F7320919F03821741F0E0919E03F0E0A8
:10471000EB57FC4F958F80939E03FF91EF919F91F4
:104720008F912F910F900FBE0F901F901895808141
:10473000F4CF1F920F920FB60F9211242F933F9335
:104740004F935F936F937F938F939F93AF93BF9399
:10475000EF93FF938091B900887F803609F44AC0B7
:10476000F0F5883209F4A5C018F5803109F499C034
:10477000B8F4882309F4F5C0883009F492C0FF9199
:10478000EF91BF91AF919F918F917F916F915F91C9
:104790004F913F912F910F900FBE0F901F90189542
:1047A000883109F486C0803251F78093C50214C065
:1047B000803409F49BC040F48033B9F38833F9F6B0
:1047C0008093C50285ECAEC0803509F483C088357E
:1047D00009F494C0883499F60E94F316D0CF883932
:1047E00009F48AC038F5883729F050F4883611F07A
:1047F000803729F683E08093C7021092A00255C04B
:10480000883809F479C0803919F0803809F0B7CFB9
:104810008091A002803208F06FC0E091A00281E098
:104820008E0F8093A0028091BB00F0E0E058FD4F16
:1048300080833BC0803B39F0D0F4803A09F477C0E4
:10484000883A09F09CCF84E08093C70210927F02DF
:1048500010927E02F0E0E0E0099580917E028111E5
:104860000FC081E080937E0210925E0209C0803CFE
:1048700009F4A8CF883C09F4A5CF883B09F07FCF85
:10488000E0917F0281E08E0F80937F02F0E0E25A98
:10489000FD4F80818093BB0090917F0280917E02CA
:1048A00029C08091A2028093BB0085EC8093BC005C
:1048B00066CF9091C4028091C302981758F5E09199
:1048C000C40281E08E0F8093C402F0E0ED55FD4FED
:1048D0008081E9CFE091C40281E08E0F8093C40211
:1048E0008091BB00F0E0ED55FD4F80839091C402B4
:1048F0008091C3029817C8F285E8D8CFE091C4022E
:1049000081E08E0F8093C4028091BB00F0E0ED55F2
:10491000FD4F80838091C60281115ECF81E080933C
:10492000A10284EA8093BC001092C70228CF85ECD4
:104930008093BC001092C7028091A002803230F4B4
:10494000E091A002F0E0E058FD4F10826091A002DB
:1049500070E080E892E0F0E0E0E009951092A002BB
:104960000ECF1092C50238CFCF93DF93BC0185E8FC
:1049700093E00E945309EC016DEC71E085E893E04F
:104980000E9453098C0F9D1FDF91CF910895DC0188
:10499000ED91FC911197309761F012962D913C9119
:1049A0001397E217F30728F401900020E9F7ED933D
:1049B000FC930895FC0180819181009739F0228158
:1049C00033818217930710F40C94E02E90E080E07E
:1049D0000895AF92BF92CF92DF92EF92FF920F9322
:1049E0001F93CF93DF93CDB7DEB7CC5CD1090FB661
:1049F000F894DEBF0FBECDBF5C01CE0189579F4F3B
:104A0000C953DF4F99838883C75CD040C753DF4FBA
:104A100019821882C95CD04080E490E0C553DF4F12
:104A200099838883CB5CD0406EEF71E0CE018953CF
:104A30009F4F0E94CB1663E072E0CE0189539F4FD7
:104A40000E94CB1646E850E06DE671E0CE0101967B
:104A50000E94252FC753DF4FC880D980C95CD04042
:104A600081E0C81AD108C953DF4FE880F980C75CDC
:104A7000D04006E810E09E012F5F3F4F50E040E03D
:104A800061E1C5010E94491FC453DF4F0FB6F8947E
:104A9000DEBF0FBECDBFDF91CF911F910F91FF9071
:104AA000EF90DF90CF90BF90AF900895E5E8F3E0EE
:104AB0001382128288EE93E0A0E0B0E084839583B5
:104AC000A683B78329E631E03183208325EC30E0EB
:104AD0003587248724EC30E03787268720EC30E0C8
:104AE000318B208B21EC30E0338B228B22EC30E0B9
:104AF000358B248B26EC30E0378B268B118E128E73
:104B0000138E148EE2E2F4E0138212828483958382
:104B1000A683B7838BE791E091838083EEE2F4E094
:104B20008BEC91E091838083128213821482158230
:104B3000E4E3F4E09183808312821382148215826D
:104B4000EAE3F4E091838083128213821482158257
:104B5000E0E4F4E091838083128213821482158250
:104B6000E6E4F4E09183808312821382148215823A
:104B7000E2E5F4E09183808312821382148215822D
:104B8000ECE4F4E091838083128213821482158214
:104B9000E8E5F4E091838083128213821482158207
:104BA000EEE5F4E0918380831282138214821582F1
:104BB000E7E6F5E0918380831282138214821582E6
:104BC000E8E5F5E01382128229E931E031832083A0
:104BD00024E0248728EE33E036872587ABE4B5E070
:104BE00013969C938E93129714961D921D921D926C
:104BF0001C92179719961C921E9218971B961C923E
:104C00001E921A971C961C921C971196FC93EE9379
:104C100040E757E160E070E0448355836683778323
:104C2000E2E2F5E011821082128213821482158270
:104C30001682178210861186B387A287158614867E
:104C400017861686108A118A128A138A148A158A80
:104C5000168A178A108E118E128E138E158E148E50
:104C6000178E168E10A212A211A28FEF9FEF9093B3
:104C7000210580932005E4E6F4E0138212828DE89A
:104C800091E09183808387E2848380E1818782E061
:104C9000828713860895CF93DF93CDB7DEB72C9725
:104CA0000FB6F894DEBF0FBECDBF789484B5826096
:104CB00084BD84B5816084BD85B5826085BD85B5C0
:104CC000816085BD80916E00816080936E0010923E
:104CD00081008091810082608093810080918100B9
:104CE000816080938100809180008160809380004A
:104CF0008091B10084608093B1008091B0008160A8
:104D00008093B00080917A00846080937A008091D3
:104D10007A00826080937A0080917A00816080932B
:104D20007A0080917A00806880937A001092C100A6
:104D3000E0919503F091960382E08083E0919103E6
:104D4000F09192031082E0919303F09194038FEC21
:104D5000808310929D03E0919903F0919A0386E07D
:104D60008083E0919703F091980380818061808334
:104D7000E0919703F0919803808188608083E091AF
:104D80009703F0919803808180688083E091970376
:104D9000F091980380818F7D80830E94190A84EEB0
:104DA00092E00E9462098EEF809345059DEE9093FC
:104DB00046052AEB209347058093480580934905D3
:104DC00090934A0520E031E0D9010D900020E9F7E9
:104DD0009D0121503140A0E0B1E0E1E0F0E0AD0103
:104DE000405051404217530784F4AF014F5F5F4F6B
:104DF0006D91EE5DFA4F83A1862783A3463051055E
:104E000014F041E050E0FA01EACF8091570381119C
:104E10002AC010923F0310923E0388EE93E0A0E078
:104E2000B0E08093400390934103A0934203B0937A
:104E300043038FE391E090933D0380933C038BEC1D
:104E400091E090934B0380934A0310924C0310928D
:104E50004D0310924E0310924F0384E0809354034D
:104E600081E08093570389EF92E09093F80280935A
:104E7000F7028091F6028111ADC060E372E080E03C
:104E800090E00E944803DFB6F8940DE213E0E1E4FD
:104E9000EE2EE3E0FE2E8091F402811125C0F80190
:104EA0008491F7019491E82FF0E0EE0FFF1FEE5090
:104EB000FD4FA591B4918C91982321F461E08AE093
:104EC0000E94A40261E08AE00E94D2028CB5806157
:104ED0008CBD8CB580648CBD61E08DE00E94D202F7
:104EE00061E08BE00E94D2028091F4028F5F809398
:104EF000F402DFBEF8010491E02FF0E0EE0FFF1F97
:104F0000E450FD4F859194919093F3028093F202C7
:104F1000F701E490E092F10261E08AE00E94D2029F
:104F20000E94D60680E591E00E94620284E38093AD
:104F3000840380E80E94A2070E94720C882309F46F
:104F400032C288E00E94A2070E945F0C883009F0FC
:104F50002AC280E10E94A2070E945F0C803109F002
:104F600022C280E00E94A2070E945F0C182F8111CC
:104F70001AC241E050E0BE016F5F7F4F8FE190E0C9
:104F80000E94EA0A8981833009F00DC280E480938F
:104F9000F50242E06EE170E0812F0E94FE0742E0E0
:104FA0006FE170E0812F0E94FE071F5F143089F7C8
:104FB00040E06EE170E0812F0E94FE0740E06FE16B
:104FC00070E0812F0E94FE071F5F183089F781E093
:104FD0008093F60280E591E00E94620246E050E094
:104FE00065E475E089E090E00E94F2068BEC91E0C8
:104FF0009A8389831B821C821D821E8244E050E0BA
:10500000BE016D5F7F4F8FE090E00E94F20600913D
:10501000F7021091F802D80192961D921D921D92EE
:105020001C929597F80116A217A210A611A69A969F
:105030001D921D921D921C929D9780E69AEEA0E013
:10504000B0E086AB97ABA0AFB1AF80EA9FE0A0E045
:10505000B0E082AF93AFA4AFB5AFD801189686E0A9
:10506000FD01282F11922A95E9F79801225F3F4F01
:1050700094E1F90111929A95E9F7E5E4F5E00190E0
:105080000D928A95E1F72C5C3F4F3A872987D90129
:105090001C920E94882E2FEC37E040E050E00E94E6
:1050A000DB32DC01CB010196A11DB11DF801848327
:1050B0009583A683B78380839183A283B3835801AA
:1050C000F3E4AF0EB11CC5010E94BA0B64E470E0BA
:1050D000C5010E94230F882309F4CEC10E947B03DF
:1050E0002B013C0143E0242E58EEC52E53E0D52E73
:1050F000E12CF12C912C812CA985BA858C918330DF
:10510000B9F18111C9C1F80184819581A681B78166
:105110000196A11DB11D84839583A683B7830E9448
:105120007B036419750986099709A70196010E94F6
:105130004433A90161E0C8010E94CA1881E0A98531
:10514000BA858C93F1E08F169104B1F20E947B0333
:105150006419750986099709D801D6962D913D9154
:105160004D915C91D997261737074807590710F6D4
:10517000C5010E94BA0BF80184819581A681B7818F
:105180000196A11DB11D84839583A683B7830E94D8
:105190007B03F801FE9660837183828393838A94F4
:1051A000892809F069C180E591E00E9462020091BE
:1051B000F7021091F802B801625F7F4FCE010196AD
:1051C0000E94C81244E050E0BE016D5F7F4F8FE047
:1051D00090E00E94F206B8016A5E7F4FCE01019610
:1051E0000E94C81244E050E0BE016D5F7F4F81E035
:1051F00090E00E94F206B8016E5E7F4FCE010196EC
:105200000E94C81244E050E0BE016D5F7F4F85E010
:1052100090E00E94F206B801625E7F4FCE010196D7
:105220000E94C8128B819C81AD81BE8180934E0407
:1052300090934F04A0935004B09351040E94230311
:105240007F738091210190912201682779277093C3
:1052500022016093210168EE73E080E090E00E94FB
:1052600048038BEC91E09A8389831B821C821D8208
:105270001E8280E591E00E94620244E050E0BE019F
:105280006D5F7F4F8FE090E00E94EA0A0E94190A4A
:1052900083ED92E00E94CB046B8185E893E00E944D
:1052A000D4096EE285E893E00E94D7036C8185E81B
:1052B00093E00E94D4096EE285E893E00E94D70350
:1052C0006D8185E893E00E94D4096EE285E893E061
:1052D0000E94D7036E8185E893E00E94D4096DECAB
:1052E00071E085E893E00E94530980E091E090939B
:1052F0002F0580932E050E947B03DC01CB0188588B
:105300009341A109B1098093360590933705A09385
:105310003805B09339058093320590933305A093F7
:105320003405B093350580933A0590933B05A093DF
:105330003C05B0933D050E94190A83E192E00E946A
:105340006209E0912C05F0912D058AE492E09187A5
:10535000808780E590E09387828780912C059091EB
:105360002D050E94C00810924405109243050E942A
:105370007B034B015C0180914305909144050197AB
:1053800009F457C10E947B03681979098A099B09AE
:10539000603576448105910508F04BC182E295E0C5
:1053A0000E94FD19E8CF87E38093840380E80E9480
:1053B000A2070E94720C882329F188E00E94A207AC
:1053C0000E945F0C8830F1F480E10E94A2070E94E5
:1053D0005F0C182F8031B1F480E00E94A2070E9478
:1053E0005F0C81110FC041E050E0BE016F5F7F4F45
:1053F00089E390E00E94EA0A8981843019F41093CD
:10540000F502E5CD83E38093840380E80E94A20740
:105410000E94720C882371F180E10E94A2070E9411
:105420005F0C803139F582E10E94A2070E945F0C77
:10543000823101F580E00E94A2070E945F0C811179
:1054400019C084E08093F50215E5188741E050E02B
:10545000BE01685F7F4F8BE190E00E94F2061F83E0
:1054600041E050E0BE01695F7F4F8AE190E00E9419
:10547000F206ADCD109284030E94190A87ED92E0E6
:105480000E94620960E177E280E090E00E944803B8
:10549000F0E0E0E00995FFCF843001F5F801848168
:1054A0009581A681B7810196A11DB11D8483958345
:1054B000A683B7830E947B0364197509860997093F
:1054C000A70196010E944433A90163E0C8010E942C
:1054D000CA18E2E0A985BA85EC9334CE813069F52B
:1054E000D801DA964D915D916D917C91DD979E0189
:1054F0002F5F3F4FC8010E942B17382EB2E08B134D
:1055000091C089819A81AB81BC81F80184839583A4
:10551000A683B7830E947B036419750986099709DE
:10552000A70196010E944433A90163E0C8010E94CB
:10553000CA18A985BA853C9205CE823009F002CE00
:10554000F80142AD53AD64AD75AD9E012F5F3F4F85
:10555000C8010E942B17382EF5E08F135CC0A98577
:10556000BA852C92F80182A193A1A4A1B5A1892B9F
:105570008A2B8B2B41F424E833E040E050E022A357
:1055800033A344A355A3F80186A197A1A0A5B1A573
:10559000892B8A2B8B2B61F482A193A1A4A1B5A1A5
:1055A000B695A7959795879586A397A3A0A7B1A72A
:1055B000F80182A593A5A4A5B5A5892B8A2B8B2BD1
:1055C000A9F482A193A1A4A1B5A1AC01BD0123E0DE
:1055D00076956795579547952A95D1F7841B950B36
:1055E000A60BB70B82A793A7A4A7B5A7F80186A11E
:1055F00097A1A0A5B1A586A797A7A0ABB1AB82A59F
:1056000093A5A4A5B5A582AB93ABA4ABB5AB8824F9
:105610008394912C97CDF6E08F1304C0A985BA85A9
:105620001C9290CDBFEF3B128DCDE985FA8510829B
:1056300089CD8091430590914405019709F08DCE65
:105640008091690488608093690432E0F32EF092BF
:105650006C0462E370E080E090E00E944803609197
:105660006F0484E694E00E94D50568EE73E080E064
:1056700090E00E94480360E384E694E00E94EC0816
:105680000BE416E4C8010197F1F760E384E694E0C7
:105690000E94EC08C8010197F1F760E384E694E00A
:1056A0000E94EC0883E592E00197F1F760E284E65E
:1056B00094E00E94EC0860916904606240E084E636
:1056C00094E00E94050984E080936A0440E06CE065
:1056D00084E694E00E94050940E061E084E694E0FD
:1056E0000E9405090BE31FE1C8010197F1F7F09251
:1056F0006B0440E066E084E694E00E94050940E027
:1057000062E084E694E00E940509C8010197F1F780
:1057100088E080936F0460E084E694E00E94D50501
:1057200061E085E00E94D20261E084E00E94D20242
:1057300060E085E00E94A40260E084E00E94A40290
:10574000809120059091210597FF22C00E947B0344
:10575000E0E7F4E050E040E026E1249FD001259FFF
:10576000B00D11248D0100591B4FD801322F1D920D
:105770003A95E9F760837183828393834F5F5F4F2C
:1057800076964830510549F7109221051092200570
:1057900080912005909121050897CCF5E0E7F4E091
:1057A00090E080E024813581232B09F0FBC0268125
:1057B0003781232B09F0F6C026E1289F8001299F1D
:1057C000100D112400591B4F88EE93E0A0E0B0E0CB
:1057D000F80183879487A587B68789E891E2958346
:1057E00084831286108A178681E0838B0E947B0354
:1057F000D8016D937D938D939C9313978091200591
:1058000090912105019690932105809320052224F3
:105810002394312C20E0C22E20E0D22E82E295E0AB
:105820000E94FD190E947B032B013C0180E7E82EBA
:1058300084E0F82E8701F801158A148A8481958105
:10584000892B29F486819781892B09F449C0D801D5
:105850002D913D914D915C91139729873A874B8704
:105860005C87C301B201621B730B840B950B1B9603
:105870008D909D90AD90BC901E97681579058A0516
:105880009B0570F181149104A104B10409F491C045
:10589000A50194010E944433C501B4010E941B3448
:1058A00029853A854B855C85620F731F841F951F80
:1058B000D8016D937D938D939C931397D801539644
:1058C0008C915397882361F01F962D913C915097AE
:1058D0002115310509F073C055963C922E925497CC
:1058E0000A5E1F4F35E00032130709F0A4CF10E025
:1058F00000E0D70154968D919C915597892BE9F141
:105900001A968C911A97882309F46EC01696ED9119
:10591000FC91179718968D919C910995F7018489B0
:105920009589029751F58091200590912105892B49
:1059300021F184819581892B21F486819781892B9E
:10594000E1F026E1209FF001219FF00D1124E059A4
:10595000FB4FDF011D922A95E9F70E947B03F701B7
:1059600060837183828393838091200590912105C8
:10597000019790932105809320050F5F1F4FF6E15B
:10598000EF0EF11C0830110509F0B3CFC114D1049A
:1059900009F444CF0E944804882309F43FCF0E94B1
:1059A00000003CCF019676968830910509F0FACE3A
:1059B0002ECFF80140825182628273827FCFF8013C
:1059C000818992898217930708F08ACF358A248AC1
:1059D0000196928B818B8217930708F481CF22E086
:1059E00030E0358B248B7CCF1496ED91FC9109959A
:1059F00095CFEF920F931F93CF93DF93E80134E09D
:105A000047FD34E1042E000C550B57FF03C05195A0
:105A100041955109E32E022F242FAE010E94702FD1
:105A2000CE01DF91CF911F910F91EF9008950F93C9
:105A30001F93CF93DF938230910510F482E090E0C2
:105A4000E0916F05F091700530E020E0B0E0A0E05B
:105A5000309799F42115310509F44AC0281B390BF8
:105A600024303105D8F58A819B816115710589F152
:105A7000FB0193838283FE0111C040815181028129
:105A8000138148175907E0F04817590799F4109700
:105A900061F012960C93129713961C933296CF01D5
:105AA000DF91CF911F910F91089500936F0510938F
:105AB0007005F4CF2115310551F04217530738F026
:105AC000A901DB019A01BD01DF01F801C1CFEF019E
:105AD000F9CF9093700580936F05CDCFFE01E20F53
