:100000000C94B9010C94E1010C94E1010C94E10110
:100010000C94E1010C94E1010C94E1010C94E101D8
:100020000C94E1010C94E1010C94E1010C94E101C8
:100030000C94E1010C94E1010C94E1010C94E101B8
:100040000C94DA230C94E1010C944A240C9424249B
:100050000C94E1010C94E1010C94E1010C94E10198
:100060000C947C240C94E1015D2000626C6E6B6941
:100070006E66006D637500302E302E300066772D71
:100080007479706500544D504C33322D724447578B
:100090007237006275696C640041756720313320E6
:1000A000323032342032313A34363A343000626CF5
:1000B000796E6B00312E332E3200682D62656174CB
:1000C00000343500627566662D696E003235360083
:1000D0006465760041726475696E6F20556E6F00BD
:1000E0006370750041546D65676133323850006349
:1000F0006F6E005735313030000000436F6E6E6513
:100100006374696E6720746F2000436F6E6E656361
:1001100074696E6720746F20000D0A202020205F14
:100120005F5F20205F5F20202020202020202020D3
:100130005F5F0D0A2020202F205F20292F202F5FB6
:10014000205F5F5F5F5F20202F202F5F5F0D0A2001
:10015000202F205F20202F202F202F2F202F205FC7
:10016000205C2F2020275F2F0D0A202F5F5F5F5F0D
:100170002F5F2F5C5F2C202F5F2F2F5F2F5F2F5C57
:100180005F5C0D0A20202020202020202F5F5F5F51
:100190002F2076312E332E32206F6E2041726475FF
:1001A000696E6F20556E6F0D0A0D0A20235374611E
:1001B0006E6457697468556B7261696E65202020A2
:1001C0002068747470733A2F2F6269742E6C792FC3
:1001D000737775610D0A0D0A0049503A004448438F
:1001E00050204661696C6564210047657474696ECE
:1001F000672049502E2E2E0000000000240027000A
:100200002A0000000000250028002B006D73292E15
:10021000005265616479202870696E673A20000099
:100220000000002300260029000404040404040440
:100230000402020202020203030303030301020495
:100240000810204080010204081020010204081058
:100250002000000008000201000003040700000065
:100260000000000000E401E401E401E401E401E431
:1002700001E401E401E401E401E401E401E401E456
:1002800001E401E401E401E401E401E401E401E446
:1002900001E401E401E401E401E401E401E401E436
:1002A00001E401E401CF0BE301BC0B990B760BE3F6
:1002B00001E301E301E301E301E301E301E301E31E
:1002C00001E301E301E301E301E301E301E301E30E
:1002D00001E301E301E301E301E301E301E301E3FE
:1002E00001E301E301496E76616C6964204857209F
:1002F000636D643A20005365727665723A2000524D
:1003000065646972656374696E6720746F2000525A
:1003100065616479005061636B657420746F6F2050
:100320006269673A2000436F6E6E65637420666190
:10033000696C65642E20636F64653A2000496E76AF
:10034000616C6964206175746820746F6B656E0000
:100350004C6F67696E2074696D656F7574004865D0
:10036000617274626561742074696D656F75740083
:10037000262611241FBECFEFD8E0DEBFCDBF13E08D
:10038000A0E0B1E0E0EAF2E602C005900D92A235ED
:10039000B107D9F726E0A2E5B3E001C01D92AB3664
:1003A000B207E1F711E0C9EBD1E004C02197FE01EB
:1003B0000E940C31C83BD107C9F70E941B270C943F
:1003C0004E310C940000089508958CBD9DBD089594
:1003D00020E3FC0120833296862F82958F706F7008
:1003E0006A3030F4605D6293682F8111F5CF089513
:1003F000695CF9CFFC01818D928D0895833081F085
:1004000028F4813099F08230A9F008958730A9F05E
:100410008830C9F08430B1F4809180008F7D03C0B2
:10042000809180008F7780938000089584B58F77C6
:1004300084BD089584B58F7DFBCF8091B0008F7708
:100440008093B00008958091B0008F7DF9CF1F9305
:10045000CF93DF93282F30E0F901EF5AFD4F8491BD
:10046000F901E35CFD4FD491F901E75DFD4FC491C3
:10047000CC23A9F0162F81110E94FE01EC2FF0E091
:10048000EE0FFF1FEE5FFD4FA591B4918FB7F8946B
:10049000EC91111108C0D095DE23DC938FBFDF9162
:1004A000CF911F910895DE2BF8CFCF93DF9390E08B
:1004B000FC01E35CFD4F2491875D9D4FFC0184911D
:1004C0008823C9F090E0880F991FFC01E850FE4F87
:1004D000A591B491FC01EE5FFD4FC591D4916111DE
:1004E0000DC09FB7F8948C91209582238C938881BE
:1004F000282328839FBFDF91CF910895623051F464
:100500009FB7F8943C91822F809583238C93E88148
:100510002E2BEFCF8FB7F894EC912E2B2C938FBF0F
:10052000EACF8E3008F08E508770806480937C0014
:1005300080917A00806480937A0080917A0086FDB1
:10054000FCCF809178009091790008953FB7F8949E
:1005500080915E0490915F04A0916004B091610469
:1005600026B5A89B05C02F3F19F00196A11DB11D0E
:100570003FBFBA2FA92F982F8827BC01CD01620F4A
:10058000711D811D911D42E0660F771F881F991F05
:100590004A95D1F708958F929F92AF92BF92CF92D2
:1005A000DF92EF92FF926B017C010E94A6024B0149
:1005B0005C01C114D104E104F104B9F00E94A60267
:1005C000681979098A099B09683E7340810591057C
:1005D00080F321E0C21AD108E108F10888EE880E04
:1005E00083E0981EA11CB11CE4CFFF90EF90DF9038
:1005F000CF90BF90AF909F908F9008952FB7F894B1
:1006000060915A0470915B0480915C0490915D0448
:100610002FBF0895CF92DF92EF92FF920F931F9317
:10062000CF93DF936B017C018A0180911A06909130
:100630001B0697FF21C00E94FE02EAE6F5E050E0AB
:1006400040E026E1249FD001259FB00D1124A6593A
:10065000BA4FED01322F19923A95E9F76083718311
:10066000828393834F5F5F4F76964830510551F7F1
:1006700010921B0610921A0680911A0690911B0682
:1006800008978CF4EAE6F5E0D0E0C0E0848195813B
:10069000892B61F486819781892B41F4F80180814F
:1006A0009181009749F4CFEFDFEF2AC0219676962B
:1006B000C830D10559F7F7CF26E12C9F80012D9F37
:1006C000100D112406591A4FF801C386D486E58609
:1006D000F686958384831286108A178681E0838B41
:1006E0000E94FE02F801608371838283938380916C
:1006F0001A0690911B06019690931B0680931A068A
:10070000CE01DF91CF911F910F91FF90EF90DF907D
:10071000CF9008954F925F926F927F92AF92BF9267
:10072000CF92DF92EF92FF920F931F93CF93DF93BD
:10073000EC016B017B01E40EF51E8B015801AC1836
:10074000BD080E151F0511F10E94FE02688779870A
:100750008A879B87E881F9810284F385E02DCE01A9
:10076000099597FF23C00E94FE02488459846A8439
:100770007B8464197509860997094C805D806E80B9
:100780007F80641575058605970520F3C501DF9107
:10079000CF911F910F91FF90EF90DF90CF90BF907E
:1007A000AF907F906F905F904F900895F801819384
:1007B0008F01C4CFDC01ED91FC910190F081E02D1F
:1007C0000994AF92BF92CF92DF92EF92FF920F9374
:1007D0001F93CF93DF936C017B018B01040F151FD7
:1007E000EB015E01AE18BF08C017D10759F069913F
:1007F000D601ED91FC910190F081E02DC6010995A3
:10080000892B79F7C501DF91CF911F910F91FF904F
:10081000EF90DF90CF90BF90AF900895FC01538D83
:10082000448D252F30E0842F90E0821B930B5417CA
:1008300010F0CF96089501970895FC01918D828D57
:10084000981761F0A28DAE0FBF2FB11D5D968C91F0
:10085000928D9F5F9F73928F90E008958FEF9FEF2F
:100860000895FC01918D828D981731F0828DE80FEB
:10087000F11D858D90E008958FEF9FEF0895FC01A5
:10088000918D228D892F90E0805C9F4F821B910972
:100890008F73992708958FE794E00E943F0421E029
:1008A000892B09F420E0822F089580E090E0892BC5
:1008B00029F00E944B0481110C9400000895FC0162
:1008C000A48DA80FB92FB11DA35ABF4F2C91848DB1
:1008D00090E001968F739927848FA689B7892C930E
:1008E000A089B1898C91837080648C93938D848D61
:1008F000981306C00288F389E02D80818F7D808364
:100900000895EF92FF920F931F93CF93DF93EC0123
:1009100081E0888F9B8D8C8D98131AC0E889F989A6
:10092000808185FF15C09FB7F894EE89FF896083A9
:10093000E889F98980818370806480839FBF81E02A
:1009400090E0DF91CF911F910F91FF90EF9008956C
:10095000F62E0B8D10E00F5F1F4F0F731127E02E47
:100960008C8D8E110CC00FB607FCFACFE889F9897F
:10097000808185FFF5CFCE010E945F04F1CFEB8D22
:10098000EC0FFD2FF11DE35AFF4FF0829FB7F89453
:100990000B8FEA89FB8980818062CFCF0F931F93F1
:1009A000CF93DF938C01D0E0C0E0F801EC0FFD1F86
:1009B0006491662341F08FE794E00E948104892BC3
:1009C00011F02196F2CFCE01DF91CF911F910F91BF
:1009D0000895682F8FE794E00C948104CF93DF9300
:1009E000EC01888D8823B9F0AA89BB89E889F98947
:1009F0008C9185FD03C0808186FD0DC00FB607FC7C
:100A0000F7CF8C9185FFF2CF808185FFEDCFCE01AE
:100A10000E945F04E9CFDF91CF9108951F93CF9398
:100A2000DF93C1E0C0935703882399F1D091B800B8
:100A30001091BA008091BC008A7B8093BC0060E07A
:100A400082E10E94270260E083E10E942702109267
:100A5000C103C093C00310929B0361E082E10E9436
:100A6000270261E083E10E9427028091B9008E7F16
:100A70008093B9008091B9008D7F8093B90088E49C
:100A80008093B80085E48093BC001093BA00D093A3
:100A9000B800DF91CF911F91089520917803260F20
:100AA0003327331F21323105ECF42091C103FC01BF
:100AB00090E080E0243069F082E00895A09178030E
:100AC0002191AC01485A5C4FA40FB52FB11D2C9356
:100AD0000196861798F380917803680F60937803E6
:100AE00080E0089581E008958FEF9FEF08958FEFE4
:100AF0009FEF08958091560390E09195819591091B
:100B00000895CF92DF92EF92FF920F931F93CF93AE
:100B1000DF937C01CB018A012091C703222389F056
:100B2000EB016B01C40ED51ECC15DD0569F0699192
:100B3000D701ED91FC910190F081E02DC70109955D
:100B4000F3CF642F0E944D05C801DF91CF911F9113
:100B50000F91FF90EF90DF90CF900895CF93DF93A8
:100B60001F92CDB7DEB769832091C7032223F9F026
:100B70002091EA03203258F021E030E0FC01338379
:100B8000228390E080E00F90DF91CF9108958091D3
:100B9000C803E82FF0E0E753FC4F998190838F5F03
:100BA0008093C8038093EA0381E090E0ECCF61E09A
:100BB000CE0101960E944D05F7CFCF92DF92EF92C2
:100BC000FF920F931F93CF93DF93FC01C48121E029
:100BD0002093C703C093E9031092C8031092EA035D
:100BE0008385682B8CE195E00E94AE05D091EA03E5
:100BF000D13208F092C00E94A6026B017C01809164
:100C0000C103811165C082E08093C10381E08093BC
:100C1000C0038FEF8093BF031092BE03D093BD0338
:100C2000A9ECB3E0EDE9F3E080E0D81385C01092C1
:100C30009C0380919C03CC0FC82BC0939C03809194
:100C40009B03813009F07CC010929B030E94A60296
:100C50006B017C0180919C038093BB008091C30356
:100C60009091C403A091C503B091C603892B8A2B30
:100C70008B2B99F00E94A6020091C3031091C4032C
:100C80002091C5033091C6036C197D098E099F0917
:100C90000617170728073907E0F18091BC0083FD8C
:100CA000D9CF85EC8093BC000E94A6026B017C0129
:100CB0008091C103823009F445C08091BF038F3F0A
:100CC00061F18091BF03803241F18091BF0325C063
:100CD0008091C3039091C403A091C503B091C60352
:100CE000892B8A2B8B2B09F48ACF0E94A6020091B4
:100CF000C3031091C4032091C5033091C6036C193E
:100D00007D098E099F09061717072807390708F07C
:100D100076CF8091C2030E940E051092C8031092F4
:100D2000EA031092C703DF91CF911F910F91FF90BB
:100D3000EF90DF90CF9008959D9191938F5F75CF45
:100D400085EEB0CF8091C3039091C403A091C503F9
:100D5000B091C603892B8A2B8B2B09F4A9CF0E9453
:100D6000A6020091C3031091C4032091C5033091E2
:100D7000C6036C197D098E099F09061717072807F6
:100D8000390708F095CFC5CFFC0120812EBD9B010E
:100D90002150310941F051810DB407FEFDCF4EB510
:100DA0005EBD4193F5CF61507109860F971F0DB459
:100DB00007FEFDCF2EB5FC0120830895E091EC03E2
:100DC000F091ED0380819091EB03892B808308954E
:100DD000E091EC03F091ED0390818091EB0380951D
:100DE0008923808308958EBD00000DB407FEFDCFDA
:100DF0008EB50895AF92BF92CF92DF92EF92FF929D
:100E00000F931F93CF93DF93CDB7DEB728970FB61D
:100E1000F894DEBF0FBECDBF8C017B016A018091CB
:100E20007E048333E1F45801A40EB51EA016B1066A
:100E300009F46FC00E94E80680EF0E94F306812F3C
:100E40000E94F306802F0E94F3060F5F1F4FF701E9
:100E500081917F010E94F3060E94DE06E7CF5B01CD
:100E6000A40EB51E8433C1F40E94E80619830A83D8
:100E70008D2D80688B83CC8264E070E0CE0101967A
:100E80000E94C406AE14BF0409F441C0F701819169
:100E90007F010E94F306F6CF0E94E8060F3F11057E
:100EA00009F028F419820A8384E08B830CC017FDB3
:100EB00017C019820A8333E0169507953A95E1F732
:100EC000007E0C600B8386E0C816D104A0F5F70104
:100ED000DE011496EA15FB0599F081918D93FACF06
:100EE000C80126E0969587952A95E1F7807E1983BB
:100EF0000A830115104C10F48461D7CF8C61D5CFD3
:100F0000B6016D5F7F4FCE0101960E94C4060E941C
:100F1000DE06C60128960FB6F894DEBF0FBECDBF21
:100F2000DF91CF911F910F91FF90EF90DF90CF90C5
:100F3000BF90AF90089563E070E0CE0101960E94EB
:100F4000C406F70181917F010E94F306AE14BF042D
:100F5000C1F7DDCFCF93DF931F92CDB7DEB7898383
:100F600041E050E0BE016F5F7F4F90E080E00E9463
:100F7000FA060F90DF91CF91089590E020917E04C2
:100F8000233339F40C96982F990F990F990F80E01D
:100F900008954896F8CFDA01E091EF03F0E0FE2FD4
:100FA000EE27E60FF71F90E0982F8827A901BD01D3
:100FB0008E0F9F1F0C94FA06CF93DF9300D0CDB70E
:100FC000DEB779836A8322E030E0AE014F5F5F4F86
:100FD00060E170E00E94CB070F900F90DF91CF91FE
:100FE0000895CF93DF9300D0CDB7DEB779836A83BE
:100FF00022E030E0AE014F5F5F4F64E070E00E949E
:10100000CB070F900F90DF91CF910895CF93DF938F
:101010001F92CDB7DEB72091EF0330E0322F2227A9
:10102000260F371F90E0982F8827498341E050E032
:10103000BE016F5F7F4F820F931F0E94FA060F90D1
:10104000DF91CF910895CF93DF931F92CDB7DEB795
:101050006983DC01ED91FC910280F381E02D41E098
:1010600050E0BE016F5F7F4F09950F90DF91CF91E8
:1010700008950895FC019485FB018485981303C0AD
:1010800081E0943008F080E00895CF93DF931F92C1
:10109000CDB7DEB76983DC01ED91FC910280F3816D
:1010A000E02D41E050E0BE016F5F7F4F09950F904A
:1010B000DF91CF9108950895FF920F931F93CF93DF
:1010C000DF93EB01FC01178A168A2A81211109C0DE
:1010D0002B81211106C02C81211103C02D812223D7
:1010E00001F141155105E9F08A01FC01F08C80E520
:1010F00091E00E94E501AE014E5F5F4F24E030E0D9
:101100006CE070E08F2D0E94CB07B8018F2D0E94FC
:10111000DC0781E090E0DF91CF911F910F91FF906C
:10112000089580E0F7CFFC01848595850895FC0142
:101130008489958908952BEC31E0FC01318320836B
:10114000FB014089518962897389FC014283538381
:10115000648375830895DC01ED91FC91048CF58D19
:10116000E02D099490E080E00895CF9380E390E033
:101170000E94E9048FE794E00E943F040297D4F3B1
:101180008FE794E00E941D04C82F809355038FE7DA
:1011900094E00E941D0420E03C2FA901482BCA01C5
:1011A000CF910895FC019485992369F08081918104
:1011B000DC01ED91FC910688F789E02D099591E01D
:1011C000811101C090E0892F0895DC011C961C92CA
:1011D0001C978D919C91009739F0DC01ED91FC9169
:1011E0000488F589E02D09940895FC0176876587C8
:1011F0000895DC01ED91FC9102A0F3A1E02D099589
:1012000091E089270895862F089581E08627089523
:1012100021E0FC018485843008F020E0822F0895CD
:1012200008950F931F93CF938C01C62F0E94DD0565
:101230006C2F6460C8010E94DD056C2F6B7FC801B4
:101240000E94DD0583EC90E00197F1F7CF911F91AB
:101250000F9108950F931F93CF93DF938C01D62F97
:10126000C42F607F642B0E94110980E1D89FB001D8
:1012700011246C2BC801DF91CF911F910F910C9419
:101280001109CF93DF93CDB7DEB728970FB6F89447
:10129000DEBF0FBECDBF98E0EDE2F1E0DE011196BA
:1012A00001900D929A95E1F790916605961708F4D2
:1012B0006FEF262F30E0220F331F41E050E04C0F3C
:1012C0005D1F240F351FF9016081680F606840E0E1
:1012D0008EE595E028960FB6F894DEBF0FBECDBF21
:1012E000DF91CF910C942A0941E00E942A0981E004
:1012F00090E00895FB0101900020E9F73197AF01DC
:10130000461B570BDC01ED91FC910280F381E02D2F
:1013100009948F929F92AF92BF92EF92FF920F9398
:101320001F93CF93DF93CDB7DEB7A1970FB6F89495
:10133000DEBF0FBECDBF7C01FA01CB0119A2223066
:1013400008F42AE08E010F5D1F4F822E912CB12CE4
:10135000A12CBF01A50194010E945230F901CA01DC
:101360006A300CF5605DD8016E938D01232B242B20
:10137000252B79F790E080E0109721F0BD01C7019F
:101380000E947A09A1960FB6F894DEBF0FBECDBFBA
:10139000DF91CF911F910F91FF90EF90BF90AF9091
:1013A0009F908F900895695CDECF462F50E070E0EB
:1013B00060E02AE00C9489098F929F92AF92BF92CD
:1013C000CF92DF92EF92FF920F931F93CF93DF9311
:1013D0007C018B014C0182E0880E911C5701E5E0F5
:1013E000AE0EB11CD0E0C0E0F40161914F01C80124
:1013F0000E94D5096C016EE2C8010E94DA038C0DCF
:101400009D1DC80FD91F8A149B0471F7F7016581D0
:10141000C8010E94D5098C0F9D1FDF91CF911F91AC
:101420000F91FF90EF90DF90CF90BF90AF909F9083
:101430008F900895CF92DF92EF92FF920F931F93B8
:10144000CF93DF936B01770FEE08FF08F7FE1BC009
:10145000EC016DE20E94DA038C0144275527BA01A2
:101460004C195D096E097F092AE0CE010E948909A5
:10147000800F911FDF91CF911F910F91FF90EF90FF
:10148000DF90CF9008952AE0B701A601DF91CF91B8
:101490001F910F91FF90EF90DF90CF900C948909EE
:1014A0006BE58FE794E00E94DA030E94FE02AB0135
:1014B000BC012AE08FE794E00E94890988E690E069
:1014C0000C94CE04CF93DF93BC018FE794E00E948D
:1014D0007A09EC016DEC71E08FE794E00E947A09E3
:1014E0008C0F9D1FDF91CF910895CF93DF930E94C2
:1014F000CE04EC016DEC71E08FE794E00E947A0974
:101500008C0F9D1FDF91CF910895CF93DF93AC0196
:1015100070E060E02AE08FE794E00E948909EC0126
:101520006DEC71E08FE794E00E947A098C0F9D1FAB
:10153000DF91CF910895CF92DF92EF92FF92CF93F8
:10154000DF936C01990FEE08FF08F7FE23C06DE2F0
:101550008FE794E00E94DA03EC0144275527BA0193
:101560004C195D096E097F092AE08FE794E00E941B
:101570008909C80FD91F6DEC71E08FE794E00E94D4
:101580007A098C0F9D1FDF91CF91FF90EF90DF9034
:10159000CF9008952AE0B701A6018FE794E00E945A
:1015A0008909EC01E8CF6115710511F00C947A09F5
:1015B00090E080E00895EF92FF920F931F93CF93F6
:1015C000DF9300D000D000D0CDB7DEB78C017B0117
:1015D000DC0118968D919C91892BB1F10E94500AE3
:1015E0008BEF90E00E94CE04F801608571858FE753
:1015F00094E00E94D30A6AE38FE794E00E94DA0342
:10160000C7010E94850AD8018D919C911197189667
:101610006D917C91DC01ED91FC910088F189E02DC8
:10162000A701099521E0019709F020E0822F269675
:101630000FB6F894DEBF0FBECDBFDF91CF911F91E3
:101640000F91FF90EF9008950E94500A8AE091E078
:101650000E94CE04F80164818FE794E00E94D509CE
:101660006EE28FE794E00E94DA03D80115966C9140
:101670008FE794E00E94D5096EE28FE794E00E9424
:10168000DA03F80166818FE794E00E94D5096EE2E3
:101690008FE794E00E94DA03D80117966C918FE7E8
:1016A00094E00E94D5096DEC71E08FE794E00E9410
:1016B0007A09F80180819181DC01ED91FC91068429
:1016C000F785E02D2BEC31E03A832983D80114967D
:1016D0004D915D916D917C9117974B835C836D83E8
:1016E0007E83A701BE016F5F7F4F9BCFFB0180818F
:1016F00091810E94802F019779F481E090E00E940F
:10170000E90481E090E00E94E90481E080935203C3
:1017100080ED91E00C94620A81E090E00E94E9047F
:1017200090E080E00E94E9041092520384EE91E080
:10173000F1CFFB01808191810E94802F019779F484
:1017400090E080E00E94E90481E090E00E94E904DA
:1017500081E08093540388EF91E00C94620A90E05A
:1017600080E00E94E90490E080E00E94E904109289
:1017700054038BE092E0F1CFFB01808191810E94C4
:10178000802F019739F481E0809353038EE192E03A
:101790000C94620A1092530388E292E0F9CFFB01A5
:1017A000808191810E94802F019731F41092530320
:1017B00083E392E00C94620A8DE392E0FBCFAF9258
:1017C000BF92CF92DF92EF92FF920F931F93CF932E
:1017D000DF9300D000D0CDB7DEB78C016B017A016A
:1017E00080917E048333E9F45B016801C40ED51E49
:1017F000C016D106A9F10E94E8068FE00E94F30608
:10180000812F0E94F306802F0E94F3060F5F1F4F67
:1018100080E00E94F306F50181935F010E94DE06DD
:10182000E7CF843369F50E94E80619830A838F2D78
:101830008F778B83EC8264E070E0CE0101960E948A
:10184000C406A70170E060E0C6010E942831E114DF
:10185000F10421F0B701C6010E94C4060E94DE0611
:10186000C7010F900F900F900F90DF91CF911F91B4
:101870000F91FF90EF90DF90CF90BF90AF900895C1
:101880000E94E8060F3F110509F030F419820A831F
:101890001B8263E070E0D1CF17FD0BC019820A8371
:1018A00033E0169507953A95E1F7007E08600B83C3
:1018B000F0CFC80126E0969587952A95E1F7807EBE
:1018C00019830A830115104C18F480618B83E1CFD2
:1018D0008861FCCFCF93DF931F92CDB7DEB7209105
:1018E000EF0330E0322F2227260F371F90E0982F8A
:1018F000882741E050E0BE016F5F7F4F820F931F4A
:101900000E94DF0B89810F90DF91CF910895CF93D3
:10191000C82F462F61E070E00E94060861E070E089
:101920008C2F0E946A0C8111F9CFCF910895CF932B
:10193000C82F80E591E00E94E50168E070E08C2FFF
:10194000CF910C94870CCF93C82F80E591E00E9433
:10195000E50160E170E08C2FCF910C94870CCF9360
:10196000DF93EC01888D843020F40E94A30C84E086
:10197000888FDF91CF910895CF93C82F80E591E0B4
:101980000E94E50163E070E08C2FCF910C946A0C0B
:10199000CF93DF93EC018C858430D0F40E94BC0C93
:1019A000843189F0882379F0883169F021E08C3125
:1019B00059F4E881F9810084F185E02DCE01099583
:1019C00021E0892B09F420E0822FDF91CF91089547
:1019D00080E0FBCFCF92DF92EF92FF92CF93DF9325
:1019E000EC018C85843068F40E94970C0E94FE0202
:1019F0006B017C018C850E94BC0C811109C084E0C4
:101A00008C87DF91CF91FF90EF90DF90CF9008957A
:101A100061E070E080E090E00E94CB020E94FE0254
:101A2000AB01BC014C195D096E097F098D859E854E
:101A3000B0E0A0E0481759076A077B07D8F28C8509
:101A40000E94A30CDCCFCF93FC01C08D80E591E018
:101A50000E94E50160E270E08C2F0E94870C62E03A
:101A600070E08C2F0E946A0C84FD16C062E070E06A
:101A70008C2F0E946A0C83FF0AC048E162E070E08C
:101A80008C2F0E94060880E090E0CF91089580E5B9
:101A900091E00E94E501E3CF40E162E070E08C2F2D
:101AA0000E94060881E0F0CFCF93DF931F92CDB75D
:101AB000DEB741E050E0BE016F5F7F4F90E080E015
:101AC0000E94DF0B89810F90DF91CF910895CF9312
:101AD000DF93C4E1D0E00E94540D882361F061E0FF
:101AE00070E080E090E00E94CB022197A1F780E0B7
:101AF000DF91CF91089581E0FBCF1F93CF93DF93C8
:101B00001F92CDB7DEB7182F80E591E00E94E50166
:101B1000812F0E94BD0727E0129FF0011124EE598A
:101B2000FB4F22813381377041E050E0BE016F5F8F
:101B30007F4F820F931F0E94DF0B89810F90DF91EF
:101B4000CF911F910895FC01808D843040F4218D48
:101B5000328D232B21F00E947D0D90E008958FEFB0
:101B60009FEF0895CF93DF93FC012485243028F064
:101B70008FEF9FEFDF91CF910895EC010190F081FD
:101B8000E02D0084F185E02D0995892B89F38C8562
:101B90000E947D0D90E0EECFDA01E091EF03F0E0DE
:101BA000FE2FEE27E60FF71F90E0982F8827A90158
:101BB000BD018E0F9F1F0C94DF0B8F929F92AF92EF
:101BC000BF92CF92DF92EF92FF921F93CF93DF935A
:101BD000CDB7DEB72C970FB6F894DEBF0FBECDBFE2
:101BE00020917E0414E0222339F16B017C0180E511
:101BF00091E00E94E5015E0127E0A20EB11C4501C3
:101C000010E063E070E0812F0E946A0CF401819380
:101C10004F01882349F11F5F143099F710E0F50157
:101C200081915F018D31D9F08831C9F08A518230BC
:101C3000B0F01F5F143099F7812F2C960FB6F894EF
:101C4000DEBF0FBECDBFDF91CF911F91FF90EF9010
:101C5000DF90CF90BF90AF909F908F90089560E1FC
:101C600070E0812F0E94870CA12EB12C83EE93E0AF
:101C70000197F1F742E870E060E0812F0E940608CA
:101C80004FEF62E070E0812F0E940608B601C11498
:101C9000D10491F480912101909122010196811546
:101CA000F0EC9F0708F45CC090932201809321011F
:101CB0006091210170912201812F0E94F10786E03D
:101CC000E5E3F1E0DE01119601900D928A95E1F7CE
:101CD000F70183818F778C8384818D8385818E83C7
:101CE000A7014E5F5F4F24E030E06CE070E0812F91
:101CF0000E94CB07B601812F0E94DC0726E030E06E
:101D0000AE014F5F5F4F66E070E0812F0E94CB070E
:101D100061E070E0812F0E94870C27E02A9DC001BE
:101D20002B9D900D11249C012E593B4F7901F901F7
:101D30001182108222E030E0AE01455F5F4F68E221
:101D400070E0812F0E94CC0D8B859C859827892778
:101D50009827F701938382831682158214826CCFB1
:101D600080E090ECA1CFCF92DF92EF92FF920F93A1
:101D70001F93CF93DF9300D000D000D0CDB7DEB754
:101D80008C016B017A01FC01808D843010F40E947B
:101D9000A30C8BEC91E09A838983F6018281938175
:101DA000A481B5818B839C83AD83BE83B701CE01B3
:101DB00001960E94DD0DF801808F8430A0F4F58635
:101DC000E486128E118E81E026960FB6F894DEBF5F
:101DD0000FBECDBFDF91CF911F910F91FF90EF907C
:101DE000DF90CF90089580E0EFCFAF92BF92CF9277
:101DF000DF92EF92FF920F931F93CF93DF9300D068
:101E000000D000D0CDB7DEB7082F6B0180E591E0A0
:101E10000E94E5019E012F5F3F4F7901590110E0BB
:101E200063E070E0812F0E946A0CF50181935F01ED
:101E3000882341F11F5F143099F710E0F701819179
:101E40007F018D31D1F08831C1F08A518230A8F004
:101E50001F5F143099F7812F26960FB6F894DEBFD6
:101E60000FBECDBFDF91CF911F910F91FF90EF90EB
:101E7000DF90CF90BF90AF90089560E170E0812F28
:101E80000E94870CE12EF12C83EE93E00197F1F78D
:101E9000402F70E060E0812F0E9406084FEF62E063
:101EA00070E0812F0E940608B601CD2889F4809148
:101EB00021019091220101968115F0EC9F0798F184
:101EC0009093220180932101609121017091220160
:101ED000812F0E94F10761E070E0812F0E94870C42
:101EE00027E02E9DC0012F9D900D11249C012E599D
:101EF0003B4F7901F9011182108222E030E0AE01FE
:101F00004B5F5F4F68E270E0812F0E94CC0D8D81A6
:101F10009E81982789279827F701938382831682C9
:101F20001582148298CF80E090ECCACFCF92DF92D6
:101F3000EF92FF921F93CF93DF93EC017B016A0135
:101F40008C85843048F40E94BC0C882319F08C8561
:101F50000E94970C84E08C87F70182819381A48191
:101F6000B5810097A105B10551F490E080E0DF91C3
:101F7000CF911F91FF90EF90DF90CF9008958F3F0A
:101F80009F4FAF4FBF4F89F380917E04811103C0F3
:101F900084E08C87EACF70E060E081E20E94F50E79
:101FA000182F8C87843008F780E591E00E94E501C6
:101FB000A7014E5F5F4F24E030E06CE070E0812FBE
:101FC0000E94CB07B601812F0E94DC0764E070E01D
:101FD000812F0E94870C0E94FE026B017C018C8580
:101FE0000E94BC0C873109F18C31F9F0882309F487
:101FF000BCCF0E94FE02AB01BC014C195D096E0909
:102000007F098D859E85B0E0A0E084179507A6071F
:10201000B70738F061E070E080E090E00E94CB020A
:10202000DECF8C850E94A30CB3CF81E090E09FCFE0
:102030000F931F93CF93DF93EC018B01888D843036
:1020400010F40E94A30C80917E04811107C094E0DB
:10205000988FDF91CF911F910F910895B80182E081
:102060000E94F50E888F843030F41D870C871A8EFD
:10207000198E81E0EECF80E0ECCF7F928F929F921D
:10208000AF92BF92CF92DF92EF92FF920F931F9386
:10209000CF93DF9300D0CDB7DEB7782E8B014A0106
:1020A000590122E030E0AE014F5F5F4F64E270E023
:1020B0000E94CC0DE980FA80FE24EF24FE24E00E7D
:1020C000F11E9701377040917E04072D10E04333D5
:1020D00009F042C0085F1F4F102F0027110F110F8A
:1020E000110FC901800F911F4733C9F1A9014A0D92
:1020F0005B1D4130584098F160E078E06B01C21AF6
:10210000D30AA601B4010E94FA06A5014C195D0983
:10211000B4016C0D7D1DC8010E94FA06EA0CFB1C7F
:10212000F982EA8222E030E0AE014F5F5F4F64E265
:1021300070E0872D0E94CB070F900F90DF91CF9119
:102140001F910F91FF90EF90DF90CF90BF90AF90D5
:102150009F908F907F900895005F1F4FBDCFA50186
:10216000B401DACFEF92FF921F93CF93DF9300D0A9
:10217000CDB7DEB7182F22E030E0AE014F5F5F4FE2
:1021800060E270E00E94CC0DE980FA80FE24EF242A
:10219000FE2422E030E0AE014F5F5F4F60E270E06E
:1021A000812F0E94CC0D89819A81982789279827B1
:1021B000E816F90689F487E0189FF0011124EE591A
:1021C000FB4FF582E482C7010F900F90DF91CF9112
:1021D0001F91FF90EF9008957C01DBCF1F93CF9369
:1021E000DF93182F80E591E00E94E501812F0E9486
:1021F000B210EC0163E070E0812F0E946A0C87311D
:1022000021F08C3111F0D0E0C0E0CE01DF91CF9110
:102210001F910895CF93DF93EC018C85843060F497
:102220000E94BC0C873111F08C3131F48C850E94F6
:10223000EE108115984088F3DF91CF910895FC014D
:102240008485843010F40C94EE1090E080E00895C2
:102250009F92AF92BF92CF92DF92EF92FF920F9335
:102260001F93CF93DF938C015B01942EE52EFC012D
:10227000C688D788F08C80E591E00E94E5018F2D1B
:102280000E94B210C92DDE2D8C179D0708F4EC01B9
:102290009E01A501B6018F2D0E943D10F80186898F
:1022A00097898C0F9D1F978B868BCE01DF91CF91E5
:1022B0001F910F91FF90EF90DF90CF90BF90AF9064
:1022C0009F9008958F929F92AF92BF92CF92DF928C
:1022D000EF92FF920F931F93CF936C015B018A01E2
:1022E000FC01C485C430F0F57A014130584018F043
:1022F000E12C88E0F82E80E591E00E94E5018C2F2A
:102300000E94B2104C0163E070E08C2F0E946A0CB6
:10231000873111F08C3149F58E149F0460F380E50C
:1023200091E00E94E5019701A50170E060E08C2F2B
:102330000E943D1060E270E08C2F0E94870C62E0EA
:1023400070E08C2F0E946A0C84FD17C063E070E07F
:102350008C2F0E946A0C81110BC081E090E0F60185
:102360009383828310E000E010C0F12CE12CD7CFE2
:1023700080E591E00E94E501E2CF40E162E070E09B
:102380008C2F0E940608EF2841F3C801CF911F91BE
:102390000F91FF90EF90DF90CF90BF90AF909F9004
:1023A0008F900895FF920F931F93CF93DF9300D0E8
:1023B000CDB7DEB7F82E22E030E0AE014F5F5F4FC1
:1023C00066E270E00E94CC0D09811A811027012776
:1023D000102722E030E0AE014F5F5F4F66E270E011
:1023E0008F2D0E94CC0D89819A8198278927982763
:1023F0000817190749F4C8010F900F90DF91CF918A
:102400001F910F91FF9008958C01E3CF1F93CF93FD
:10241000DF93182F87E0189FE0011124CE59DB4F7E
:1024200088819981009761F480E591E00E94E5013F
:10243000812F0E94D2112E81821B9109998388835A
:10244000DF91CF911F910895FC018485843010F4B1
:102450000C94061290E080E008954F925F927F9274
:102460008F929F92AF92BF92CF92DF92EF92FF92A4
:102470000F931F93CF93DF9300D0CDB7DEB7782EA5
:102480006B014A01A82EB12C27E0829FC0011124C4
:10249000FC01EE59FB4F7F010081118180E591E045
:1024A0000E94E5010815190554F4872D0E94D211E8
:1024B000F70126818C01021B11091183008301158C
:1024C000110529F563E070E0872D0E946A0C8431C4
:1024D00059F0882349F001E010E08C3111F410E04C
:1024E00000E0119501951109C8010F900F90DF913F
:1024F000CF911F910F91FF90EF90DF90CF90BF9001
:10250000AF909F908F907F905F904F90089580162E
:1025100091060CF4840187E08A9DF0018B9DF00DFB
:102520001124EE59FB4FE280F380C114D10451F124
:102530002701F7E05F22872D0E94BD07840D951DBE
:1025400020917E04273309F453C09801240D351DD2
:102550002130384008F44CC020E038E049018418AC
:102560009508A401B6010E94DF0B2601480C591CF6
:102570006801C818D908872D0E94BD07A601B201BD
:102580000E94DF0BE00EF11E87E08A9DF0018B9D1B
:10259000F00D1124EE59FB4FF382E282208131814C
:1025A000201B310B318320838681800F912F911D59
:1025B0008A3F910510F4232BF1F487E08A9DF00106
:1025C0008B9DF00D1124EE59FB4F1682F982EA82A1
:1025D00022E030E0AE014F5F5F4F68E270E0872D90
:1025E0000E94CB0760E470E0872D0E94870C7CCFAF
:1025F000A801B601C5CF868377CFCF93DF93FC01C7
:10260000218D328D2115310529F48FEF9FEFDF9158
:10261000CF910895EC01808D4217530708F0A9016E
:102620000E942D121816190684F7298D3A8D281B41
:10263000390B3A8F298FEBCF0F931F93CF93DF93F3
:102640001F92CDB7DEB7FC01218D328D232B41F4D3
:102650008FEF9FEF0F90DF91CF911F910F91089512
:102660008C0141E050E0BE016F5F7F4FFC01808D27
:102670000E942D12181619065CF7F801818D928DB3
:102680000197928F818F898190E0E4CFCF93DF9380
:102690001F92CDB7DEB741E050E0BE016F5F7F4FC4
:1026A000FC0184850E942D121816190634F48981C4
:1026B00090E00F90DF91CF9108958FEF9FEFF9CFCA
:1026C000FC018485843010F40C942D1290E080E09D
:1026D00008950F931F93CF93DF9300D0CDB7DEB74C
:1026E000FC0124852430E0F48C0180E591E00E9417
:1026F000E50122E030E0AE014F5F5F4F60E170E046
:10270000F80184850E94CC0D89819A8198278927B8
:1027100098270F900F90DF91CF911F910F910895FF
:1027200090E080E0F6CF0F931F93CF93DF9300D01C
:10273000CDB7DEB7FC0124852430E0F48C0180E5C0
:1027400091E00E94E50122E030E0AE014F5F5F4F73
:1027500064E070E0F80184850E94CC0D89819A8143
:102760009827892798270F900F90DF91CF911F917D
:102770000F91089590E080E0F6CFDC018BEC91E0C2
:102780008D939D9384E0FB0101900D928A95E1F772
:102790000895EF92FF920F931F93CF93DF9300D092
:1027A00000D0CDB7DEB78C017B01FB01848584307E
:1027B000A8F08BEC91E0F801918380831282138260
:1027C00014821582C8010F900F900F900F90DF9127
:1027D000CF911F910F91FF90EF90089580E591E0C8
:1027E0000E94E50124E030E0AE014F5F5F4F6CE0F6
:1027F00070E0F70184850E94CC0DBE016F5F7F4FB2
:10280000C8010E94BD13DECF0F931F93CF93DF93B8
:10281000CDB7DEB728970FB6F894DEBF0FBECDBF99
:102820008C01D80159964D915C915A9741155105EB
:1028300051F0ED91FC91048CF58DE02D70E060E09D
:10284000C8010995EECFF801808D0E940612892BF0
:10285000B1F148E050E0BE016F5F7F4FD80158965C
:102860008C910E942D1218161906F4F4D801509676
:1028700084E0FE01319601900D928A95E1F78D81F9
:1028800090E0982F88272E81820F911DF801958B5B
:10289000848B8F81282F30E0322F22278885820F6A
:1028A000932F911D928F818F28960FB6F894DEBFDB
:1028B0000FBECDBFDF91CF911F910F91089590E092
:1028C00080E0F2CF4F925F926F927F928F929F92B1
:1028D000AF92BF92CF92DF92EF92FF920F931F932E
:1028E000CF93DF93CDB7DEB763970FB6F894DEBF13
:1028F0000FBECDBF7C016B013A01FB0120E090E0EF
:1029000080E06AE03191332309F461C040ED430F68
:102910004A3008F04DC0689FA001699F500D1124F6
:10292000CA01C097830F911D37FD9A958F3F91057E
:1029300049F340F3F70142815381648175818091AD
:10294000540590915505A0915605B091570548172B
:1029500059076A077B0709F40DC28701085F1F4FFB
:102960000E94FE026F7077277C5FC8010E941810DA
:10297000813009F004C28BEC91E09A838983F701DE
:1029800082819381A481B5818B839C83AD83BE8337
:1029900045E350E0BE016F5F7F4FC8010E945C08B5
:1029A000892BA9F5D12CC12CC8010E94AF0C17C0EE
:1029B0003E3209F0BFCF233009F4BCCFD301A20FC0
:1029C000B11D12968C932F5F90E080E09BCF233057
:1029D00009F0B0CFF3018583CC24C394D12CC60178
:1029E00063960FB6F894DEBF0FBECDBFDF91CF91D7
:1029F0001F910F91FF90EF90DF90CF90BF90AF901D
:102A00009F908F907F906F905F904F9008950E945D
:102A1000FE02F7017783668342E050E0B7016A5F08
:102A20007F4FC8010E94281181E090E09A8389833A
:102A300042E050E0BE016F5F7F4FC8010E94281145
:102A400080E091E09A83898342E050E0BE016F5FAD
:102A50007F4FC8010E9428111A82198242E050E07B
:102A6000BE016F5F7F4FC8010E94281142E050E015
:102A7000BE016F5F7F4FC8010E94281142E050E005
:102A8000BE016F5F7F4FC8010E9428115601F601F9
:102A90008081882301F16501F60181912F0188234E
:102AA00011F08E32B1F446018A189B0818141904EB
:102AB00074F48D8641E050E0BE01635F7F4FC80132
:102AC0000E942811A401B501C8010E9428115201D9
:102AD000DECF6201E1CF1D8641E050E0BE01635FC1
:102AE0007F4FC8010E942811C12CDD24D394DA82C3
:102AF000C98242E050E0BE016F5F7F4FC8010E9473
:102B00002811DA82C98242E050E0BE016F5F7F4F38
:102B1000C8010E942811C8010E94230D892B09F4C5
:102B200041CFF3E0AF2EB12C230122E0420E511C25
:102B3000D4C0F7014281538164817581808D918D6C
:102B4000A28DB38D481759076A077B0709F008C1A2
:102B5000848D958DC59709F003C181A192A15DEF88
:102B6000C52EDD24DA940C970CF4ADC04CE050E097
:102B7000BE016F5F7F4FC8010E94FD128B819C8157
:102B80009827892798279A8B898BF7014681578147
:102B900029813A814217530709F0E7C097FFE5C042
:102BA0008F7092703BEFC32EDD24DA94892B09F0ED
:102BB0008AC06F8078847624672476242AEFC22E18
:102BC000DD24DA946114710409F47DC0D12CC12C88
:102BD0008D819E81982789279827C816D906F8F4F1
:102BE00041E050E0BE01635F7F4FC8010E94FD12CB
:102BF0004D85442331F050E070E060E0C8010E9450
:102C0000FD128D858111ECCF44E050E070E060E072
:102C1000C8010E94FD12FFEFCF1ADF0AD9CF912C15
:102C2000812C41E050E0BE016D5E7F4FC8010E94E3
:102C3000FD124B89842F807C09F06CC0442331F055
:102C400050E070E060E0C8010E94FD128B898111A4
:102C5000E8CF42E050E0BE01615F7F4FC8010E94B3
:102C6000FD1242E050E0BE01635F7F4FC8010E9449
:102C7000FD1244E050E070E060E0C8010E94FD12E7
:102C800042E050E0BE016F5E7F4FC8010E94FD121E
:102C90008F85988949895A898115914009F043C0E7
:102CA000CD84DE84DC24CD24DC2481E0C816D1046C
:102CB000D1F54115544009F04AC044E050E0B2015A
:102CC000C8010E94FD1221E0A21AB10809F46CCEDD
:102CD000FFEFCF16DF0609F067CE0E94FE023B0130
:102CE0004C01C8010E940414181619060CF421CFD7
:102CF0000E94FE02661977098809990969387341AB
:102D00008105910548F562E370E080E090E00E9463
:102D1000CB02E7CF41E050E070E060E0C8010E94E4
:102D2000FD121B8A93CF54274527542770E060E09B
:102D3000C8010E94FD12FFEF8F1A9F0A68147904E0
:102D400009F06FCF96EFC92EDD24DA94BCCFE7EF00
:102D5000CE2EDD24DA94B7CFCC24CA94DC2CB3CFAA
:102D60006EEFC62EDD24DA94AECF4CEFC42EDD24F8
:102D7000DA94A9CF8EEFC82EDD24DA9430CED12C90
:102D8000C12C2DCECF92DF92EF92FF920F931F9323
:102D9000CF93DF93CDB7DEB7AF970FB6F894DEBF12
:102DA0000FBECDBF7C016A010BEC11E01A830983D1
:102DB0001C861B8688EE93E0A0E0B0E08D879E879E
:102DC000AF87B88B8FE391E09A878987188F0F8B35
:102DD000198E1A8E1B8E1C8E84E089A31BA70AA74E
:102DE0001CA61DA61EA61FA6809148059091490508
:102DF000A0914A05B0914B058EA39FA3A8A7B9A7A0
:102E00008B839C83AD83BE8318861F82AE01465D93
:102E10005F4FCE0101960E94621481309105B1F49A
:102E2000D701ED91FC910488F589E02D1DA30CA339
:102E30008CA59DA5AEA5BFA58EA39FA3A8A7B9A746
:102E4000A601BE016C5D7F4FC7010995AF960FB615
:102E5000F894DEBF0FBECDBFDF91CF911F910F91D0
:102E6000FF90EF90DF90CF900895CF92DF92EF9296
:102E7000FF920F931F93CF93DF93CDB7DEB7AF973A
:102E80000FB6F894DEBF0FBECDBF8C016B017A0187
:102E90008BEC91E09A8389831B821C821D821E82A7
:102EA0001C861B8648EE53E060E070E04D875E872D
:102EB0006F87788B2FE331E03A872987988F8F8B44
:102EC000198E1A8E1B8E1C8E24E029A39BA78AA71D
:102ED0001CA61DA61EA61FA6D8011C968C91843088
:102EE00060F40E94BC0C882321F0F80184850E94C4
:102EF000970C84E0D8011C968C93809148059091A2
:102F00004905A0914A05B0914B058EA39FA3A8A7A0
:102F1000B9A78B839C83AD83BE8318861F82AE01C5
:102F2000465D5F4FB601CE0101960E946214009784
:102F3000C1F0D801ED91FC910684F785E02D8BEC72
:102F400091E09DA38CA38CA59DA5AEA5BFA58EA346
:102F50009FA3A8A7B9A7A701BE016C5D7F4FC801B9
:102F60000995AF960FB6F894DEBF0FBECDBFDF91C7
:102F7000CF911F910F91FF90EF90DF90CF90089528
:102F80000F931F93CF93DF93EC01FB01019000207F
:102F9000E9F78F01061B170B8A819B81A801480F57
:102FA000591F2C813D812417350768F0288139810C
:102FB000A801820F931F0E941F314A815B81400F3D
:102FC000511F5B834A83DF91CF911F910F91089529
:102FD00085ED8093BC008091C3039091C403A091C0
:102FE000C503B091C6030796A11DB11D23E0B69598
:102FF000A795979587952A95D1F72091BC0024FD38
:1030000003C01092C10308954091C3035091C403BB
:103010006091C5037091C603452B462B472B69F37E
:103020000097A105B10541F02AE22A95F1F700C009
:103030000197A109B109E1CF8091C2030C940E055B
:103040003F924F925F926F927F928F929F92AF9238
:10305000BF92CF92DF92EF92FF920F931F93CF9385
:10306000DF93CDB7DEB7EA970FB6F894DEBF0FBE99
:10307000CDBF7C012A013B0169010E94FE024B0188
:103080005C0187010D5B1F4FC8010E9404141816D4
:1030900019069CF00E94FE02681979098A099B09A9
:1030A000461657066806790608F466C162E370E0C2
:1030B00080E090E00E94CB02E7CF42E250E0BE0108
:1030C0006F5F7F4FC8010E94FD1289818230D1F06D
:1030D000312C832DEA960FB6F894DEBF0FBECDBF1C
:1030E000DF91CF911F910F91FF90EF90DF90CF90E4
:1030F000BF90AF909F908F907F906F905F904F9018
:103100003F900895F801848995898334910501F7EA
:103110006D817E818F8198850E9493304B015C0187
:10312000F60180829182A282B38246E050E0B7012C
:10313000685F7F4FCE014D960E941231892B41F678
:10314000F70180819181A281B38188169906AA0630
:10315000BB0608F4BDCF84819581A681B78188150F
:103160009905AA05BB0508F4B3CF89899A89AB896B
:10317000BC8986879787A08BB18B4EEC50E070E0BE
:1031800060E0C8010E94FD12312CC701829698AB05
:103190008FA7F701B696FAABE9AB08969CAB8BAB61
:1031A00067019AE1C90ED11CBD96FEABEDABC7011C
:1031B000429698AF8FABFD97FAAFE9AF4701FEE1BA
:1031C0008F0E911CF801818D928D181619060CF046
:1031D00080CFC8010E941C138333910509F4B2C04B
:1031E00014F58130910509F464C044F4892B51F33E
:1031F000C8010E941C13AC01552775C0833091058E
:1032000009F462C00697A1F7C8010E941C13B82EEA
:1032100044E050E0B401C8010E94FD12EB2DE450DF
:10322000FF0BAF0160C08A33910509F45FC084F5DC
:1032300085339105B1F1C697D9F6C8010E941C13D8
:103240005C01B601CE0189960E94BD138BA59CA599
:10325000ADA5BEA5892B8A2B8B2BB1F0EDA9FEA9BC
:103260004080518062807380B601CE0183960E94B7
:10327000BD138DA19EA1AFA1B8A5A5014816590601
:103280006A067B0609F0B8CF44E050E0B60118C0EA
:103290008B33910509F440C08F3F910509F492CF1B
:1032A000A7CFC8010E941C13C8010E941C13382E0E
:1032B00089CFC8010E941C1344E050E06FA978AD8B
:1032C000C8010E94FD127ECFC8010E941C13B82EB7
:1032D00044E050E069AD7AADC8010E94FD128B2D2B
:1032E0008450990BAC0170E060E0EACFC8010E9405
:1032F0001C1344E050E069A97AA9C8010E94FD129C
:10330000F70166A177A180A591A50E94933066A3DD
:1033100077A380A791A756CFC8010E941C1344E051
:1033200050E06BA97CA9C8010E94FD12F70162A5BB
:1033300073A584A595A50E94933062A773A784A75F
:1033400095A740CFC8010E941C1344E050E06FA530
:1033500078A9C8010E94FD12F70162A173A184A19E
:1033600095A10E94933062A373A384A395A366A73B
:1033700077A780AB91AB26CF33243A94AACE7F9225
:103380008F929F92AF92BF92CF92DF92EF92FF9275
:103390000F931F93CF93DF93CDB7DEB7A6970FB6EA
:1033A000F894DEBF0FBECDBF8C01762E942E852EF5
:1033B00020E2A22ECE0101967C01DC01EA2D1D92B5
:1033C000EA95E9F76801F3E4CF0ED11C8BEC91E0AC
:1033D0009AA389A38FEF8BA38CA38DA38EA343E421
:1033E00050E0BE016F5D7F4FC6010E945C080196F0
:1033F00009F4BFC081E089838A8386E0B82EBB824E
:103400001C82D80114966D917D918D919C91179796
:103410000E9493306D837E838F83988789869A86F6
:1034200080E890E09C878B874CE150E0B701C601B3
:103430000E942811FE0137968AE1DF011D928A95CC
:10344000E9F74801B8E08B0E911CF401D701019017
:103450000D92BA94E1F740E150E0B701C6010E9435
:103460002811F7011192AA94E9F796E0A92EB12C40
:1034700040E250E0B701C6010E942811F1E0AF1A06
:10348000B108B1F783E6898392E89A8393E59B8339
:103490008C8385E38D8381E08E837F829DE3988793
:1034A00097E099878A8786E0F401DE011B960190F8
:1034B0000D928A95E1F78CE0898B8A8B68E472E043
:1034C000CE0143960E943831D8011B966C91CE01F3
:1034D00049960E94E801F8016485CE014B960E944E
:1034E000E801D8011D966C91CE014D960E94E8012D
:1034F0004EE150E0B701C6010E942811B3E07B12F3
:103500001EC082E3898384E08A83F80196859B83C9
:1035100097859C8390899D8391899E8396E39F8361
:103520008887828D8987838D8A87848D8B87858D17
:103530008C874CE050E0B701C6010E94281187E358
:10354000898386E08A8391E09B8393E09C838D83CB
:103550008FE08E838AE38F838BE388878FEF898761
:1035600049E050E0B701C6010E942811C6010E943F
:10357000230DA6960FB6F894DEBF0FBECDBFDF9128
:10358000CF911F910F91FF90EF90DF90CF90BF9060
:10359000AF909F908F907F9008950F931F93CF933C
:1035A000DF93CDB7DEB728970FB6F894DEBF0FBE16
:1035B000CDBF8C01CB014AE0BE016F5F7F4F0E94FF
:1035C000CE2FBE016F5F7F4FC8010E94C0172896A3
:1035D0000FB6F894DEBF0FBECDBFDF91CF911F9124
:1035E0000F9108953F924F925F926F927F928F92C8
:1035F0009F92AF92BF92CF92DF92EF92FF920F9382
:103600001F93CF93DF93CDB7DEB7A1970FB6F89492
:10361000DEBF0FBECDBF5C010DB71EB719A308A357
:1036200060E070E0CB010E94CB02D50191968D91B4
:103630009C919297912C029709F417C490968C91C3
:1036400090978F5F90968C9390975E962D913C917A
:10365000232B19F09924939401C48330D8F7F501F2
:10366000828593850E94D208882309F4D7C38E01EE
:103670000F5F1F4F3801D5011A96ED91FC918081A3
:103680009181DC01ED91FC910084F185E02D09959B
:10369000181619060CF0C2C3D5011A96ED91FC91CB
:1036A00045E050E0BE01695E7F4F808191810E94BC
:1036B0008A03009701F3059709F074C0888D998DEE
:1036C000982789279827998F888FEA8CFB8CFE246E
:1036D000EF24FE24FB8EEA8E892B09F463C08F89C8
:1036E000811174C00E94FE02F501608B718B828B88
:1036F000938B21A132A18A8D9B8D232B09F062C06F
:10370000288D398D2130310509F05CC08930910553
:10371000E1F1883C910519F0049709F048C00E9436
:10372000500A81E192E00E94CE04D50150964D915D
:103730005D916D917C91539758968D919D910D90CF
:10374000BC91A02D481B590B6A0B7B0B2AE08FE71D
:1037500094E00E9489098CE092E00E94750AF501CC
:1037600080899189A289B389808F918FA28FB38F2D
:1037700001E010E012A301A3C5010E94B92560E099
:1037800070E0CB010E94CB0276CF0E94500A8DE3FD
:1037900093E00E94750A83E090E0D50192969C9395
:1037A0008E939197D5011A968D919C9154C30E9446
:1037B000500A86E293E00E94CE048A8D9B8D0E947F
:1037C000850AF0CF059709F056CFECCFB1E0EB16A4
:1037D000FB0690F00E94500A85E193E00E94CE041F
:1037E0008A8D9B8D0E94850AF50112A211A2828505
:1037F00093850E94E5083FCF8DB69EB6C70101961E
:103800000DB71EB7081B190B0FB6F8941EBF0FBEDD
:103810000DBF0F5F1F4FD5011A96ED91FC91A701C7
:10382000B801808191810E948A038E159F0509F05D
:1038300064C0EA8DFB8DE00FF11F10820E94FE0232
:10384000F501608B718B828B938B8F89843109F4A6
:10385000C7C0E8F48F3009F4C3C0813109F4B2C2A3
:10386000863009F0D3C2488D598DD12CC12CF12C52
:10387000E12C08EC10E030E020E060E0C5010E949F
:103880003E200FB6F8949EBE0FBE8DBEF4CE893298
:10389000F1F0873309F4ABC28D3109F0B7C281A1D1
:1038A00092A1892B01F70E94500A8FE093E00E94B9
:1038B000750A01E010E0F50112A301A3C5010E9401
:1038C000B92560E070E0CB010E94CB02CCCF8685A9
:1038D0009785892B39F480E490E00E94B72DF5019B
:1038E00097878687EA8CFB8CE00EF11E1A8309838A
:1038F000FC82EB820E151F0530F00FB6F8949EBEC9
:103900000FBE8DBE4FCF40E450E0B801D5011E96EA
:103910008D919C910E943F31D5011E96ED91FC91B5
:1039200017AEC3010E949725FC018081918100E5BB
:1039300010E08E159F0570F489819A81009709F433
:103940004BC02B813C818217930708F045C00E9431
:103950009E2F8B010E94500A8FEF92E00E94CE04AE
:10396000D5011E966D917C918FE794E00E94D30A59
:103970006AE38FE794E00E94DA03C8010E94850A97
:10398000F501828593850E94E508D5011A96ED918F
:10399000FC911B971E968D919C911F979187808714
:1039A0001387028792961C921E9291970E94FE02A4
:1039B000DC01CB0188589341A109B109F501848B41
:1039C000958BA68BB78B808B918BA28BB38B808FC3
:1039D000918FA28FB38F55CF60E070E0CB01B9CF4C
:1039E000888D998DD5015F969C938E935E974A8CB6
:1039F0005B8C6801C40CD51C1D8F0C8FDF8ECE8EA6
:103A00000C151D0508F05EC1F801E080F180CE01C3
:103A10004C960E949725DC018D919C918C159D05FB
:103A200008F050C18C8D9D8DFC012081213459F40A
:103A300001960E94802F4EE0342E380E069744F0F7
:103A400033243A9405C0CE014C960E94AA25382E04
:103A5000F6E7EF16F2E7FF0609F457C140F531E645
:103A6000E31632E7F30609F4EFC044E6E41642E752
:103A7000F40609F483C050E7E5165DE6F50609F0A3
:103A80008AC18C8D9D8D8C159D0508F01BC1FC0194
:103A90002081213409F03FC001960E94802F3EE032
:103AA000F32EF80E0697E4F1FF24FA9439C084E669
:103AB000E81687E7F80609F4ACC096E7E91697E739
:103AC000F90609F43AC1A1E6EA16A7E7FA0609F0F1
:103AD00062C1CE014C960E949725DC018D919C918C
:103AE0008C159D0508F0EEC061E0832D0E94550203
:103AF000CE014C960E94AA258C0161E0832D0E9484
:103B000055020115110509F49AC00F3F110509F07E
:103B1000B4C061E095C0CE014C960E94AA25F82E53
:103B2000CE014C960E9497250C8D1D8D6FE472E09E
:103B3000C8010E942F3160E0892B79F062E572E0C4
:103B4000C8010E942F31892B39F066E572E0C80167
:103B50000E942F31892B49F461E08F2D0E9455027C
:103B6000CE014C960E9497258CCF6AE572E0C80181
:103B70000E942F31892BA1F762E0EFCF7A8A698A00
:103B80001C8A1B8A00E110E01E8B0D8B6DE572E034
:103B9000CE0141960E94C017032D10E0B801CE015E
:103BA00041960E94CD1AF801EF5AFD4F8491F80119
:103BB000E35CFD4FF490075D1D4FF801049160E058
:103BC00070E0002389F081110E94FE01E02FF0E0F7
:103BD000EE0FFF1FE15EFD4FA591B491EC91FE2227
:103BE00061E070E009F460E0CE0141960E94CD1AD8
:103BF0000B891C890150110929893A89D12CC12CC2
:103C0000F12CE12C50E040E064E1C5010E943E202F
:103C100059C0CE014C960E949725DC018D919C9154
:103C20008C159D0508F04EC061E0832D0E94550261
:103C3000CE014C960E94AA2561E0892B09F460E030
:103C4000832D0E9427023EC07A8A698A1C8A1B8AB9
:103C5000E0E1F0E0FE8BED8B60E672E0CE01419694
:103C60000E94C017632D70E0CE0141960E94CD1ACC
:103C7000832D0E949102BC01B7CFE32DF0E0EF5AF3
:103C8000FD4FE491E33039F148F4E130B9F0E2302E
:103C9000E9F0003811050CF03CCFD1CFE73029F125
:103CA000E83059F1E430A9F7809180008062809378
:103CB000800010938B0000938A0004C084B5806854
:103CC00084BD07BDF501178E168EDBCD84B58062ED
:103CD00084BD08BDF7CF809180008068809380000C
:103CE0001093890000938800EDCF8091B000806828
:103CF0008093B0000093B300E5CF8091B000806264
:103D00008093B0000093B400DDCFE32DF0E0FA83A0
:103D1000E983BFE1B315B0F2EE0FFF1FEB59FD4F82
:103D2000259134912115310569F2E1E0243E3E07E9
:103D300049F2C301F9010995C5CFCE014C960E9405
:103D400097258C8D9D8D9C01201B310B421A530AA7
:103D50009A8389835C824B825E824D82E32DF0E000
:103D6000FA8BE98B0FE1031508F4ACCFEE0FFF1FC0
:103D7000EB55FD4F259134912115310509F4A2CF62
:103D800011E0233E310709F49DCFB301CE014196E6
:103D9000F901099597CF0E94500A85EE92E00E94A2
:103DA000CE04C8010E94620AD5015E964D915C91D5
:103DB000D12CC12CF12CE12C02E010E030E020E00D
:103DC00060E023CF8A8D9B8D800F911F1A8309831A
:103DD0009C838B830817190708F053CDC3010E94F9
:103DE0009725D5015F961C921E925E974ACD8A8DCB
:103DF0009B8D892B09F445CD0E94500A86EF92E0F5
:103E00000E94CE04C8010E94620A3BCDF50112A2B5
:103E100011A2828593850E94E50833CD0E94FE029F
:103E20002B013C01F501828593850E94D208D501C2
:103E300091962D913C9192972130310509F094C0D3
:103E4000F501811132C0408E518E628E738E12A2A6
:103E500011A2828593850E94E508912CD501909648
:103E60008C919097815090968C93892DE8A1F9A11F
:103E70000FB6F894FEBF0FBEEDBFA1960FB6F89433
:103E8000DEBF0FBECDBFDF91CF911F910F91FF908D
:103E9000EF90DF90CF90BF90AF909F908F907F90EA
:103EA0006F905F904F903F90089580899189A2898B
:103EB000B38993018201081B190B2A0B3B0BD90113
:103EC000C801893116EF9107A105B10560F00E9484
:103ED000500A8EE593E00E94750AD50192961C92D5
:103EE0001E92919760CC893C9F4AA105B10598F438
:103EF000F50184899589A689B78993018201081BF8
:103F0000190B2A0B3B0BD901C801893C9F4AA1051B
:103F1000B10508F49FCBF501808D918DA28DB38DF5
:103F200093018201081B190B2A0B3B0BD901C80115
:103F300081379741A105B10508F48CCBD12CC12C58
:103F4000F12CE12C10E000E030E020E050E040E017
:103F500066E0C5010E943E20D50158964D925D92C3
:103F60006D927C925B9776CB232B09F073CBF50196
:103F7000408D518D628D738D93018201041B150B51
:103F8000260B370BB901A8018823B1F041375741FF
:103F90006105710508F45ECB0E94500A80E593E04C
:103FA0000E94750AD5011A968D919C910E94E50890
:103FB000F50112A211A251CF493853416105710593
:103FC00008F448CB1A968D919C910E94E508F50162
:103FD00002851385D8011A966D917C91C8010E94C3
:103FE000DB0AF801848781110DC0828593858035B5
:103FF000910599F460E97FE1C8010E94DB0AD801CC
:104000001C968C93D8011C969C90911011C0F501C0
:10401000408E518E628E738E21CF80399F4191F7F1
:1040200060E570E0C8010E94DB0AF8018487EACFEE
:1040300081E090E0D5015D969C938E935C971C96F1
:104040002D913C91F90101900020E9F731978F0102
:10405000021B130BD12CC12CF12CE12C41E050E0C0
:104060006DE1C5010E943E20F50184899589A689EC
:10407000B789808F918FA28FB38FF0CE2F923F920E
:104080004F925F926F927F928F929F92AF92BF9268
:10409000CF92DF92EF92FF920F931F93CF93DF9314
:1040A000CDB7DEB7C854D1090FB6F894DEBF0FBE46
:1040B000CDBF4C0168AF5AAF49AF27963FAF2EAF87
:1040C000279721961FAF0EAF21972996FFAEEEAE30
:1040D00029972396DFAECEAE2397DC011A968D91F9
:1040E0009C910E94D208882309F4B7C1B8ADBB23C4
:1040F00051F0B63041F0BD3131F0F40181A192A10F
:10410000019709F0AAC188AD8F508630A0F5D4017F
:1041100054964D915D916D917C9157975096CD90AD
:10412000DD90ED90FC905397C416D506E606F70691
:1041300010F46A017B01B2E4CB0ED11CE11CF11C2E
:104140000E94FE02A7019601261B370B480B590B54
:10415000DA01C901B7FD9BC1C4010E94F21A0E9495
:10416000FE02A7019601261B370B480B590BDA01FB
:10417000C901B7FFF1CFF40180819181019709F066
:10418000B2C082E090E091838083228133814481B8
:1041900055816681778180859185A0E0FE017A96C0
:1041A0000E94003109F486C1FBABEAAB1DAA1CAA30
:1041B00088E190E09FAB8EAB6DE472E0CE01C296D9
:1041C0000E94C017D40112964C90129713965C90DF
:1041D000139714966C90149715967C9015971696D5
:1041E000BC91BBAFF401F781FCAFD40118962C90C1
:1041F000189719963C90198E9201A3016BAD7F2FF1
:10420000C101A0E00E94003109F44AC1FE01799683
:104210002596FFAFEEAF259727E130E03EAF2DAFFB
:104220008AE0A82EB12CC12CD12CE12CF12C00E07D
:1042300010E09201A3016BAD7CADC1010E94A130E1
:10424000F901EB59FD4F80812596AEADBFAD2597A5
:104250008E932596BFAFAEAF2597EDADFEAD3197EE
:10426000FEAFEDAF9AE0A92EB12CC12CD12CE12CE0
:10427000F12C00E010E09201A3016BAD7CADC10117
:104280000E94A33029013A016BAF7CAF1C01A0E072
:104290000E94003121F04DAD5EAD452B09F66DADAC
:1042A0007EAD6C0F7D1F6E5F7F4F09F0FEC0EAA9E7
:1042B000FBA98CA99DA99C012F5F3F4F3DAB2CAB67
:1042C000E80FF91F10820CA91DA9015011092AA994
:1042D0003BA9D12CC12CF12CE12C50E040E065E150
:1042E000C4010E943E2029AD3AAD232BB9F4D4017C
:1042F0005E960D90BC91A02DBAAFA9AFAB2B71F417
:10430000F401848D958D019609F4E9C0958F848F11
:10431000F401048CF58DE02DFAAFE9AF27962EADB0
:104320003FAD279721960EAD1FAD21970B5F1F4F15
:10433000232B11F405E010E029964EAD5FAD2997CF
:1043400090E080E0452B21F023968EAD9FAD239722
:10435000080F191F58AD598389AD9AAD9827892741
:1043600098279B838A8321968EAD9FAD21972396B4
:10437000AEADBFAD23978A0F9B1F9827892798273B
:104380009D838C83D4011A96ED91FC91808191815B
:10439000DC01ED91FC910280F381E02D45E050E0DD
:1043A000BE016F5F7F4F09957C0160E070E0CB013B
:1043B0000E94CB02B8ADBB2309F444C02196EEADF8
:1043C000FFAD2197EF2BE1F0D4011A96ED91FC910E
:1043D00080819181DC01ED91FC910280F381E02DDF
:1043E00021964EAD5FAD219727966EAD7FAD279795
:1043F0000995E80EF91E60E070E0CB010E94CB0247
:104400002396EEADFFAD2397EF2BE1F0D4011A9682
:10441000ED91FC9180819181DC01ED91FC91028014
:10442000F381E02D23964EAD5FAD239729966EADB7
:104430007FAD29970995E80EF91E60E070E0CB0189
:104440000E94CB02E016F10609F44EC0F40112A25C
:1044500011A2828593850E94E508C85BDF4F0FB6E5
:10446000F894DEBF0FBECDBFDF91CF911F910F91AA
:10447000FF90EF90DF90CF90BF90AF909F908F9084
:104480007F906F905F904F903F902F900895D40150
:1044900090968C9181116FCEC4010E94F21A6BCE5E
:1044A00080E3888FBE01685E7F4FCE01C2960E9476
:1044B000C01709CFFA83E9831C821B8284E090E055
:1044C0009E838D8363E672E0CE0101960E94C01741
:1044D0000B811C810150110929813A81FACE81E0BA
:1044E00090E0958F848F14CF0E94FE02D4015496E1
:1044F0006D937D938D939C935797AFCFCF92DF921F
:10450000EF92FF920F931F93CF93DF93CDB7DEB758
:10451000C658D1090FB6F894DEBF0FBECDBF7C01DF
:104520008B01CE010196CF57DF4F99838883C15805
:10453000D040CD57DF4F19821882C358D04080E851
:1045400090E0CB57DF4F99838883C558D04069E806
:1045500072E0CE018F579F4F0E94C017B701CE0166
:104560008F579F4F0E94CD1AB801CE018F579F4F92
:104570000E94CD1ACD57DF4F08811981C358D04012
:1045800001501109CF57DF4F28813981C158D040E0
:10459000D12CC12CF12CE12C50E040E064E18CE105
:1045A00096E00E943E20CA57DF4F0FB6F894DEBF58
:1045B0000FBECDBFDF91CF911F910F91FF90EF9074
:1045C000DF90CF900895CF92DF92EF92FF92CF933A
:1045D000DF938EE00E94910224E630E0DC010E942D
:1045E0009A302FEF33E040E050E00E942030690124
:1045F0000E94B508EC01B60181E090E00E947E22A5
:1046000040E061E08EE595E00E942A098BE39FE19E
:104610000197F1F760E080E00E94410968EA72E0EA
:104620008EE595E00E94D30AB6018EE595E00E94E2
:104630001A0A64EB72E08EE595E00E94D30A61E00D
:1046400080E00E9441096EEA72E08EE595E00E94EA
:10465000D30ABE018EE595E00E941A0A67EB72E06C
:104660008EE595E00E94D30A69E073E08FE794E05D
:104670000E94D30AB6018FE794E00E941A0A83EBE6
:1046800092E00E94620A67EC72E08FE794E00E9479
:10469000D30ABE018FE794E00E941A0A86EB92E0EB
:1046A0000E94620A60E08AE00E94410980915403FE
:1046B00062E972E0882311F06CE872E08EE595E023
:1046C0000E94D30A61E08AE00E944109809152036E
:1046D00060EA72E0882311F069E972E08EE595E006
:1046E000DF91CF91FF90EF90DF90CF900C94D30AA1
:1046F000CF93DF930E94B508EC0169EB72E08FE77E
:1047000094E00E94D30ACE010E949B0AC13DD7408B
:1047100084F080915403882361F070E060E083E0CE
:1047200090E00E947E2280ED92E0DF91CF910C9488
:10473000620ADF91CF910895CF92DF92EF92FF92BC
:10474000CF93DF938EE00E94910224E630E0DC01FB
:104750000E949A302FEF33E040E050E00E9420307A
:104760006901E90160E073E08FE794E00E94D30AF9
:10477000C6010E949B0AA497A4F08091530388234A
:1047800081F070E060E082E090E00E947E2287E1AC
:1047900093E0DF91CF91FF90EF90DF90CF900C945A
:1047A000620ADF91CF91FF90EF90DF90CF90089554
:1047B0000C94532E1F920F920FB60F9211242F9329
:1047C0003F938F939F93AF93BF9380915A0490919F
:1047D0005B04A0915C04B0915D043091590423E026
:1047E000230F2D3758F50196A11DB11D20935904B3
:1047F00080935A0490935B04A0935C04B0935D048F
:1048000080915E0490915F04A0916004B091610476
:104810000196A11DB11D80935E0490935F04A09347
:104820006004B0936104BF91AF919F918F913F91CC
:104830002F910F900FBE0F901F90189526E8230F11
:104840000296A11DB11DD2CF1F920F920FB60F92EB
:1048500011242F933F934F935F936F937F938F9385
:104860009F93AF93BF93EF93FF938FE794E00E94E2
:104870005F04FF91EF91BF91AF919F918F917F91D5
:104880006F915F914F913F912F910F900FBE0F90BD
:104890001F9018951F920F920FB60F9211242F930D
:1048A0008F939F93EF93FF93E0918F04F091900487
:1048B0008081E0919504F091960482FD1BC0908167
:1048C000809198048F5F8F7320919904821741F033
:1048D000E0919804F0E0E158FB4F958F80939804A5
:1048E000FF91EF919F918F912F910F900FBE0F909D
:1048F0001F9018958081F4CF1F920F920FB60F92E0
:1049000011242F933F934F935F936F937F938F93D4
:104910009F93AF93BF93EF93FF938091B900887FEC
:10492000803609F44AC0F0F5883209F4A5C018F5BC
:10493000803109F499C0B8F4882309F4F5C08830AF
:1049400009F492C0FF91EF91BF91AF919F918F9128
:104950007F916F915F914F913F912F910F900FBE7B
:104960000F901F901895883109F486C0803251F756
:104970008093BF0314C0803409F49BC040F480339B
:10498000B9F38833F9F68093BF0385ECAEC0803568
:1049900009F483C0883509F494C0883499F60E94DC
:1049A000E817D0CF883909F48AC038F5883729F05C
:1049B00050F4883611F0803729F683E08093C103E4
:1049C00010929A0355C0883809F479C0803919F0DB
:1049D000803809F0B7CF80919A03803208F06FC019
:1049E000E0919A0381E08E0F80939A038091BB003F
:1049F000F0E0E658FC4F80833BC0803B39F0D0F4B8
:104A0000803A09F477C0883A09F09CCF84E080931B
:104A1000C1031092790310927803F0E0E0E0099569
:104A20008091780381110FC081E080937803109208
:104A3000580309C0803C09F4A8CF883C09F4A5CFED
:104A4000883B09F07FCFE091790381E08E0F80935E
:104A50007903F0E0E85AFC4F80818093BB0090918D
:104A600079038091780329C080919C038093BB00D7
:104A700085EC8093BC0066CF9091BE038091BD030E
:104A8000981758F5E091BE0381E08E0F8093BE0326
:104A9000F0E0E356FC4F8081E9CFE091BE0381E076
:104AA0008E0F8093BE038091BB00F0E0E356FC4F75
:104AB00080839091BE038091BD039817C8F285E86A
:104AC000D8CFE091BE0381E08E0F8093BE0380912A
:104AD000BB00F0E0E356FC4F80838091C00381115E
:104AE0005ECF81E080939B0384EA8093BC001092A8
:104AF000C10328CF85EC8093BC001092C103809144
:104B00009A03803230F4E0919A03F0E0E658FC4FCB
:104B1000108260919A0370E08AE793E0F0E0E0E0B1
:104B2000099510929A030ECF1092BF0338CFDC0183
:104B3000ED91FC911197309761F012962D913C9177
:104B40001397E217F30728F401900020E9F7ED939B
:104B5000FC930895FC0180819181009739F02281B6
:104B600033818217930710F40C94802F90E080E03B
:104B70000895AF92BF92CF92DF92EF92FF920F9380
:104B80001F93CF93DF93CDB7DEB7CC5CD1090FB6BF
:104B9000F894DEBF0FBECDBF5C01CE0189579F4F99
:104BA000C953DF4F99838883C75CD040C753DF4F19
:104BB00019821882C95CD04080E490E0C553DF4F71
:104BC00099838883CB5CD04066E772E0CE0189533D
:104BD0009F4F0E94C0176BE772E0CE0189539F4F31
:104BE0000E94C01746E850E063E770E0CE010196EE
:104BF0000E94C52FC753DF4FC880D980C95CD04001
:104C000081E0C81AD108C953DF4FE880F980C75C3A
:104C1000D04006E810E09E012F5F3F4F50E040E09B
:104C200061E1C5010E943E20C453DF4F0FB6F894E6
:104C3000DEBF0FBECDBFDF91CF911F910F91FF90CF
:104C4000EF90DF90CF90BF90AF900895EFE7F4E042
:104C50001382128288EE93E0A0E0B0E08483958313
:104C6000A683B78329E631E03183208325EC30E049
:104C70003587248724EC30E03787268720EC30E026
:104C8000318B208B21EC30E0338B228B22EC30E017
:104C9000358B248B26EC30E0378B268B118E128ED1
:104CA000138E148EECE1F5E01382128284839583D7
:104CB000A683B7838BE791E091838083E8E2F5E0F8
:104CC0008BEC91E09183808312821382148215828F
:104CD000EEE2F5E0918380831282138214821582C2
:104CE000E4E3F5E0918380831282138214821582BB
:104CF000EAE3F5E0918380831282138214821582A5
:104D0000E0E4F5E09183808312821382148215829D
:104D1000ECE4F5E091838083128213821482158281
:104D2000E6E4F5E091838083128213821482158277
:104D3000E2E5F5E09183808312821382148215826A
:104D4000E8E5F5E091838083128213821482158254
:104D5000E1E6F6E091838083128213821482158249
:104D6000E2E5F6E01382128229E931E03183208303
:104D700024E0248728EE33E036872587A5E4B6E0D3
:104D800013969C938E93129714961D921D921D92CA
:104D90001C92179719961C921E9218971B961C929C
:104DA0001E921A971C961C921C971196FC93EE93D8
:104DB00040E757E160E070E0448355836683778382
:104DC000ECE1F6E0118210821282138214821582C5
:104DD0001682178210861186B387A28715861486DD
:104DE00017861686108A118A128A138A148A158ADF
:104DF000168A178A108E118E128E138E158E148EAF
:104E0000178E168E10A212A211A28FEF9FEF909311
:104E10001B0680931A06EEE5F5E0138212828DE8F8
:104E200091E09183808387E2848380E1818782E0BF
:104E3000828713860895CF93DF93CDB7DEB72C9783
:104E40000FB6F894DEBF0FBECDBF789484B58260F4
:104E500084BD84B5816084BD85B5826085BD85B51E
:104E6000816085BD80916E00816080936E0010929C
:104E70008100809181008260809381008091810017
:104E800081608093810080918000816080938000A8
:104E90008091B10084608093B1008091B000816006
:104EA0008093B00080917A00846080937A00809132
:104EB0007A00826080937A0080917A00816080938A
:104EC0007A0080917A00806880937A001092C10005
:104ED000E0918F04F091900482E08083E0918B0454
:104EE000F0918C041082E0918D04F0918E0480E1A9
:104EF000808310929704E0919304F091940486E0EB
:104F00008083E0919104F09192048081806180839C
:104F1000E0919104F0919204808188608083E09117
:104F20009104F0919204808180688083E0919104E3
:104F3000F091920480818F7D80830E94500A8AEED6
:104F400091E00E94750A8EEF80933F069DEE90934C
:104F500040062AEB20934106809342068093430645
:104F60009093440620E031E0D9010D900020E9F74C
:104F70009D0121503140A0E0B1E0E1E0F0E0AD0161
:104F8000405051404217530784F4AF014F5F5F4FC9
:104F90006D91E45EF94F83A1862783A346305105C6
:104FA00014F041E050E0FA01EACF80915104811100
:104FB0002AC0109239041092380488EE93E0A0E0E1
:104FC000B0E080933A0490933B04A0933C04B093E8
:104FD0003D048FE391E090933704809336048BEC8B
:104FE00091E09093450480934404109246041092FB
:104FF0004704109248041092490484E080934E04C0
:1050000081E08093510483EF93E09093F2038093C7
:10501000F1038091F0038111ADC060E372E080E0A4
:1050200090E00E94CB02DFB6F89403E312E0E7E4DD
:10503000EE2EE2E0FE2E8091EE03811125C0F801F4
:105040008491F7019491E82FF0E0EE0FFF1FE850F4
:10505000FE4FA591B4918C91982321F461E08AE0F0
:105060000E94270261E08AE00E9455028CB58061AF
:105070008CBD8CB580648CBD61E08DE00E945502D2
:1050800061E08BE00E9455028091EE038F5F809378
:10509000EE03DFBEF8010491E02FF0E0EE0FFF1FFA
:1050A000EE5FFD4F859194919093ED038093EC0317
:1050B000F701E490E092EB0361E08AE00E94550280
:1050C0000E94DE0680E591E00E94E50184E3809382
:1050D0007E0480E80E94AA070E94670D882309F4D5
:1050E00032C288E00E94AA070E94540D883009F05D
:1050F0002AC280E10E94AA070E94540D803109F063
:1051000022C280E00E94AA070E94540D182F81112C
:105110001AC241E050E0BE016F5F7F4F8FE190E027
:105120000E94DF0B8981833009F00DC280E48093F7
:10513000EF0342E06EE170E0812F0E94060842E03A
:105140006FE170E0812F0E9406081F5F143089F71D
:1051500040E06EE170E0812F0E94060840E06FE1C0
:1051600070E0812F0E9406081F5F183089F781E0E8
:105170008093F00380E591E00E94E50146E050E075
:105180006FE376E089E090E00E94FA068BEC91E014
:105190009A8389831B821C821D821E8244E050E018
:1051A000BE016D5F7F4F8FE090E00E94FA06009194
:1051B000F1031091F203D80192961D921D921D9257
:1051C0001C929597F80116A217A210A611A69A96FE
:1051D0001D921D921D921C929D9780E69AEEA0E072
:1051E000B0E086AB97ABA0AFB1AF80EA9FE0A0E0A4
:1051F000B0E082AF93AFA4AFB5AFD801189686E008
:10520000FD01282F11922A95E9F79801225F3F4F5F
:1052100094E1F90111929A95E9F7EFE3F6E0019034
:105220000D928A95E1F72C5C3F4F3A872987D90187
:105230001C920E94282F2FEC37E040E050E00E94A3
:105240002030DC01CB010196A11DB11DF801848342
:105250009583A683B78380839183A283B383580108
:10526000F3E4AF0EB11CC5010E94AF0C64E470E022
:10527000C5010E941810882309F4CEC10E94FE02C5
:105280002B013C0143E0242E58EEC52E53E0D52ED1
:10529000E12CF12C912C812CA985BA858C9183303D
:1052A000B9F18111C9C1F80184819581A681B781C5
:1052B0000196A11DB11D84839583A683B7830E94A7
:1052C000FE026419750986099709A70196010E94D3
:1052D0005230A90161E0C8010E94BF1981E0A9858F
:1052E000BA858C93F1E08F169104B1F20E94FE0210
:1052F0006419750986099709D801D6962D913D91B3
:105300004D915C91D997261737074807590710F632
:10531000C5010E94AF0CF80184819581A681B781F7
:105320000196A11DB11D84839583A683B7830E9436
:10533000FE02F801FE9660837183828393838A94D0
:10534000892809F069C180E591E00E94E50100919A
:10535000F1031091F203B801625F7F4FCE01019615
:105360000E94BD1344E050E0BE016D5F7F4F8FE0AF
:1053700090E00E94FA06B8016A5E7F4FCE01019666
:105380000E94BD1344E050E0BE016D5F7F4F81E09D
:1053900090E00E94FA06B8016E5E7F4FCE01019642
:1053A0000E94BD1344E050E0BE016D5F7F4F85E079
:1053B00090E00E94FA06B801625E7F4FCE0101962E
:1053C0000E94BD138B819C81AD81BE818093480575
:1053D00090934905A0934A05B0934B050E94A602FD
:1053E0007F73809121019091220168277927709322
:1053F00022016093210168EE73E080E090E00E945A
:10540000CB028BEC91E09A8389831B821C821D82E4
:105410001E8280E591E00E94E50144E050E0BE017B
:105420006D5F7F4F8FE090E00E94DF0B0E94500A7B
:1054300089ED91E00E94CE046B818FE794E00E9499
:10544000D5096EE28FE794E00E94DA036C818FE762
:1054500094E00E94D5096EE28FE794E00E94DA039F
:105460006D818FE794E00E94D5096EE28FE794E0AA
:105470000E94DA036E818FE794E00E94D5096DECFB
:1054800071E08FE794E00E947A0980E091E09093C8
:105490002906809328060E94FE02DC01CB01885871
:1054A0009341A109B1098093300690933106A093EE
:1054B0003206B093330680932C0690932D06A0936A
:1054C0002E06B0932F068093340690933506A09352
:1054D0003606B09337060E94500A89E191E00E9497
:1054E000750AE0912606F091270686E493E09187FD
:1054F000808780E590E0938782878091260690914F
:1055000027060E94E50810923E0610923D060E9472
:10551000FE024B015C0180913D0690913E06019791
:1055200009F457C10E94FE02681979098A099B098A
:10553000603576448105910508F04BC18CE196E019
:105540000E94F21AE8CF87E380937E0480E80E94ED
:10555000AA070E94670D882329F188E00E94AA0704
:105560000E94540D8830F1F480E10E94AA070E9445
:10557000540D182F8031B1F480E00E94AA070E94D8
:10558000540D81110FC041E050E0BE016F5F7F4FAD
:1055900089E390E00E94DF0B8981843019F4109335
:1055A000EF03E5CD83E380937E0480E80E94AA07A1
:1055B0000E94670D882371F180E10E94AA070E9472
:1055C000540D803139F582E10E94AA070E94540DE2
:1055D000823101F580E00E94AA070E94540D8111DA
:1055E00019C084E08093EF0315E5188741E050E08F
:1055F000BE01685F7F4F8BE190E00E94FA061F8337
:1056000041E050E0BE01695F7F4F8AE190E00E9477
:10561000FA06ADCD10927E040E94500A8DED91E005
:105620000E94750A60E177E280E090E00E94CB0280
:10563000F0E0E0E00995FFCF843001F5F8018481C6
:105640009581A681B7810196A11DB11D84839583A3
:10565000A683B7830E94FE0264197509860997091B
:10566000A70196010E945230A90163E0C8010E947F
:10567000BF19E2E0A985BA85EC9334CE813069F593
:10568000D801DA964D915D916D917C91DD979E01E7
:105690002F5F3F4FC8010E942018382EB2E08B13B5
:1056A00091C089819A81AB81BC81F8018483958303
:1056B000A683B7830E94FE026419750986099709BB
:1056C000A70196010E945230A90163E0C8010E941F
:1056D000BF19A985BA853C9205CE823009F002CE69
:1056E000F80142AD53AD64AD75AD9E012F5F3F4FE4
:1056F000C8010E942018382EF5E08F135CC0A985E0
:10570000BA852C92F80182A193A1A4A1B5A1892BFD
:105710008A2B8B2B41F424E833E040E050E022A3B5
:1057200033A344A355A3F80186A197A1A0A5B1A5D1
:10573000892B8A2B8B2B61F482A193A1A4A1B5A103
:10574000B695A7959795879586A397A3A0A7B1A788
:10575000F80182A593A5A4A5B5A5892B8A2B8B2B2F
:10576000A9F482A193A1A4A1B5A1AC01BD0123E03C
:1057700076956795579547952A95D1F7841B950B94
:10578000A60BB70B82A793A7A4A7B5A7F80186A17C
:1057900097A1A0A5B1A586A797A7A0ABB1AB82A5FD
:1057A00093A5A4A5B5A582AB93ABA4ABB5AB882458
:1057B0008394912C97CDF6E08F1304C0A985BA8508
:1057C0001C9290CDBFEF3B128DCDE985FA851082FA
:1057D00089CD80913D0690913E06019709F08DCECE
:1057E000E0918F04F091900492E0F92EF082E09124
:1057F0008B04F0918C041082E0918D04F0918E0462
:1058000087E6808310929704E0919304F0919404CA
:1058100086E08083E0919104F09192048081806120
:105820008083E0919104F09192048081886080836C
:10583000E0919104F0919204808180688083E091EE
:105840009104F091920480818F7D80838FEF90E0AE
:105850000E94E9048FEF90E00E94E9048FEF90E04E
:105860000E94E90480916305886080936305F0924B
:10587000660562E370E080E090E00E94CB026091F8
:1058800069058EE595E00E94DD0568EE73E080E035
:1058900090E00E94CB0260E38EE595E00E94110942
:1058A0000BE416E4C8010197F1F760E38EE595E09B
:1058B0000E941109C8010197F1F760E38EE595E0B8
:1058C0000E94110983E592E00197F1F760E28EE50D
:1058D00095E00E94110960916305606240E08EE5E9
:1058E00095E00E942A0984E08093640540E06CE022
:1058F0008EE595E00E942A0940E061E08EE595E0A2
:105900000E942A090BE31FE1C8010197F1F7F09209
:10591000650540E066E08EE595E00E942A0940E0DA
:1059200062E08EE595E00E942A09C8010197F1F72F
:1059300088E08093690560E08EE595E00E94DD05D2
:1059400083EE92E29A838983AE014F5F5F4F68EEE8
:1059500073E080E090E00E940A038CE993E29A836E
:105960008983AE014F5F5F4F60ED77E080E090E0AC
:105970000E940A0388E793E29A838983AE014F5F0E
:105980005F4F60ED77E080E090E00E940A032AE13B
:10599000C22E26E0D22E22242394312C8CE196E0D4
:1059A0000E94F21A0E94FE022B013C018AE6E82EB8
:1059B00085E0F82E8701D80155961C921E925497C7
:1059C00014968D919C911597892B31F416968D9193
:1059D0009C91892B09F449C0D8012D913D914D919D
:1059E0005C91139729873A874B875C87C301B20183
:1059F000621B730B840B950B1B968D909D90AD9045
:105A0000BC901E97681579058A059B0570F1811475
:105A10009104A104B10409F48AC0A50194010E9473
:105A20005230C501B4010E94833029853A854B85E7
:105A30005C85620F731F841F951FD8016D937D9342
:105A40008D939C931397D80153968C9153978823E9
:105A500061F01F962D913C9150972115310509F069
:105A60006CC055963C922E9254970A5E1F4FC016FA
:105A7000D10609F0A0CF10E000E0D70154968D9137
:105A80009C915597892BE9F11A968C911A97882346
:105A900009F468C01696ED91FC91179718968D91B0
:105AA0009C910995F70184899589029751F5809118
:105AB0001A0690911B06892B21F184819581892BEF
:105AC00021F486819781892BE1F026E1209FF00166
:105AD000219FF00D1124E659FA4FDF011D922A95FE
